{
  "_format": "hh-sol-artifact-1",
  "contractName": "FxERC721RootTunnel",
  "sourceName": "@maticnetwork/fx-portal/contracts/examples/erc721-transfer/FxERC721RootTunnel.sol",
  "abi": [
    {
      "inputs": [
        {
          "internalType": "address",
          "name": "_checkpointManager",
          "type": "address"
        },
        {
          "internalType": "address",
          "name": "_fxRoot",
          "type": "address"
        },
        {
          "internalType": "address",
          "name": "_fxERC721Token",
          "type": "address"
        }
      ],
      "stateMutability": "nonpayable",
      "type": "constructor"
    },
    {
      "anonymous": false,
      "inputs": [
        {
          "indexed": true,
          "internalType": "address",
          "name": "rootToken",
          "type": "address"
        },
        {
          "indexed": true,
          "internalType": "address",
          "name": "depositor",
          "type": "address"
        },
        {
          "indexed": true,
          "internalType": "address",
          "name": "userAddress",
          "type": "address"
        },
        {
          "indexed": false,
          "internalType": "uint256",
          "name": "id",
          "type": "uint256"
        }
      ],
      "name": "FxDepositERC721",
      "type": "event"
    },
    {
      "anonymous": false,
      "inputs": [
        {
          "indexed": true,
          "internalType": "address",
          "name": "rootToken",
          "type": "address"
        },
        {
          "indexed": true,
          "internalType": "address",
          "name": "childToken",
          "type": "address"
        },
        {
          "indexed": true,
          "internalType": "address",
          "name": "userAddress",
          "type": "address"
        },
        {
          "indexed": false,
          "internalType": "uint256",
          "name": "id",
          "type": "uint256"
        }
      ],
      "name": "FxWithdrawERC721",
      "type": "event"
    },
    {
      "anonymous": false,
      "inputs": [
        {
          "indexed": true,
          "internalType": "address",
          "name": "rootToken",
          "type": "address"
        },
        {
          "indexed": true,
          "internalType": "address",
          "name": "childToken",
          "type": "address"
        }
      ],
      "name": "TokenMappedERC721",
      "type": "event"
    },
    {
      "inputs": [],
      "name": "DEPOSIT",
      "outputs": [
        {
          "internalType": "bytes32",
          "name": "",
          "type": "bytes32"
        }
      ],
      "stateMutability": "view",
      "type": "function"
    },
    {
      "inputs": [],
      "name": "MAP_TOKEN",
      "outputs": [
        {
          "internalType": "bytes32",
          "name": "",
          "type": "bytes32"
        }
      ],
      "stateMutability": "view",
      "type": "function"
    },
    {
      "inputs": [],
      "name": "SEND_MESSAGE_EVENT_SIG",
      "outputs": [
        {
          "internalType": "bytes32",
          "name": "",
          "type": "bytes32"
        }
      ],
      "stateMutability": "view",
      "type": "function"
    },
    {
      "inputs": [],
      "name": "checkpointManager",
      "outputs": [
        {
          "internalType": "contract ICheckpointManager",
          "name": "",
          "type": "address"
        }
      ],
      "stateMutability": "view",
      "type": "function"
    },
    {
      "inputs": [],
      "name": "childTokenTemplateCodeHash",
      "outputs": [
        {
          "internalType": "bytes32",
          "name": "",
          "type": "bytes32"
        }
      ],
      "stateMutability": "view",
      "type": "function"
    },
    {
      "inputs": [
        {
          "internalType": "bytes32",
          "name": "salt",
          "type": "bytes32"
        },
        {
          "internalType": "bytes32",
          "name": "bytecodeHash",
          "type": "bytes32"
        },
        {
          "internalType": "address",
          "name": "deployer",
          "type": "address"
        }
      ],
      "name": "computedCreate2Address",
      "outputs": [
        {
          "internalType": "address",
          "name": "",
          "type": "address"
        }
      ],
      "stateMutability": "pure",
      "type": "function"
    },
    {
      "inputs": [
        {
          "internalType": "address",
          "name": "rootToken",
          "type": "address"
        },
        {
          "internalType": "address",
          "name": "user",
          "type": "address"
        },
        {
          "internalType": "uint256",
          "name": "tokenId",
          "type": "uint256"
        },
        {
          "internalType": "bytes",
          "name": "data",
          "type": "bytes"
        }
      ],
      "name": "deposit",
      "outputs": [],
      "stateMutability": "nonpayable",
      "type": "function"
    },
    {
      "inputs": [],
      "name": "fxChildTunnel",
      "outputs": [
        {
          "internalType": "address",
          "name": "",
          "type": "address"
        }
      ],
      "stateMutability": "view",
      "type": "function"
    },
    {
      "inputs": [],
      "name": "fxRoot",
      "outputs": [
        {
          "internalType": "contract IFxStateSender",
          "name": "",
          "type": "address"
        }
      ],
      "stateMutability": "view",
      "type": "function"
    },
    {
      "inputs": [
        {
          "internalType": "address",
          "name": "rootToken",
          "type": "address"
        }
      ],
      "name": "mapToken",
      "outputs": [],
      "stateMutability": "nonpayable",
      "type": "function"
    },
    {
      "inputs": [
        {
          "internalType": "address",
          "name": "",
          "type": "address"
        },
        {
          "internalType": "address",
          "name": "",
          "type": "address"
        },
        {
          "internalType": "uint256",
          "name": "",
          "type": "uint256"
        },
        {
          "internalType": "bytes",
          "name": "",
          "type": "bytes"
        }
      ],
      "name": "onERC721Received",
      "outputs": [
        {
          "internalType": "bytes4",
          "name": "",
          "type": "bytes4"
        }
      ],
      "stateMutability": "pure",
      "type": "function"
    },
    {
      "inputs": [
        {
          "internalType": "bytes32",
          "name": "",
          "type": "bytes32"
        }
      ],
      "name": "processedExits",
      "outputs": [
        {
          "internalType": "bool",
          "name": "",
          "type": "bool"
        }
      ],
      "stateMutability": "view",
      "type": "function"
    },
    {
      "inputs": [
        {
          "internalType": "bytes",
          "name": "inputData",
          "type": "bytes"
        }
      ],
      "name": "receiveMessage",
      "outputs": [],
      "stateMutability": "nonpayable",
      "type": "function"
    },
    {
      "inputs": [
        {
          "internalType": "address",
          "name": "",
          "type": "address"
        }
      ],
      "name": "rootToChildTokens",
      "outputs": [
        {
          "internalType": "address",
          "name": "",
          "type": "address"
        }
      ],
      "stateMutability": "view",
      "type": "function"
    },
    {
      "inputs": [
        {
          "internalType": "address",
          "name": "_fxChildTunnel",
          "type": "address"
        }
      ],
      "name": "setFxChildTunnel",
      "outputs": [],
      "stateMutability": "nonpayable",
      "type": "function"
    }
  ],
  "bytecode": "0x60806040523480156200001157600080fd5b5060405162004165380380620041658339818101604052810190620000379190620001c5565b828281600160006101000a81548173ffffffffffffffffffffffffffffffffffffffff021916908373ffffffffffffffffffffffffffffffffffffffff160217905550806000806101000a81548173ffffffffffffffffffffffffffffffffffffffff021916908373ffffffffffffffffffffffffffffffffffffffff1602179055505050620000cd81620000e360201b60201c565b805190602001206005819055505050506200036a565b60606000693d602d80600a3d3981f360b01b9050600069363d3d373d3d3d363d7360b01b905060008460601b905060006e5af43d82803e903d91602b57fd5bf360881b90508383838360405160200162000141949392919062000314565b604051602081830303815290604052945050505050919050565b600080fd5b600073ffffffffffffffffffffffffffffffffffffffff82169050919050565b60006200018d8262000160565b9050919050565b6200019f8162000180565b8114620001ab57600080fd5b50565b600081519050620001bf8162000194565b92915050565b600080600060608486031215620001e157620001e06200015b565b5b6000620001f186828701620001ae565b93505060206200020486828701620001ae565b92505060406200021786828701620001ae565b9150509250925092565b60007fffffffffffffffffffff0000000000000000000000000000000000000000000082169050919050565b6000819050919050565b6200026c620002668262000221565b6200024d565b82525050565b60007fffffffffffffffffffffffffffffffffffffffff00000000000000000000000082169050919050565b6000819050919050565b620002bd620002b78262000272565b6200029e565b82525050565b60007fffffffffffffffffffffffffffffff000000000000000000000000000000000082169050919050565b6000819050919050565b6200030e6200030882620002c3565b620002ef565b82525050565b600062000322828762000257565b600a8201915062000334828662000257565b600a82019150620003468285620002a8565b601482019150620003588284620002f9565b600f8201915081905095945050505050565b613deb806200037a6000396000f3fe608060405234801561001057600080fd5b50600436106100f55760003560e01c8063972c492811610097578063de9b771f11610066578063de9b771f1461028a578063e9c670ad146102a8578063f4a120f7146102c4578063f953cec7146102e0576100f5565b8063972c492814610214578063aea4e49e14610232578063c0857ba01461024e578063d81c8e521461026c576100f5565b806369914b3e116100d357806369914b3e146101785780637337957f14610196578063886a69ba146101c657806388e70068146101e4576100f5565b80630e387de6146100fa578063150b7a0214610118578063607f2d4214610148575b600080fd5b6101026102fc565b60405161010f91906126a7565b60405180910390f35b610132600480360381019061012d91906127cf565b610323565b60405161013f9190612892565b60405180910390f35b610162600480360381019061015d91906128d9565b610338565b60405161016f9190612921565b60405180910390f35b610180610358565b60405161018d91906126a7565b60405180910390f35b6101b060048036038101906101ab919061293c565b61035e565b6040516101bd919061299e565b60405180910390f35b6101ce6103a2565b6040516101db91906126a7565b60405180910390f35b6101fe60048036038101906101f991906129b9565b6103c6565b60405161020b919061299e565b60405180910390f35b61021c6103f9565b604051610229919061299e565b60405180910390f35b61024c600480360381019061024791906129b9565b61041f565b005b6102566104f4565b6040516102639190612a45565b60405180910390f35b61027461051a565b60405161028191906126a7565b60405180910390f35b61029261053e565b60405161029f9190612a81565b60405180910390f35b6102c260048036038101906102bd9190612bdd565b610562565b005b6102de60048036038101906102d991906129b9565b61076a565b005b6102fa60048036038101906102f59190612c60565b610afc565b005b7f8c5261668696ce22758910d05bab8f186d6eb247ceac2af2e82c7dc17669b03660001b81565b600063150b7a0260e01b905095945050505050565b60036020528060005260406000206000915054906101000a900460ff1681565b60055481565b60008060ff60f81b83868660405160200161037c9493929190612d5f565b6040516020818303038152906040528051906020012090508060001c9150509392505050565b7f2cef46a936bdc5b7e6e8c71aa04560c41cf7d88bb26901a7e7f4936ff02accad81565b60046020528060005260406000206000915054906101000a900473ffffffffffffffffffffffffffffffffffffffff1681565b600260009054906101000a900473ffffffffffffffffffffffffffffffffffffffff1681565b600073ffffffffffffffffffffffffffffffffffffffff16600260009054906101000a900473ffffffffffffffffffffffffffffffffffffffff1673ffffffffffffffffffffffffffffffffffffffff16146104b0576040517f08c379a00000000000000000000000000000000000000000000000000000000081526004016104a790612e30565b60405180910390fd5b80600260006101000a81548173ffffffffffffffffffffffffffffffffffffffff021916908373ffffffffffffffffffffffffffffffffffffffff16021790555050565b600160009054906101000a900473ffffffffffffffffffffffffffffffffffffffff1681565b7f87a7811f4bfedea3d341ad165680ae306b01aaeacc205d227629cf157dd9f82181565b60008054906101000a900473ffffffffffffffffffffffffffffffffffffffff1681565b600073ffffffffffffffffffffffffffffffffffffffff16600460008673ffffffffffffffffffffffffffffffffffffffff1673ffffffffffffffffffffffffffffffffffffffff16815260200190815260200160002060009054906101000a900473ffffffffffffffffffffffffffffffffffffffff1673ffffffffffffffffffffffffffffffffffffffff161415610600576105ff8461076a565b5b8373ffffffffffffffffffffffffffffffffffffffff1663b88d4fde333085856040518563ffffffff1660e01b815260040161063f9493929190612ee7565b600060405180830381600087803b15801561065957600080fd5b505af115801561066d573d6000803e3d6000fd5b5050505060007f87a7811f4bfedea3d341ad165680ae306b01aaeacc205d227629cf157dd9f82185338686866040516020016106ad959493929190612f33565b6040516020818303038152906040526040516020016106cd929190612f8d565b60405160208183030381529060405290506106e781610b16565b8373ffffffffffffffffffffffffffffffffffffffff163373ffffffffffffffffffffffffffffffffffffffff168673ffffffffffffffffffffffffffffffffffffffff167f6027944915fe4eed24b493e60b41ddaea5f543d0cfc0f0357f1cdef7a2ad33798660405161075b9190612fbd565b60405180910390a45050505050565b600073ffffffffffffffffffffffffffffffffffffffff16600460008373ffffffffffffffffffffffffffffffffffffffff1673ffffffffffffffffffffffffffffffffffffffff16815260200190815260200160002060009054906101000a900473ffffffffffffffffffffffffffffffffffffffff1673ffffffffffffffffffffffffffffffffffffffff1614610838576040517f08c379a000000000000000000000000000000000000000000000000000000000815260040161082f9061304a565b60405180910390fd5b600081905060008173ffffffffffffffffffffffffffffffffffffffff166306fdde036040518163ffffffff1660e01b815260040160006040518083038186803b15801561088557600080fd5b505afa158015610899573d6000803e3d6000fd5b505050506040513d6000823e3d601f19601f820116820180604052508101906108c2919061310b565b905060008273ffffffffffffffffffffffffffffffffffffffff166395d89b416040518163ffffffff1660e01b815260040160006040518083038186803b15801561090c57600080fd5b505afa158015610920573d6000803e3d6000fd5b505050506040513d6000823e3d601f19601f82011682018060405250810190610949919061310b565b905060007f2cef46a936bdc5b7e6e8c71aa04560c41cf7d88bb26901a7e7f4936ff02accad85848460405160200161098393929190613198565b6040516020818303038152906040526040516020016109a3929190612f8d565b60405160208183030381529060405290506109bd81610b16565b6000856040516020016109d091906131dd565b6040516020818303038152906040528051906020012090506000610a1982600554600260009054906101000a900473ffffffffffffffffffffffffffffffffffffffff1661035e565b905080600460008973ffffffffffffffffffffffffffffffffffffffff1673ffffffffffffffffffffffffffffffffffffffff16815260200190815260200160002060006101000a81548173ffffffffffffffffffffffffffffffffffffffff021916908373ffffffffffffffffffffffffffffffffffffffff1602179055508073ffffffffffffffffffffffffffffffffffffffff168773ffffffffffffffffffffffffffffffffffffffff167fac7bdfd1c9797163cad973ce9aca20e24ed965aaf4613f777293bffc303562d060405160405180910390a350505050505050565b6000610b0782610bc8565b9050610b1281610ecd565b5050565b60008054906101000a900473ffffffffffffffffffffffffffffffffffffffff1673ffffffffffffffffffffffffffffffffffffffff1663b4720477600260009054906101000a900473ffffffffffffffffffffffffffffffffffffffff16836040518363ffffffff1660e01b8152600401610b939291906131f8565b600060405180830381600087803b158015610bad57600080fd5b505af1158015610bc1573d6000803e3d6000fd5b5050505050565b60606000610bd5836110b5565b90506000610be2826110e9565b90506000610bef8361111a565b9050600081610bfd8461114b565b610c0686611361565b604051602001610c1893929190613285565b604051602081830303815290604052805190602001209050600015156003600083815260200190815260200160002060009054906101000a900460ff16151514610c97576040517f08c379a0000000000000000000000000000000000000000000000000000000008152600401610c8e90613330565b60405180910390fd5b60016003600083815260200190815260200160002060006101000a81548160ff0219169083151502179055506000610cce85611392565b90506000610cdb826114b7565b9050610ce68161152e565b73ffffffffffffffffffffffffffffffffffffffff16600260009054906101000a900473ffffffffffffffffffffffffffffffffffffffff1673ffffffffffffffffffffffffffffffffffffffff1614610d75576040517f08c379a0000000000000000000000000000000000000000000000000000000008152600401610d6c906133c2565b60405180910390fd5b6000610d808761155f565b9050610d9e610d8e84611593565b87610d988a6115a1565b846115d2565b610ddd576040517f08c379a0000000000000000000000000000000000000000000000000000000008152600401610dd490613454565b60405180910390fd5b610e0b85610dea896118d8565b610df38a611909565b84610dfd8c61193d565b610e068d61196e565b61199f565b506000610e1783611af5565b90507f8c5261668696ce22758910d05bab8f186d6eb247ceac2af2e82c7dc17669b03660001b610e59610e54600084611b3a90919063ffffffff16565b611b69565b60001b14610e9c576040517f08c379a0000000000000000000000000000000000000000000000000000000008152600401610e93906134c0565b60405180910390fd5b6000610ea784611bec565b806020019051810190610eba9190613550565b9050809950505050505050505050919050565b600080600080600085806020019051810190610ee991906135ec565b945094509450945094508373ffffffffffffffffffffffffffffffffffffffff16600460008773ffffffffffffffffffffffffffffffffffffffff1673ffffffffffffffffffffffffffffffffffffffff16815260200190815260200160002060009054906101000a900473ffffffffffffffffffffffffffffffffffffffff1673ffffffffffffffffffffffffffffffffffffffff1614610fc0576040517f08c379a0000000000000000000000000000000000000000000000000000000008152600401610fb7906136f5565b60405180910390fd5b8473ffffffffffffffffffffffffffffffffffffffff1663b88d4fde308585856040518563ffffffff1660e01b8152600401610fff9493929190612ee7565b600060405180830381600087803b15801561101957600080fd5b505af115801561102d573d6000803e3d6000fd5b505050508273ffffffffffffffffffffffffffffffffffffffff168473ffffffffffffffffffffffffffffffffffffffff168673ffffffffffffffffffffffffffffffffffffffff167fdf709ff47fc84022ec81f28321525a93cfb41fac4318bf8a368d685c6f3ea691856040516110a59190612fbd565b60405180910390a4505050505050565b6110bd61260d565b60006110d06110cb84611c1d565b611c4b565b9050604051806020016040528082815250915050919050565b6060611113826000015160088151811061110657611105613715565b5b6020026020010151611d60565b9050919050565b6000611144826000015160028151811061113757611136613715565b5b6020026020010151611b69565b9050919050565b6060600060405180602001604052806000815250905060008351111561135857600080611179600086611e17565b60f81c905060018160ff161480611193575060038160ff16145b1561125d576001600286516111a89190613773565b6111b291906137cd565b67ffffffffffffffff8111156111cb576111ca612ab2565b5b6040519080825280601f01601f1916602001820160405280156111fd5781602001600182028036833780820191505090505b509250600061120d600187611e17565b9050808460008151811061122457611223613715565b5b60200101907effffffffffffffffffffffffffffffffffffffffffffffffffffffffffffff1916908160001a90535060019250506112c9565b600280865161126c9190613773565b61127691906137cd565b67ffffffffffffffff81111561128f5761128e612ab2565b5b6040519080825280601f01601f1916602001820160405280156112c15781602001600182028036833780820191505090505b509250600091505b60008260ff1690505b8351811015611354576112ff60028460ff16836112ef91906137cd565b6112f99190613801565b87611e17565b84828151811061131257611311613715565b5b60200101907effffffffffffffffffffffffffffffffffffffffffffffffffffffffffffff1916908160001a905350808061134c90613857565b9150506112d2565b5050505b80915050919050565b600061138b826000015160098151811061137e5761137d613715565b5b6020026020010151611b69565b9050919050565b61139a612620565b6113c282600001516006815181106113b5576113b4613715565b5b6020026020010151611d60565b816020018190525060006113d98260200151611c1d565b90506113e481611eaf565b156113ff576113f281611c4b565b826000018190525061149f565b60008260200151905060006001825161141891906137cd565b67ffffffffffffffff81111561143157611430612ab2565b5b6040519080825280601f01601f1916602001820160405280156114635781602001600182028036833780820191505090505b50905060008083602101915082602001905061148182828551611efd565b61149261148d84611c1d565b611c4b565b8660000181905250505050505b6114a883611361565b82604001818152505050919050565b6114bf612641565b60006114e983600001516003815181106114dc576114db613715565b5b6020026020010151611c4b565b8360400151815181106114ff576114fe613715565b5b60200260200101519050604051806040016040528082815260200161152383611c4b565b815250915050919050565b6000611558826020015160008151811061154b5761154a613715565b5b6020026020010151611fa8565b9050919050565b6000611589826000015160058151811061157c5761157b613715565b5b6020026020010151611b69565b60001b9050919050565b606081602001519050919050565b60606115cb82600001516007815181106115be576115bd613715565b5b6020026020010151611d60565b9050919050565b6000806115de84611c1d565b905060006115eb82611c4b565b905060608060008690506000806116018b61114b565b905060008151141561161d5760009750505050505050506118d0565b60005b86518110156118c7578151831115611643576000985050505050505050506118d0565b61166687828151811061165957611658613715565b5b6020026020010151611fcb565b955085805190602001208414611687576000985050505050505050506118d0565b6116aa87828151811061169d5761169c613715565b5b6020026020010151611c4b565b945060118551141561179d57815183141561171a578c805190602001206116eb866010815181106116de576116dd613715565b5b6020026020010151611d60565b805190602001201415611709576001985050505050505050506118d0565b6000985050505050505050506118d0565b600082848151811061172f5761172e613715565b5b602001015160f81c60f81b60f81c905060108160ff16111561175d57600099505050505050505050506118d0565b611783868260ff168151811061177657611775613715565b5b602002602001015161205b565b60001b94506001846117959190613801565b9350506118b4565b6002855114156118a25760006117d76117d0876000815181106117c3576117c2613715565b5b6020026020010151611d60565b8486612092565b9050825181856117e79190613801565b141561184a578d805190602001206118198760018151811061180c5761180b613715565b5b6020026020010151611d60565b80519060200120141561183857600199505050505050505050506118d0565b600099505050505050505050506118d0565b600081141561186557600099505050505050505050506118d0565b80846118719190613801565b93506118978660018151811061188a57611889613715565b5b602002602001015161205b565b60001b9450506118b3565b6000985050505050505050506118d0565b5b80806118bf90613857565b915050611620565b50505050505050505b949350505050565b600061190282600001516003815181106118f5576118f4613715565b5b6020026020010151611b69565b9050919050565b6000611933826000015160048151811061192657611925613715565b5b6020026020010151611b69565b60001b9050919050565b6000611967826000015160008151811061195a57611959613715565b5b6020026020010151611b69565b9050919050565b6060611998826000015160018151811061198b5761198a613715565b5b6020026020010151611d60565b9050919050565b600080600080600160009054906101000a900473ffffffffffffffffffffffffffffffffffffffff1673ffffffffffffffffffffffffffffffffffffffff166341539d4a876040518263ffffffff1660e01b8152600401611a009190612fbd565b60a06040518083038186803b158015611a1857600080fd5b505afa158015611a2c573d6000803e3d6000fd5b505050506040513d601f19601f82011682018060405250810190611a5091906138ca565b5093505092509250611aa6828b611a6791906137cd565b84878d8d8d8d604051602001611a809493929190613945565b604051602081830303815290604052805190602001206121c8909392919063ffffffff16565b611ae5576040517f08c379a0000000000000000000000000000000000000000000000000000000008152600401611adc906139df565b60405180910390fd5b8093505050509695505050505050565b611afd612661565b6040518060200160405280611b308460200151600181518110611b2357611b22613715565b5b6020026020010151611c4b565b8152509050919050565b611b42612674565b82600001518281518110611b5957611b58613715565b5b6020026020010151905092915050565b6000808260000151118015611b8357506021826000015111155b611b8c57600080fd5b6000611b9b8360200151612339565b90506000818460000151611baf91906137cd565b9050600080838660200151611bc49190613801565b9050805191506020831015611be057826020036101000a820491505b81945050505050919050565b6060611c168260200151600281518110611c0957611c08613715565b5b6020026020010151611d60565b9050919050565b611c25612674565b600060208301905060405180604001604052808451815260200182815250915050919050565b6060611c5682611eaf565b611c5f57600080fd5b6000611c6a836123f8565b905060008167ffffffffffffffff811115611c8857611c87612ab2565b5b604051908082528060200260200182016040528015611cc157816020015b611cae612674565b815260200190600190039081611ca65790505b5090506000611cd38560200151612339565b8560200151611ce29190613801565b9050600080600090505b84811015611d5357611cfd83612486565b9150604051806040016040528083815260200184815250848281518110611d2757611d26613715565b5b60200260200101819052508183611d3e9190613801565b92508080611d4b90613857565b915050611cec565b5082945050505050919050565b60606000826000015111611d7357600080fd5b6000611d828360200151612339565b90506000818460000151611d9691906137cd565b905060008167ffffffffffffffff811115611db457611db3612ab2565b5b6040519080825280601f01601f191660200182016040528015611de65781602001600182028036833780820191505090505b5090506000816020019050611e0b848760200151611e049190613801565b8285612562565b81945050505050919050565b600080600284611e279190613a2e565b14611e6a57601082600285611e3c9190613a5f565b81518110611e4d57611e4c613715565b5b602001015160f81c60f81b60f81c611e659190613a9d565b611ea4565b601082600285611e7a9190613a5f565b81518110611e8b57611e8a613715565b5b602001015160f81c60f81b60f81c611ea39190613ace565b5b60f81b905092915050565b60008082600001511415611ec65760009050611ef8565b60008083602001519050805160001a915060c060ff168260ff161015611ef157600092505050611ef8565b6001925050505b919050565b6000811415611f0b57611fa3565b5b602060ff168110611f565782518252602060ff1683611f2b9190613801565b9250602060ff1682611f3d9190613801565b9150602060ff1681611f4f91906137cd565b9050611f0c565b6000811415611f6457611fa3565b6000600182602060ff16611f7891906137cd565b610100611f859190613c32565b611f8f91906137cd565b905080198451168184511681811785525050505b505050565b60006015826000015114611fbb57600080fd5b611fc482611b69565b9050919050565b60606000826000015167ffffffffffffffff811115611fed57611fec612ab2565b5b6040519080825280601f01601f19166020018201604052801561201f5781602001600182028036833780820191505090505b5090506000815114156120355780915050612056565b60008160200190506120508460200151828660000151612562565b81925050505b919050565b6000602182600001511461206e57600080fd5b600080600184602001516120829190613801565b9050805191508192505050919050565b6000806000905060006120a48661114b565b90506000815167ffffffffffffffff8111156120c3576120c2612ab2565b5b6040519080825280601f01601f1916602001820160405280156120f55781602001600182028036833780820191505090505b50905060008590505b82518661210b9190613801565b81101561219657600087828151811061212757612126613715565b5b602001015160f81c60f81b90508083888461214291906137cd565b8151811061215357612152613715565b5b60200101907effffffffffffffffffffffffffffffffffffffffffffffffffffffffffffff1916908160001a90535050808061218e90613857565b9150506120fe565b508080519060200120828051906020012014156121b657815192506121bb565b600092505b8293505050509392505050565b600080602083516121d99190613a2e565b14612219576040517f08c379a000000000000000000000000000000000000000000000000000000000815260040161221090613cc9565b60405180910390fd5b6000602083516122299190613a5f565b90508060026122389190613c32565b8510612279576040517f08c379a000000000000000000000000000000000000000000000000000000000815260040161227090613d35565b60405180910390fd5b6000808790506000602090505b855181116123285780860151925060006002896122a39190613a2e565b14156122d95781836040516020016122bc929190613d55565b604051602081830303815290604052805190602001209150612305565b82826040516020016122ec929190613d55565b6040516020818303038152906040528051906020012091505b6002886123129190613a5f565b97506020816123219190613801565b9050612286565b508581149350505050949350505050565b600080825160001a9050608060ff168110156123595760009150506123f3565b60b860ff1681108061237e575060c060ff16811015801561237d575060f860ff1681105b5b1561238d5760019150506123f3565b60c060ff168110156123c85760018060b86123a89190613d81565b60ff16826123b691906137cd565b6123c09190613801565b9150506123f3565b60018060f86123d79190613d81565b60ff16826123e591906137cd565b6123ef9190613801565b9150505b919050565b6000808260000151141561240f5760009050612481565b60008061241f8460200151612339565b846020015161242e9190613801565b90506000846000015185602001516124469190613801565b90505b8082101561247a5761245a82612486565b826124659190613801565b9150828061247290613857565b935050612449565b8293505050505b919050565b6000806000835160001a9050608060ff168110156124a75760019150612558565b60b860ff168110156124d6576001608060ff16826124c591906137cd565b6124cf9190613801565b9150612557565b60c060ff168110156125065760b78103600185019450806020036101000a85510460018201810193505050612556565b60f860ff1681101561253557600160c060ff168261252491906137cd565b61252e9190613801565b9150612555565b60f78103600185019450806020036101000a855104600182018101935050505b5b5b5b8192505050919050565b600081141561257057612608565b5b602060ff1681106125bb5782518252602060ff16836125909190613801565b9250602060ff16826125a29190613801565b9150602060ff16816125b491906137cd565b9050612571565b60008114156125c957612608565b6000600182602060ff166125dd91906137cd565b6101006125ea9190613c32565b6125f491906137cd565b905080198451168184511681811785525050505b505050565b6040518060200160405280606081525090565b60405180606001604052806060815260200160608152602001600081525090565b6040518060400160405280612654612674565b8152602001606081525090565b6040518060200160405280606081525090565b604051806040016040528060008152602001600081525090565b6000819050919050565b6126a18161268e565b82525050565b60006020820190506126bc6000830184612698565b92915050565b6000604051905090565b600080fd5b600080fd5b600073ffffffffffffffffffffffffffffffffffffffff82169050919050565b6000612701826126d6565b9050919050565b612711816126f6565b811461271c57600080fd5b50565b60008135905061272e81612708565b92915050565b6000819050919050565b61274781612734565b811461275257600080fd5b50565b6000813590506127648161273e565b92915050565b600080fd5b600080fd5b600080fd5b60008083601f84011261278f5761278e61276a565b5b8235905067ffffffffffffffff8111156127ac576127ab61276f565b5b6020830191508360018202830111156127c8576127c7612774565b5b9250929050565b6000806000806000608086880312156127eb576127ea6126cc565b5b60006127f98882890161271f565b955050602061280a8882890161271f565b945050604061281b88828901612755565b935050606086013567ffffffffffffffff81111561283c5761283b6126d1565b5b61284888828901612779565b92509250509295509295909350565b60007fffffffff0000000000000000000000000000000000000000000000000000000082169050919050565b61288c81612857565b82525050565b60006020820190506128a76000830184612883565b92915050565b6128b68161268e565b81146128c157600080fd5b50565b6000813590506128d3816128ad565b92915050565b6000602082840312156128ef576128ee6126cc565b5b60006128fd848285016128c4565b91505092915050565b60008115159050919050565b61291b81612906565b82525050565b60006020820190506129366000830184612912565b92915050565b600080600060608486031215612955576129546126cc565b5b6000612963868287016128c4565b9350506020612974868287016128c4565b92505060406129858682870161271f565b9150509250925092565b612998816126f6565b82525050565b60006020820190506129b3600083018461298f565b92915050565b6000602082840312156129cf576129ce6126cc565b5b60006129dd8482850161271f565b91505092915050565b6000819050919050565b6000612a0b612a06612a01846126d6565b6129e6565b6126d6565b9050919050565b6000612a1d826129f0565b9050919050565b6000612a2f82612a12565b9050919050565b612a3f81612a24565b82525050565b6000602082019050612a5a6000830184612a36565b92915050565b6000612a6b82612a12565b9050919050565b612a7b81612a60565b82525050565b6000602082019050612a966000830184612a72565b92915050565b600080fd5b6000601f19601f8301169050919050565b7f4e487b7100000000000000000000000000000000000000000000000000000000600052604160045260246000fd5b612aea82612aa1565b810181811067ffffffffffffffff82111715612b0957612b08612ab2565b5b80604052505050565b6000612b1c6126c2565b9050612b288282612ae1565b919050565b600067ffffffffffffffff821115612b4857612b47612ab2565b5b612b5182612aa1565b9050602081019050919050565b82818337600083830152505050565b6000612b80612b7b84612b2d565b612b12565b905082815260208101848484011115612b9c57612b9b612a9c565b5b612ba7848285612b5e565b509392505050565b600082601f830112612bc457612bc361276a565b5b8135612bd4848260208601612b6d565b91505092915050565b60008060008060808587031215612bf757612bf66126cc565b5b6000612c058782880161271f565b9450506020612c168782880161271f565b9350506040612c2787828801612755565b925050606085013567ffffffffffffffff811115612c4857612c476126d1565b5b612c5487828801612baf565b91505092959194509250565b600060208284031215612c7657612c756126cc565b5b600082013567ffffffffffffffff811115612c9457612c936126d1565b5b612ca084828501612baf565b91505092915050565b60007fff0000000000000000000000000000000000000000000000000000000000000082169050919050565b6000819050919050565b612cf0612ceb82612ca9565b612cd5565b82525050565b60008160601b9050919050565b6000612d0e82612cf6565b9050919050565b6000612d2082612d03565b9050919050565b612d38612d33826126f6565b612d15565b82525050565b6000819050919050565b612d59612d548261268e565b612d3e565b82525050565b6000612d6b8287612cdf565b600182019150612d7b8286612d27565b601482019150612d8b8285612d48565b602082019150612d9b8284612d48565b60208201915081905095945050505050565b600082825260208201905092915050565b7f467842617365526f6f7454756e6e656c3a204348494c445f54554e4e454c5f4160008201527f4c52454144595f53455400000000000000000000000000000000000000000000602082015250565b6000612e1a602a83612dad565b9150612e2582612dbe565b604082019050919050565b60006020820190508181036000830152612e4981612e0d565b9050919050565b612e5981612734565b82525050565b600081519050919050565b600082825260208201905092915050565b60005b83811015612e99578082015181840152602081019050612e7e565b83811115612ea8576000848401525b50505050565b6000612eb982612e5f565b612ec38185612e6a565b9350612ed3818560208601612e7b565b612edc81612aa1565b840191505092915050565b6000608082019050612efc600083018761298f565b612f09602083018661298f565b612f166040830185612e50565b8181036060830152612f288184612eae565b905095945050505050565b600060a082019050612f48600083018861298f565b612f55602083018761298f565b612f62604083018661298f565b612f6f6060830185612e50565b8181036080830152612f818184612eae565b90509695505050505050565b6000604082019050612fa26000830185612698565b8181036020830152612fb48184612eae565b90509392505050565b6000602082019050612fd26000830184612e50565b92915050565b7f4678455243373231526f6f7454756e6e656c3a20414c52454144595f4d41505060008201527f4544000000000000000000000000000000000000000000000000000000000000602082015250565b6000613034602283612dad565b915061303f82612fd8565b604082019050919050565b6000602082019050818103600083015261306381613027565b9050919050565b600067ffffffffffffffff82111561308557613084612ab2565b5b61308e82612aa1565b9050602081019050919050565b60006130ae6130a98461306a565b612b12565b9050828152602081018484840111156130ca576130c9612a9c565b5b6130d5848285612e7b565b509392505050565b600082601f8301126130f2576130f161276a565b5b815161310284826020860161309b565b91505092915050565b600060208284031215613121576131206126cc565b5b600082015167ffffffffffffffff81111561313f5761313e6126d1565b5b61314b848285016130dd565b91505092915050565b600081519050919050565b600061316a82613154565b6131748185612dad565b9350613184818560208601612e7b565b61318d81612aa1565b840191505092915050565b60006060820190506131ad600083018661298f565b81810360208301526131bf818561315f565b905081810360408301526131d3818461315f565b9050949350505050565b60006131e98284612d27565b60148201915081905092915050565b600060408201905061320d600083018561298f565b818103602083015261321f8184612eae565b90509392505050565b6000819050919050565b61324361323e82612734565b613228565b82525050565b600081905092915050565b600061325f82612e5f565b6132698185613249565b9350613279818560208601612e7b565b80840191505092915050565b60006132918286613232565b6020820191506132a18285613254565b91506132ad8284613232565b602082019150819050949350505050565b7f4678526f6f7454756e6e656c3a20455849545f414c52454144595f50524f434560008201527f5353454400000000000000000000000000000000000000000000000000000000602082015250565b600061331a602483612dad565b9150613325826132be565b604082019050919050565b600060208201905081810360008301526133498161330d565b9050919050565b7f4678526f6f7454756e6e656c3a20494e56414c49445f46585f4348494c445f5460008201527f554e4e454c000000000000000000000000000000000000000000000000000000602082015250565b60006133ac602583612dad565b91506133b782613350565b604082019050919050565b600060208201905081810360008301526133db8161339f565b9050919050565b7f4678526f6f7454756e6e656c3a20494e56414c49445f524543454950545f505260008201527f4f4f460000000000000000000000000000000000000000000000000000000000602082015250565b600061343e602383612dad565b9150613449826133e2565b604082019050919050565b6000602082019050818103600083015261346d81613431565b9050919050565b7f4678526f6f7454756e6e656c3a20494e56414c49445f5349474e415455524500600082015250565b60006134aa601f83612dad565b91506134b582613474565b602082019050919050565b600060208201905081810360008301526134d98161349d565b9050919050565b60006134f36134ee84612b2d565b612b12565b90508281526020810184848401111561350f5761350e612a9c565b5b61351a848285612e7b565b509392505050565b600082601f8301126135375761353661276a565b5b81516135478482602086016134e0565b91505092915050565b600060208284031215613566576135656126cc565b5b600082015167ffffffffffffffff811115613584576135836126d1565b5b61359084828501613522565b91505092915050565b60006135a4826126d6565b9050919050565b6135b481613599565b81146135bf57600080fd5b50565b6000815190506135d1816135ab565b92915050565b6000815190506135e68161273e565b92915050565b600080600080600060a08688031215613608576136076126cc565b5b6000613616888289016135c2565b9550506020613627888289016135c2565b9450506040613638888289016135c2565b9350506060613649888289016135d7565b925050608086015167ffffffffffffffff81111561366a576136696126d1565b5b61367688828901613522565b9150509295509295909350565b7f4678455243373231526f6f7454756e6e656c3a20494e56414c49445f4d41505060008201527f494e475f4f4e5f45584954000000000000000000000000000000000000000000602082015250565b60006136df602b83612dad565b91506136ea82613683565b604082019050919050565b6000602082019050818103600083015261370e816136d2565b9050919050565b7f4e487b7100000000000000000000000000000000000000000000000000000000600052603260045260246000fd5b7f4e487b7100000000000000000000000000000000000000000000000000000000600052601160045260246000fd5b600061377e82612734565b915061378983612734565b9250817fffffffffffffffffffffffffffffffffffffffffffffffffffffffffffffffff04831182151516156137c2576137c1613744565b5b828202905092915050565b60006137d882612734565b91506137e383612734565b9250828210156137f6576137f5613744565b5b828203905092915050565b600061380c82612734565b915061381783612734565b9250827fffffffffffffffffffffffffffffffffffffffffffffffffffffffffffffffff0382111561384c5761384b613744565b5b828201905092915050565b600061386282612734565b91507fffffffffffffffffffffffffffffffffffffffffffffffffffffffffffffffff82141561389557613894613744565b5b600182019050919050565b6000815190506138af816128ad565b92915050565b6000815190506138c481612708565b92915050565b600080600080600060a086880312156138e6576138e56126cc565b5b60006138f4888289016138a0565b9550506020613905888289016135d7565b9450506040613916888289016135d7565b9350506060613927888289016135d7565b9250506080613938888289016138b5565b9150509295509295909350565b60006139518287613232565b6020820191506139618286613232565b6020820191506139718285612d48565b6020820191506139818284612d48565b60208201915081905095945050505050565b7f4678526f6f7454756e6e656c3a20494e56414c49445f48454144455200000000600082015250565b60006139c9601c83612dad565b91506139d482613993565b602082019050919050565b600060208201905081810360008301526139f8816139bc565b9050919050565b7f4e487b7100000000000000000000000000000000000000000000000000000000600052601260045260246000fd5b6000613a3982612734565b9150613a4483612734565b925082613a5457613a536139ff565b5b828206905092915050565b6000613a6a82612734565b9150613a7583612734565b925082613a8557613a846139ff565b5b828204905092915050565b600060ff82169050919050565b6000613aa882613a90565b9150613ab383613a90565b925082613ac357613ac26139ff565b5b828206905092915050565b6000613ad982613a90565b9150613ae483613a90565b925082613af457613af36139ff565b5b828204905092915050565b60008160011c9050919050565b6000808291508390505b6001851115613b5657808604811115613b3257613b31613744565b5b6001851615613b415780820291505b8081029050613b4f85613aff565b9450613b16565b94509492505050565b600082613b6f5760019050613c2b565b81613b7d5760009050613c2b565b8160018114613b935760028114613b9d57613bcc565b6001915050613c2b565b60ff841115613baf57613bae613744565b5b8360020a915084821115613bc657613bc5613744565b5b50613c2b565b5060208310610133831016604e8410600b8410161715613c015782820a905083811115613bfc57613bfb613744565b5b613c2b565b613c0e8484846001613b0c565b92509050818404811115613c2557613c24613744565b5b81810290505b9392505050565b6000613c3d82612734565b9150613c4883612734565b9250613c757fffffffffffffffffffffffffffffffffffffffffffffffffffffffffffffffff8484613b5f565b905092915050565b7f496e76616c69642070726f6f66206c656e677468000000000000000000000000600082015250565b6000613cb3601483612dad565b9150613cbe82613c7d565b602082019050919050565b60006020820190508181036000830152613ce281613ca6565b9050919050565b7f4c65616620696e64657820697320746f6f206269670000000000000000000000600082015250565b6000613d1f601583612dad565b9150613d2a82613ce9565b602082019050919050565b60006020820190508181036000830152613d4e81613d12565b9050919050565b6000613d618285612d48565b602082019150613d718284612d48565b6020820191508190509392505050565b6000613d8c82613a90565b9150613d9783613a90565b925082821015613daa57613da9613744565b5b82820390509291505056fea2646970667358221220f744dac2073bc0c73728a12567cbe6dddb928d47a3e92c870355c56cfd2d8ad464736f6c63430008090033",
  "linkReferences": {},
  "deployedLinkReferences": {}
}