{
  "_format": "hh-sol-artifact-1",
  "contractName": "BridgeDeposit",
  "sourceName": "contracts/bridgeToken.sol",
  "abi": [
    {
      "inputs": [
        {
          "internalType": "contract IERC721",
          "name": "_hashToken",
          "type": "address"
        },
        {
          "internalType": "contract IRootChainManager",
          "name": "_rootChainManager",
          "type": "address"
        }
      ],
      "stateMutability": "nonpayable",
      "type": "constructor"
    },
    {
      "anonymous": false,
      "inputs": [
        {
          "indexed": true,
          "internalType": "uint256",
          "name": "tokenId",
          "type": "uint256"
        },
        {
          "indexed": true,
          "internalType": "address",
          "name": "depositor",
          "type": "address"
        }
      ],
      "name": "TokenDeposited",
      "type": "event"
    },
    {
      "inputs": [
        {
          "internalType": "uint256",
          "name": "tokenId",
          "type": "uint256"
        }
      ],
      "name": "depositToken",
      "outputs": [],
      "stateMutability": "nonpayable",
      "type": "function"
    },
    {
      "inputs": [],
      "name": "hashToken",
      "outputs": [
        {
          "internalType": "contract IERC721",
          "name": "",
          "type": "address"
        }
      ],
      "stateMutability": "view",
      "type": "function"
    },
    {
      "inputs": [],
      "name": "rootChainManager",
      "outputs": [
        {
          "internalType": "contract IRootChainManager",
          "name": "",
          "type": "address"
        }
      ],
      "stateMutability": "view",
      "type": "function"
    }
  ],
  "bytecode": "0x608060405234801561001057600080fd5b506040516108563803806108568339818101604052810190610032919061016d565b816000806101000a81548173ffffffffffffffffffffffffffffffffffffffff021916908373ffffffffffffffffffffffffffffffffffffffff16021790555080600160006101000a81548173ffffffffffffffffffffffffffffffffffffffff021916908373ffffffffffffffffffffffffffffffffffffffff16021790555050506101ad565b600080fd5b600073ffffffffffffffffffffffffffffffffffffffff82169050919050565b60006100ea826100bf565b9050919050565b60006100fc826100df565b9050919050565b61010c816100f1565b811461011757600080fd5b50565b60008151905061012981610103565b92915050565b600061013a826100df565b9050919050565b61014a8161012f565b811461015557600080fd5b50565b60008151905061016781610141565b92915050565b60008060408385031215610184576101836100ba565b5b60006101928582860161011a565b92505060206101a385828601610158565b9150509250929050565b61069a806101bc6000396000f3fe608060405234801561001057600080fd5b50600436106100415760003560e01c80636215be7714610046578063b8b7edb214610062578063bd07018d14610080575b600080fd5b610060600480360381019061005b91906103e0565b61009e565b005b61006a61035b565b604051610077919061048c565b60405180910390f35b61008861037f565b60405161009591906104c8565b60405180910390f35b60008054906101000a900473ffffffffffffffffffffffffffffffffffffffff1673ffffffffffffffffffffffffffffffffffffffff16636352211e826040518263ffffffff1660e01b81526004016100f791906104f2565b60206040518083038186803b15801561010f57600080fd5b505afa158015610123573d6000803e3d6000fd5b505050506040513d601f19601f82011682018060405250810190610147919061054b565b73ffffffffffffffffffffffffffffffffffffffff163373ffffffffffffffffffffffffffffffffffffffff16146101b4576040517f08c379a00000000000000000000000000000000000000000000000000000000081526004016101ab906105d5565b60405180910390fd5b60008054906101000a900473ffffffffffffffffffffffffffffffffffffffff1673ffffffffffffffffffffffffffffffffffffffff1663095ea7b3600160009054906101000a900473ffffffffffffffffffffffffffffffffffffffff16836040518363ffffffff1660e01b8152600401610231929190610604565b600060405180830381600087803b15801561024b57600080fd5b505af115801561025f573d6000803e3d6000fd5b50505050600160009054906101000a900473ffffffffffffffffffffffffffffffffffffffff1673ffffffffffffffffffffffffffffffffffffffff1663072b15353360008054906101000a900473ffffffffffffffffffffffffffffffffffffffff16846040518463ffffffff1660e01b81526004016102e29392919061062d565b600060405180830381600087803b1580156102fc57600080fd5b505af1158015610310573d6000803e3d6000fd5b505050503373ffffffffffffffffffffffffffffffffffffffff16817fc7948d631280f3931f619912c8d54c139cc8d369aea73f6c92f7763ea0683dd060405160405180910390a350565b60008054906101000a900473ffffffffffffffffffffffffffffffffffffffff1681565b600160009054906101000a900473ffffffffffffffffffffffffffffffffffffffff1681565b600080fd5b6000819050919050565b6103bd816103aa565b81146103c857600080fd5b50565b6000813590506103da816103b4565b92915050565b6000602082840312156103f6576103f56103a5565b5b6000610404848285016103cb565b91505092915050565b600073ffffffffffffffffffffffffffffffffffffffff82169050919050565b6000819050919050565b600061045261044d6104488461040d565b61042d565b61040d565b9050919050565b600061046482610437565b9050919050565b600061047682610459565b9050919050565b6104868161046b565b82525050565b60006020820190506104a1600083018461047d565b92915050565b60006104b282610459565b9050919050565b6104c2816104a7565b82525050565b60006020820190506104dd60008301846104b9565b92915050565b6104ec816103aa565b82525050565b600060208201905061050760008301846104e3565b92915050565b60006105188261040d565b9050919050565b6105288161050d565b811461053357600080fd5b50565b6000815190506105458161051f565b92915050565b600060208284031215610561576105606103a5565b5b600061056f84828501610536565b91505092915050565b600082825260208201905092915050565b7f43616c6c6572206d757374206f776e2074686520746f6b656e00000000000000600082015250565b60006105bf601983610578565b91506105ca82610589565b602082019050919050565b600060208201905081810360008301526105ee816105b2565b9050919050565b6105fe8161050d565b82525050565b600060408201905061061960008301856105f5565b61062660208301846104e3565b9392505050565b600060608201905061064260008301866105f5565b61064f60208301856105f5565b61065c60408301846104e3565b94935050505056fea26469706673582212206c84ee3afff3cb5293bffebd311b74711adb0636250bd28c1b3ab76006d9de6e64736f6c63430008090033",
  "linkReferences": {},
  "deployedLinkReferences": {}
}