{
  "_format": "hh-sol-artifact-1",
  "contractName": "MainChain",
  "sourceName": "contracts/MainChain.sol",
  "abi": [
    {
      "inputs": [
        {
          "internalType": "address",
          "name": "_checkpointManager",
          "type": "address"
        },
        {
          "internalType": "address",
          "name": "_fxRoot",
          "type": "address"
        },
        {
          "internalType": "address",
          "name": "_fxERC721Token",
          "type": "address"
        }
      ],
      "stateMutability": "nonpayable",
      "type": "constructor"
    },
    {
      "anonymous": false,
      "inputs": [
        {
          "indexed": true,
          "internalType": "address",
          "name": "rootToken",
          "type": "address"
        },
        {
          "indexed": true,
          "internalType": "address",
          "name": "depositor",
          "type": "address"
        },
        {
          "indexed": true,
          "internalType": "address",
          "name": "userAddress",
          "type": "address"
        },
        {
          "indexed": false,
          "internalType": "uint256",
          "name": "id",
          "type": "uint256"
        }
      ],
      "name": "FxDepositERC721",
      "type": "event"
    },
    {
      "anonymous": false,
      "inputs": [
        {
          "indexed": true,
          "internalType": "address",
          "name": "rootToken",
          "type": "address"
        },
        {
          "indexed": true,
          "internalType": "address",
          "name": "childToken",
          "type": "address"
        },
        {
          "indexed": true,
          "internalType": "address",
          "name": "userAddress",
          "type": "address"
        },
        {
          "indexed": false,
          "internalType": "uint256",
          "name": "id",
          "type": "uint256"
        }
      ],
      "name": "FxWithdrawERC721",
      "type": "event"
    },
    {
      "anonymous": false,
      "inputs": [
        {
          "indexed": true,
          "internalType": "bytes32",
          "name": "_hash",
          "type": "bytes32"
        }
      ],
      "name": "HashStored",
      "type": "event"
    },
    {
      "anonymous": false,
      "inputs": [
        {
          "indexed": false,
          "internalType": "uint256",
          "name": "tokenId",
          "type": "uint256"
        }
      ],
      "name": "Token",
      "type": "event"
    },
    {
      "anonymous": false,
      "inputs": [
        {
          "indexed": true,
          "internalType": "address",
          "name": "rootToken",
          "type": "address"
        },
        {
          "indexed": true,
          "internalType": "address",
          "name": "childToken",
          "type": "address"
        }
      ],
      "name": "TokenMappedERC721",
      "type": "event"
    },
    {
      "anonymous": false,
      "inputs": [
        {
          "indexed": false,
          "internalType": "address",
          "name": "operator",
          "type": "address"
        },
        {
          "indexed": false,
          "internalType": "address",
          "name": "from",
          "type": "address"
        }
      ],
      "name": "TokenReceived",
      "type": "event"
    },
    {
      "inputs": [],
      "name": "DEPOSIT",
      "outputs": [
        {
          "internalType": "bytes32",
          "name": "",
          "type": "bytes32"
        }
      ],
      "stateMutability": "view",
      "type": "function"
    },
    {
      "inputs": [],
      "name": "MAP_TOKEN",
      "outputs": [
        {
          "internalType": "bytes32",
          "name": "",
          "type": "bytes32"
        }
      ],
      "stateMutability": "view",
      "type": "function"
    },
    {
      "inputs": [],
      "name": "SEND_MESSAGE_EVENT_SIG",
      "outputs": [
        {
          "internalType": "bytes32",
          "name": "",
          "type": "bytes32"
        }
      ],
      "stateMutability": "view",
      "type": "function"
    },
    {
      "inputs": [],
      "name": "checkpointManager",
      "outputs": [
        {
          "internalType": "contract ICheckpointManager",
          "name": "",
          "type": "address"
        }
      ],
      "stateMutability": "view",
      "type": "function"
    },
    {
      "inputs": [],
      "name": "childTokenTemplateCodeHash",
      "outputs": [
        {
          "internalType": "bytes32",
          "name": "",
          "type": "bytes32"
        }
      ],
      "stateMutability": "view",
      "type": "function"
    },
    {
      "inputs": [
        {
          "internalType": "bytes32",
          "name": "salt",
          "type": "bytes32"
        },
        {
          "internalType": "bytes32",
          "name": "bytecodeHash",
          "type": "bytes32"
        },
        {
          "internalType": "address",
          "name": "deployer",
          "type": "address"
        }
      ],
      "name": "computedCreate2Address",
      "outputs": [
        {
          "internalType": "address",
          "name": "",
          "type": "address"
        }
      ],
      "stateMutability": "pure",
      "type": "function"
    },
    {
      "inputs": [
        {
          "internalType": "address",
          "name": "rootToken",
          "type": "address"
        },
        {
          "internalType": "address",
          "name": "user",
          "type": "address"
        },
        {
          "internalType": "uint256",
          "name": "tokenId",
          "type": "uint256"
        },
        {
          "internalType": "bytes",
          "name": "data",
          "type": "bytes"
        }
      ],
      "name": "deposit",
      "outputs": [],
      "stateMutability": "nonpayable",
      "type": "function"
    },
    {
      "inputs": [],
      "name": "fxChildTunnel",
      "outputs": [
        {
          "internalType": "address",
          "name": "",
          "type": "address"
        }
      ],
      "stateMutability": "view",
      "type": "function"
    },
    {
      "inputs": [],
      "name": "fxRoot",
      "outputs": [
        {
          "internalType": "contract IFxStateSender",
          "name": "",
          "type": "address"
        }
      ],
      "stateMutability": "view",
      "type": "function"
    },
    {
      "inputs": [
        {
          "internalType": "bytes32",
          "name": "",
          "type": "bytes32"
        }
      ],
      "name": "hashes",
      "outputs": [
        {
          "internalType": "bool",
          "name": "",
          "type": "bool"
        }
      ],
      "stateMutability": "view",
      "type": "function"
    },
    {
      "inputs": [
        {
          "internalType": "address",
          "name": "rootToken",
          "type": "address"
        }
      ],
      "name": "mapToken",
      "outputs": [],
      "stateMutability": "nonpayable",
      "type": "function"
    },
    {
      "inputs": [
        {
          "internalType": "address",
          "name": "",
          "type": "address"
        },
        {
          "internalType": "address",
          "name": "",
          "type": "address"
        },
        {
          "internalType": "uint256",
          "name": "",
          "type": "uint256"
        },
        {
          "internalType": "bytes",
          "name": "",
          "type": "bytes"
        }
      ],
      "name": "onERC721Received",
      "outputs": [
        {
          "internalType": "bytes4",
          "name": "",
          "type": "bytes4"
        }
      ],
      "stateMutability": "pure",
      "type": "function"
    },
    {
      "inputs": [
        {
          "internalType": "uint256",
          "name": "",
          "type": "uint256"
        }
      ],
      "name": "originalOwner",
      "outputs": [
        {
          "internalType": "address",
          "name": "",
          "type": "address"
        }
      ],
      "stateMutability": "view",
      "type": "function"
    },
    {
      "inputs": [
        {
          "internalType": "bytes32",
          "name": "",
          "type": "bytes32"
        }
      ],
      "name": "processedExits",
      "outputs": [
        {
          "internalType": "bool",
          "name": "",
          "type": "bool"
        }
      ],
      "stateMutability": "view",
      "type": "function"
    },
    {
      "inputs": [
        {
          "internalType": "bytes",
          "name": "inputData",
          "type": "bytes"
        }
      ],
      "name": "receiveMessage",
      "outputs": [],
      "stateMutability": "nonpayable",
      "type": "function"
    },
    {
      "inputs": [
        {
          "internalType": "address",
          "name": "",
          "type": "address"
        }
      ],
      "name": "rootToChildTokens",
      "outputs": [
        {
          "internalType": "address",
          "name": "",
          "type": "address"
        }
      ],
      "stateMutability": "view",
      "type": "function"
    },
    {
      "inputs": [
        {
          "internalType": "address",
          "name": "_fxChildTunnel",
          "type": "address"
        }
      ],
      "name": "setFxChildTunnel",
      "outputs": [],
      "stateMutability": "nonpayable",
      "type": "function"
    }
  ],
  "bytecode": "0x60806040523480156200001157600080fd5b5060405162004261380380620042618339818101604052810190620000379190620001cb565b828282828281600160006101000a81548173ffffffffffffffffffffffffffffffffffffffff021916908373ffffffffffffffffffffffffffffffffffffffff160217905550806000806101000a81548173ffffffffffffffffffffffffffffffffffffffff021916908373ffffffffffffffffffffffffffffffffffffffff1602179055505050620000d081620000e960201b60201c565b8051906020012060058190555050505050505062000370565b60606000693d602d80600a3d3981f360b01b9050600069363d3d373d3d3d363d7360b01b905060008460601b905060006e5af43d82803e903d91602b57fd5bf360881b9050838383836040516020016200014794939291906200031a565b604051602081830303815290604052945050505050919050565b600080fd5b600073ffffffffffffffffffffffffffffffffffffffff82169050919050565b6000620001938262000166565b9050919050565b620001a58162000186565b8114620001b157600080fd5b50565b600081519050620001c5816200019a565b92915050565b600080600060608486031215620001e757620001e662000161565b5b6000620001f786828701620001b4565b93505060206200020a86828701620001b4565b92505060406200021d86828701620001b4565b9150509250925092565b60007fffffffffffffffffffff0000000000000000000000000000000000000000000082169050919050565b6000819050919050565b620002726200026c8262000227565b62000253565b82525050565b60007fffffffffffffffffffffffffffffffffffffffff00000000000000000000000082169050919050565b6000819050919050565b620002c3620002bd8262000278565b620002a4565b82525050565b60007fffffffffffffffffffffffffffffff000000000000000000000000000000000082169050919050565b6000819050919050565b620003146200030e82620002c9565b620002f5565b82525050565b60006200032882876200025d565b600a820191506200033a82866200025d565b600a820191506200034c8285620002ae565b6014820191506200035e8284620002ff565b600f8201915081905095945050505050565b613ee180620003806000396000f3fe608060405234801561001057600080fd5b506004361061010b5760003560e01c8063972c4928116100a2578063d81c8e5211610071578063d81c8e52146102e2578063de9b771f14610300578063e9c670ad1461031e578063f4a120f71461033a578063f953cec7146103565761010b565b8063972c49281461025a578063aea4e49e14610278578063c0857ba014610294578063d658d2e9146102b25761010b565b806369914b3e116100de57806369914b3e146101be5780637337957f146101dc578063886a69ba1461020c57806388e700681461022a5761010b565b80630e387de614610110578063150b7a021461012e57806340bb154d1461015e578063607f2d421461018e575b600080fd5b610118610372565b6040516101259190612770565b60405180910390f35b61014860048036038101906101439190612898565b610399565b604051610155919061295b565b60405180910390f35b61017860048036038101906101739190612976565b6103ae565b60405161018591906129b2565b60405180910390f35b6101a860048036038101906101a391906129f9565b6103e1565b6040516101b59190612a41565b60405180910390f35b6101c6610401565b6040516101d39190612770565b60405180910390f35b6101f660048036038101906101f19190612a5c565b610407565b60405161020391906129b2565b60405180910390f35b61021461044b565b6040516102219190612770565b60405180910390f35b610244600480360381019061023f9190612aaf565b61046f565b60405161025191906129b2565b60405180910390f35b6102626104a2565b60405161026f91906129b2565b60405180910390f35b610292600480360381019061028d9190612aaf565b6104c8565b005b61029c61059d565b6040516102a99190612b3b565b60405180910390f35b6102cc60048036038101906102c791906129f9565b6105c3565b6040516102d99190612a41565b60405180910390f35b6102ea6105e3565b6040516102f79190612770565b60405180910390f35b610308610607565b6040516103159190612b77565b60405180910390f35b61033860048036038101906103339190612cd3565b61062b565b005b610354600480360381019061034f9190612aaf565b610833565b005b610370600480360381019061036b9190612d56565b610bc5565b005b7f8c5261668696ce22758910d05bab8f186d6eb247ceac2af2e82c7dc17669b03660001b81565b600063150b7a0260e01b905095945050505050565b60076020528060005260406000206000915054906101000a900473ffffffffffffffffffffffffffffffffffffffff1681565b60036020528060005260406000206000915054906101000a900460ff1681565b60055481565b60008060ff60f81b8386866040516020016104259493929190612e55565b6040516020818303038152906040528051906020012090508060001c9150509392505050565b7f2cef46a936bdc5b7e6e8c71aa04560c41cf7d88bb26901a7e7f4936ff02accad81565b60046020528060005260406000206000915054906101000a900473ffffffffffffffffffffffffffffffffffffffff1681565b600260009054906101000a900473ffffffffffffffffffffffffffffffffffffffff1681565b600073ffffffffffffffffffffffffffffffffffffffff16600260009054906101000a900473ffffffffffffffffffffffffffffffffffffffff1673ffffffffffffffffffffffffffffffffffffffff1614610559576040517f08c379a000000000000000000000000000000000000000000000000000000000815260040161055090612f26565b60405180910390fd5b80600260006101000a81548173ffffffffffffffffffffffffffffffffffffffff021916908373ffffffffffffffffffffffffffffffffffffffff16021790555050565b600160009054906101000a900473ffffffffffffffffffffffffffffffffffffffff1681565b60066020528060005260406000206000915054906101000a900460ff1681565b7f87a7811f4bfedea3d341ad165680ae306b01aaeacc205d227629cf157dd9f82181565b60008054906101000a900473ffffffffffffffffffffffffffffffffffffffff1681565b600073ffffffffffffffffffffffffffffffffffffffff16600460008673ffffffffffffffffffffffffffffffffffffffff1673ffffffffffffffffffffffffffffffffffffffff16815260200190815260200160002060009054906101000a900473ffffffffffffffffffffffffffffffffffffffff1673ffffffffffffffffffffffffffffffffffffffff1614156106c9576106c884610833565b5b8373ffffffffffffffffffffffffffffffffffffffff1663b88d4fde333085856040518563ffffffff1660e01b81526004016107089493929190612fdd565b600060405180830381600087803b15801561072257600080fd5b505af1158015610736573d6000803e3d6000fd5b5050505060007f87a7811f4bfedea3d341ad165680ae306b01aaeacc205d227629cf157dd9f8218533868686604051602001610776959493929190613029565b604051602081830303815290604052604051602001610796929190613083565b60405160208183030381529060405290506107b081610bdf565b8373ffffffffffffffffffffffffffffffffffffffff163373ffffffffffffffffffffffffffffffffffffffff168673ffffffffffffffffffffffffffffffffffffffff167f6027944915fe4eed24b493e60b41ddaea5f543d0cfc0f0357f1cdef7a2ad33798660405161082491906130b3565b60405180910390a45050505050565b600073ffffffffffffffffffffffffffffffffffffffff16600460008373ffffffffffffffffffffffffffffffffffffffff1673ffffffffffffffffffffffffffffffffffffffff16815260200190815260200160002060009054906101000a900473ffffffffffffffffffffffffffffffffffffffff1673ffffffffffffffffffffffffffffffffffffffff1614610901576040517f08c379a00000000000000000000000000000000000000000000000000000000081526004016108f890613140565b60405180910390fd5b600081905060008173ffffffffffffffffffffffffffffffffffffffff166306fdde036040518163ffffffff1660e01b815260040160006040518083038186803b15801561094e57600080fd5b505afa158015610962573d6000803e3d6000fd5b505050506040513d6000823e3d601f19601f8201168201806040525081019061098b9190613201565b905060008273ffffffffffffffffffffffffffffffffffffffff166395d89b416040518163ffffffff1660e01b815260040160006040518083038186803b1580156109d557600080fd5b505afa1580156109e9573d6000803e3d6000fd5b505050506040513d6000823e3d601f19601f82011682018060405250810190610a129190613201565b905060007f2cef46a936bdc5b7e6e8c71aa04560c41cf7d88bb26901a7e7f4936ff02accad858484604051602001610a4c9392919061328e565b604051602081830303815290604052604051602001610a6c929190613083565b6040516020818303038152906040529050610a8681610bdf565b600085604051602001610a9991906132d3565b6040516020818303038152906040528051906020012090506000610ae282600554600260009054906101000a900473ffffffffffffffffffffffffffffffffffffffff16610407565b905080600460008973ffffffffffffffffffffffffffffffffffffffff1673ffffffffffffffffffffffffffffffffffffffff16815260200190815260200160002060006101000a81548173ffffffffffffffffffffffffffffffffffffffff021916908373ffffffffffffffffffffffffffffffffffffffff1602179055508073ffffffffffffffffffffffffffffffffffffffff168773ffffffffffffffffffffffffffffffffffffffff167fac7bdfd1c9797163cad973ce9aca20e24ed965aaf4613f777293bffc303562d060405160405180910390a350505050505050565b6000610bd082610c91565b9050610bdb81610f96565b5050565b60008054906101000a900473ffffffffffffffffffffffffffffffffffffffff1673ffffffffffffffffffffffffffffffffffffffff1663b4720477600260009054906101000a900473ffffffffffffffffffffffffffffffffffffffff16836040518363ffffffff1660e01b8152600401610c5c9291906132ee565b600060405180830381600087803b158015610c7657600080fd5b505af1158015610c8a573d6000803e3d6000fd5b5050505050565b60606000610c9e8361117e565b90506000610cab826111b2565b90506000610cb8836111e3565b9050600081610cc684611214565b610ccf8661142a565b604051602001610ce19392919061337b565b604051602081830303815290604052805190602001209050600015156003600083815260200190815260200160002060009054906101000a900460ff16151514610d60576040517f08c379a0000000000000000000000000000000000000000000000000000000008152600401610d5790613426565b60405180910390fd5b60016003600083815260200190815260200160002060006101000a81548160ff0219169083151502179055506000610d978561145b565b90506000610da482611580565b9050610daf816115f7565b73ffffffffffffffffffffffffffffffffffffffff16600260009054906101000a900473ffffffffffffffffffffffffffffffffffffffff1673ffffffffffffffffffffffffffffffffffffffff1614610e3e576040517f08c379a0000000000000000000000000000000000000000000000000000000008152600401610e35906134b8565b60405180910390fd5b6000610e4987611628565b9050610e67610e578461165c565b87610e618a61166a565b8461169b565b610ea6576040517f08c379a0000000000000000000000000000000000000000000000000000000008152600401610e9d9061354a565b60405180910390fd5b610ed485610eb3896119a1565b610ebc8a6119d2565b84610ec68c611a06565b610ecf8d611a37565b611a68565b506000610ee083611bbe565b90507f8c5261668696ce22758910d05bab8f186d6eb247ceac2af2e82c7dc17669b03660001b610f22610f1d600084611c0390919063ffffffff16565b611c32565b60001b14610f65576040517f08c379a0000000000000000000000000000000000000000000000000000000008152600401610f5c906135b6565b60405180910390fd5b6000610f7084611cb5565b806020019051810190610f839190613646565b9050809950505050505050505050919050565b600080600080600085806020019051810190610fb291906136e2565b945094509450945094508373ffffffffffffffffffffffffffffffffffffffff16600460008773ffffffffffffffffffffffffffffffffffffffff1673ffffffffffffffffffffffffffffffffffffffff16815260200190815260200160002060009054906101000a900473ffffffffffffffffffffffffffffffffffffffff1673ffffffffffffffffffffffffffffffffffffffff1614611089576040517f08c379a0000000000000000000000000000000000000000000000000000000008152600401611080906137eb565b60405180910390fd5b8473ffffffffffffffffffffffffffffffffffffffff1663b88d4fde308585856040518563ffffffff1660e01b81526004016110c89493929190612fdd565b600060405180830381600087803b1580156110e257600080fd5b505af11580156110f6573d6000803e3d6000fd5b505050508273ffffffffffffffffffffffffffffffffffffffff168473ffffffffffffffffffffffffffffffffffffffff168673ffffffffffffffffffffffffffffffffffffffff167fdf709ff47fc84022ec81f28321525a93cfb41fac4318bf8a368d685c6f3ea6918560405161116e91906130b3565b60405180910390a4505050505050565b6111866126d6565b600061119961119484611ce6565b611d14565b9050604051806020016040528082815250915050919050565b60606111dc82600001516008815181106111cf576111ce61380b565b5b6020026020010151611e29565b9050919050565b600061120d8260000151600281518110611200576111ff61380b565b5b6020026020010151611c32565b9050919050565b6060600060405180602001604052806000815250905060008351111561142157600080611242600086611ee0565b60f81c905060018160ff16148061125c575060038160ff16145b15611326576001600286516112719190613869565b61127b91906138c3565b67ffffffffffffffff81111561129457611293612ba8565b5b6040519080825280601f01601f1916602001820160405280156112c65781602001600182028036833780820191505090505b50925060006112d6600187611ee0565b905080846000815181106112ed576112ec61380b565b5b60200101907effffffffffffffffffffffffffffffffffffffffffffffffffffffffffffff1916908160001a9053506001925050611392565b60028086516113359190613869565b61133f91906138c3565b67ffffffffffffffff81111561135857611357612ba8565b5b6040519080825280601f01601f19166020018201604052801561138a5781602001600182028036833780820191505090505b509250600091505b60008260ff1690505b835181101561141d576113c860028460ff16836113b891906138c3565b6113c291906138f7565b87611ee0565b8482815181106113db576113da61380b565b5b60200101907effffffffffffffffffffffffffffffffffffffffffffffffffffffffffffff1916908160001a90535080806114159061394d565b91505061139b565b5050505b80915050919050565b600061145482600001516009815181106114475761144661380b565b5b6020026020010151611c32565b9050919050565b6114636126e9565b61148b826000015160068151811061147e5761147d61380b565b5b6020026020010151611e29565b816020018190525060006114a28260200151611ce6565b90506114ad81611f78565b156114c8576114bb81611d14565b8260000181905250611568565b6000826020015190506000600182516114e191906138c3565b67ffffffffffffffff8111156114fa576114f9612ba8565b5b6040519080825280601f01601f19166020018201604052801561152c5781602001600182028036833780820191505090505b50905060008083602101915082602001905061154a82828551611fc6565b61155b61155684611ce6565b611d14565b8660000181905250505050505b6115718361142a565b82604001818152505050919050565b61158861270a565b60006115b283600001516003815181106115a5576115a461380b565b5b6020026020010151611d14565b8360400151815181106115c8576115c761380b565b5b6020026020010151905060405180604001604052808281526020016115ec83611d14565b815250915050919050565b600061162182602001516000815181106116145761161361380b565b5b6020026020010151612071565b9050919050565b600061165282600001516005815181106116455761164461380b565b5b6020026020010151611c32565b60001b9050919050565b606081602001519050919050565b606061169482600001516007815181106116875761168661380b565b5b6020026020010151611e29565b9050919050565b6000806116a784611ce6565b905060006116b482611d14565b905060608060008690506000806116ca8b611214565b90506000815114156116e6576000975050505050505050611999565b60005b865181101561199057815183111561170c57600098505050505050505050611999565b61172f8782815181106117225761172161380b565b5b6020026020010151612094565b95508580519060200120841461175057600098505050505050505050611999565b6117738782815181106117665761176561380b565b5b6020026020010151611d14565b94506011855114156118665781518314156117e3578c805190602001206117b4866010815181106117a7576117a661380b565b5b6020026020010151611e29565b8051906020012014156117d257600198505050505050505050611999565b600098505050505050505050611999565b60008284815181106117f8576117f761380b565b5b602001015160f81c60f81b60f81c905060108160ff1611156118265760009950505050505050505050611999565b61184c868260ff168151811061183f5761183e61380b565b5b6020026020010151612124565b60001b945060018461185e91906138f7565b93505061197d565b60028551141561196b5760006118a06118998760008151811061188c5761188b61380b565b5b6020026020010151611e29565b848661215b565b9050825181856118b091906138f7565b1415611913578d805190602001206118e2876001815181106118d5576118d461380b565b5b6020026020010151611e29565b8051906020012014156119015760019950505050505050505050611999565b60009950505050505050505050611999565b600081141561192e5760009950505050505050505050611999565b808461193a91906138f7565b9350611960866001815181106119535761195261380b565b5b6020026020010151612124565b60001b94505061197c565b600098505050505050505050611999565b5b80806119889061394d565b9150506116e9565b50505050505050505b949350505050565b60006119cb82600001516003815181106119be576119bd61380b565b5b6020026020010151611c32565b9050919050565b60006119fc82600001516004815181106119ef576119ee61380b565b5b6020026020010151611c32565b60001b9050919050565b6000611a308260000151600081518110611a2357611a2261380b565b5b6020026020010151611c32565b9050919050565b6060611a618260000151600181518110611a5457611a5361380b565b5b6020026020010151611e29565b9050919050565b600080600080600160009054906101000a900473ffffffffffffffffffffffffffffffffffffffff1673ffffffffffffffffffffffffffffffffffffffff166341539d4a876040518263ffffffff1660e01b8152600401611ac991906130b3565b60a06040518083038186803b158015611ae157600080fd5b505afa158015611af5573d6000803e3d6000fd5b505050506040513d601f19601f82011682018060405250810190611b1991906139c0565b5093505092509250611b6f828b611b3091906138c3565b84878d8d8d8d604051602001611b499493929190613a3b565b60405160208183030381529060405280519060200120612291909392919063ffffffff16565b611bae576040517f08c379a0000000000000000000000000000000000000000000000000000000008152600401611ba590613ad5565b60405180910390fd5b8093505050509695505050505050565b611bc661272a565b6040518060200160405280611bf98460200151600181518110611bec57611beb61380b565b5b6020026020010151611d14565b8152509050919050565b611c0b61273d565b82600001518281518110611c2257611c2161380b565b5b6020026020010151905092915050565b6000808260000151118015611c4c57506021826000015111155b611c5557600080fd5b6000611c648360200151612402565b90506000818460000151611c7891906138c3565b9050600080838660200151611c8d91906138f7565b9050805191506020831015611ca957826020036101000a820491505b81945050505050919050565b6060611cdf8260200151600281518110611cd257611cd161380b565b5b6020026020010151611e29565b9050919050565b611cee61273d565b600060208301905060405180604001604052808451815260200182815250915050919050565b6060611d1f82611f78565b611d2857600080fd5b6000611d33836124c1565b905060008167ffffffffffffffff811115611d5157611d50612ba8565b5b604051908082528060200260200182016040528015611d8a57816020015b611d7761273d565b815260200190600190039081611d6f5790505b5090506000611d9c8560200151612402565b8560200151611dab91906138f7565b9050600080600090505b84811015611e1c57611dc68361254f565b9150604051806040016040528083815260200184815250848281518110611df057611def61380b565b5b60200260200101819052508183611e0791906138f7565b92508080611e149061394d565b915050611db5565b5082945050505050919050565b60606000826000015111611e3c57600080fd5b6000611e4b8360200151612402565b90506000818460000151611e5f91906138c3565b905060008167ffffffffffffffff811115611e7d57611e7c612ba8565b5b6040519080825280601f01601f191660200182016040528015611eaf5781602001600182028036833780820191505090505b5090506000816020019050611ed4848760200151611ecd91906138f7565b828561262b565b81945050505050919050565b600080600284611ef09190613b24565b14611f3357601082600285611f059190613b55565b81518110611f1657611f1561380b565b5b602001015160f81c60f81b60f81c611f2e9190613b93565b611f6d565b601082600285611f439190613b55565b81518110611f5457611f5361380b565b5b602001015160f81c60f81b60f81c611f6c9190613bc4565b5b60f81b905092915050565b60008082600001511415611f8f5760009050611fc1565b60008083602001519050805160001a915060c060ff168260ff161015611fba57600092505050611fc1565b6001925050505b919050565b6000811415611fd45761206c565b5b602060ff16811061201f5782518252602060ff1683611ff491906138f7565b9250602060ff168261200691906138f7565b9150602060ff168161201891906138c3565b9050611fd5565b600081141561202d5761206c565b6000600182602060ff1661204191906138c3565b61010061204e9190613d28565b61205891906138c3565b905080198451168184511681811785525050505b505050565b6000601582600001511461208457600080fd5b61208d82611c32565b9050919050565b60606000826000015167ffffffffffffffff8111156120b6576120b5612ba8565b5b6040519080825280601f01601f1916602001820160405280156120e85781602001600182028036833780820191505090505b5090506000815114156120fe578091505061211f565b6000816020019050612119846020015182866000015161262b565b81925050505b919050565b6000602182600001511461213757600080fd5b6000806001846020015161214b91906138f7565b9050805191508192505050919050565b60008060009050600061216d86611214565b90506000815167ffffffffffffffff81111561218c5761218b612ba8565b5b6040519080825280601f01601f1916602001820160405280156121be5781602001600182028036833780820191505090505b50905060008590505b8251866121d491906138f7565b81101561225f5760008782815181106121f0576121ef61380b565b5b602001015160f81c60f81b90508083888461220b91906138c3565b8151811061221c5761221b61380b565b5b60200101907effffffffffffffffffffffffffffffffffffffffffffffffffffffffffffff1916908160001a9053505080806122579061394d565b9150506121c7565b5080805190602001208280519060200120141561227f5781519250612284565b600092505b8293505050509392505050565b600080602083516122a29190613b24565b146122e2576040517f08c379a00000000000000000000000000000000000000000000000000000000081526004016122d990613dbf565b60405180910390fd5b6000602083516122f29190613b55565b90508060026123019190613d28565b8510612342576040517f08c379a000000000000000000000000000000000000000000000000000000000815260040161233990613e2b565b60405180910390fd5b6000808790506000602090505b855181116123f157808601519250600060028961236c9190613b24565b14156123a2578183604051602001612385929190613e4b565b6040516020818303038152906040528051906020012091506123ce565b82826040516020016123b5929190613e4b565b6040516020818303038152906040528051906020012091505b6002886123db9190613b55565b97506020816123ea91906138f7565b905061234f565b508581149350505050949350505050565b600080825160001a9050608060ff168110156124225760009150506124bc565b60b860ff16811080612447575060c060ff168110158015612446575060f860ff1681105b5b156124565760019150506124bc565b60c060ff168110156124915760018060b86124719190613e77565b60ff168261247f91906138c3565b61248991906138f7565b9150506124bc565b60018060f86124a09190613e77565b60ff16826124ae91906138c3565b6124b891906138f7565b9150505b919050565b600080826000015114156124d8576000905061254a565b6000806124e88460200151612402565b84602001516124f791906138f7565b905060008460000151856020015161250f91906138f7565b90505b80821015612543576125238261254f565b8261252e91906138f7565b9150828061253b9061394d565b935050612512565b8293505050505b919050565b6000806000835160001a9050608060ff168110156125705760019150612621565b60b860ff1681101561259f576001608060ff168261258e91906138c3565b61259891906138f7565b9150612620565b60c060ff168110156125cf5760b78103600185019450806020036101000a8551046001820181019350505061261f565b60f860ff168110156125fe57600160c060ff16826125ed91906138c3565b6125f791906138f7565b915061261e565b60f78103600185019450806020036101000a855104600182018101935050505b5b5b5b8192505050919050565b6000811415612639576126d1565b5b602060ff1681106126845782518252602060ff168361265991906138f7565b9250602060ff168261266b91906138f7565b9150602060ff168161267d91906138c3565b905061263a565b6000811415612692576126d1565b6000600182602060ff166126a691906138c3565b6101006126b39190613d28565b6126bd91906138c3565b905080198451168184511681811785525050505b505050565b6040518060200160405280606081525090565b60405180606001604052806060815260200160608152602001600081525090565b604051806040016040528061271d61273d565b8152602001606081525090565b6040518060200160405280606081525090565b604051806040016040528060008152602001600081525090565b6000819050919050565b61276a81612757565b82525050565b60006020820190506127856000830184612761565b92915050565b6000604051905090565b600080fd5b600080fd5b600073ffffffffffffffffffffffffffffffffffffffff82169050919050565b60006127ca8261279f565b9050919050565b6127da816127bf565b81146127e557600080fd5b50565b6000813590506127f7816127d1565b92915050565b6000819050919050565b612810816127fd565b811461281b57600080fd5b50565b60008135905061282d81612807565b92915050565b600080fd5b600080fd5b600080fd5b60008083601f84011261285857612857612833565b5b8235905067ffffffffffffffff81111561287557612874612838565b5b6020830191508360018202830111156128915761289061283d565b5b9250929050565b6000806000806000608086880312156128b4576128b3612795565b5b60006128c2888289016127e8565b95505060206128d3888289016127e8565b94505060406128e48882890161281e565b935050606086013567ffffffffffffffff8111156129055761290461279a565b5b61291188828901612842565b92509250509295509295909350565b60007fffffffff0000000000000000000000000000000000000000000000000000000082169050919050565b61295581612920565b82525050565b6000602082019050612970600083018461294c565b92915050565b60006020828403121561298c5761298b612795565b5b600061299a8482850161281e565b91505092915050565b6129ac816127bf565b82525050565b60006020820190506129c760008301846129a3565b92915050565b6129d681612757565b81146129e157600080fd5b50565b6000813590506129f3816129cd565b92915050565b600060208284031215612a0f57612a0e612795565b5b6000612a1d848285016129e4565b91505092915050565b60008115159050919050565b612a3b81612a26565b82525050565b6000602082019050612a566000830184612a32565b92915050565b600080600060608486031215612a7557612a74612795565b5b6000612a83868287016129e4565b9350506020612a94868287016129e4565b9250506040612aa5868287016127e8565b9150509250925092565b600060208284031215612ac557612ac4612795565b5b6000612ad3848285016127e8565b91505092915050565b6000819050919050565b6000612b01612afc612af78461279f565b612adc565b61279f565b9050919050565b6000612b1382612ae6565b9050919050565b6000612b2582612b08565b9050919050565b612b3581612b1a565b82525050565b6000602082019050612b506000830184612b2c565b92915050565b6000612b6182612b08565b9050919050565b612b7181612b56565b82525050565b6000602082019050612b8c6000830184612b68565b92915050565b600080fd5b6000601f19601f8301169050919050565b7f4e487b7100000000000000000000000000000000000000000000000000000000600052604160045260246000fd5b612be082612b97565b810181811067ffffffffffffffff82111715612bff57612bfe612ba8565b5b80604052505050565b6000612c1261278b565b9050612c1e8282612bd7565b919050565b600067ffffffffffffffff821115612c3e57612c3d612ba8565b5b612c4782612b97565b9050602081019050919050565b82818337600083830152505050565b6000612c76612c7184612c23565b612c08565b905082815260208101848484011115612c9257612c91612b92565b5b612c9d848285612c54565b509392505050565b600082601f830112612cba57612cb9612833565b5b8135612cca848260208601612c63565b91505092915050565b60008060008060808587031215612ced57612cec612795565b5b6000612cfb878288016127e8565b9450506020612d0c878288016127e8565b9350506040612d1d8782880161281e565b925050606085013567ffffffffffffffff811115612d3e57612d3d61279a565b5b612d4a87828801612ca5565b91505092959194509250565b600060208284031215612d6c57612d6b612795565b5b600082013567ffffffffffffffff811115612d8a57612d8961279a565b5b612d9684828501612ca5565b91505092915050565b60007fff0000000000000000000000000000000000000000000000000000000000000082169050919050565b6000819050919050565b612de6612de182612d9f565b612dcb565b82525050565b60008160601b9050919050565b6000612e0482612dec565b9050919050565b6000612e1682612df9565b9050919050565b612e2e612e29826127bf565b612e0b565b82525050565b6000819050919050565b612e4f612e4a82612757565b612e34565b82525050565b6000612e618287612dd5565b600182019150612e718286612e1d565b601482019150612e818285612e3e565b602082019150612e918284612e3e565b60208201915081905095945050505050565b600082825260208201905092915050565b7f467842617365526f6f7454756e6e656c3a204348494c445f54554e4e454c5f4160008201527f4c52454144595f53455400000000000000000000000000000000000000000000602082015250565b6000612f10602a83612ea3565b9150612f1b82612eb4565b604082019050919050565b60006020820190508181036000830152612f3f81612f03565b9050919050565b612f4f816127fd565b82525050565b600081519050919050565b600082825260208201905092915050565b60005b83811015612f8f578082015181840152602081019050612f74565b83811115612f9e576000848401525b50505050565b6000612faf82612f55565b612fb98185612f60565b9350612fc9818560208601612f71565b612fd281612b97565b840191505092915050565b6000608082019050612ff260008301876129a3565b612fff60208301866129a3565b61300c6040830185612f46565b818103606083015261301e8184612fa4565b905095945050505050565b600060a08201905061303e60008301886129a3565b61304b60208301876129a3565b61305860408301866129a3565b6130656060830185612f46565b81810360808301526130778184612fa4565b90509695505050505050565b60006040820190506130986000830185612761565b81810360208301526130aa8184612fa4565b90509392505050565b60006020820190506130c86000830184612f46565b92915050565b7f4678455243373231526f6f7454756e6e656c3a20414c52454144595f4d41505060008201527f4544000000000000000000000000000000000000000000000000000000000000602082015250565b600061312a602283612ea3565b9150613135826130ce565b604082019050919050565b600060208201905081810360008301526131598161311d565b9050919050565b600067ffffffffffffffff82111561317b5761317a612ba8565b5b61318482612b97565b9050602081019050919050565b60006131a461319f84613160565b612c08565b9050828152602081018484840111156131c0576131bf612b92565b5b6131cb848285612f71565b509392505050565b600082601f8301126131e8576131e7612833565b5b81516131f8848260208601613191565b91505092915050565b60006020828403121561321757613216612795565b5b600082015167ffffffffffffffff8111156132355761323461279a565b5b613241848285016131d3565b91505092915050565b600081519050919050565b60006132608261324a565b61326a8185612ea3565b935061327a818560208601612f71565b61328381612b97565b840191505092915050565b60006060820190506132a360008301866129a3565b81810360208301526132b58185613255565b905081810360408301526132c98184613255565b9050949350505050565b60006132df8284612e1d565b60148201915081905092915050565b600060408201905061330360008301856129a3565b81810360208301526133158184612fa4565b90509392505050565b6000819050919050565b613339613334826127fd565b61331e565b82525050565b600081905092915050565b600061335582612f55565b61335f818561333f565b935061336f818560208601612f71565b80840191505092915050565b60006133878286613328565b602082019150613397828561334a565b91506133a38284613328565b602082019150819050949350505050565b7f4678526f6f7454756e6e656c3a20455849545f414c52454144595f50524f434560008201527f5353454400000000000000000000000000000000000000000000000000000000602082015250565b6000613410602483612ea3565b915061341b826133b4565b604082019050919050565b6000602082019050818103600083015261343f81613403565b9050919050565b7f4678526f6f7454756e6e656c3a20494e56414c49445f46585f4348494c445f5460008201527f554e4e454c000000000000000000000000000000000000000000000000000000602082015250565b60006134a2602583612ea3565b91506134ad82613446565b604082019050919050565b600060208201905081810360008301526134d181613495565b9050919050565b7f4678526f6f7454756e6e656c3a20494e56414c49445f524543454950545f505260008201527f4f4f460000000000000000000000000000000000000000000000000000000000602082015250565b6000613534602383612ea3565b915061353f826134d8565b604082019050919050565b6000602082019050818103600083015261356381613527565b9050919050565b7f4678526f6f7454756e6e656c3a20494e56414c49445f5349474e415455524500600082015250565b60006135a0601f83612ea3565b91506135ab8261356a565b602082019050919050565b600060208201905081810360008301526135cf81613593565b9050919050565b60006135e96135e484612c23565b612c08565b90508281526020810184848401111561360557613604612b92565b5b613610848285612f71565b509392505050565b600082601f83011261362d5761362c612833565b5b815161363d8482602086016135d6565b91505092915050565b60006020828403121561365c5761365b612795565b5b600082015167ffffffffffffffff81111561367a5761367961279a565b5b61368684828501613618565b91505092915050565b600061369a8261279f565b9050919050565b6136aa8161368f565b81146136b557600080fd5b50565b6000815190506136c7816136a1565b92915050565b6000815190506136dc81612807565b92915050565b600080600080600060a086880312156136fe576136fd612795565b5b600061370c888289016136b8565b955050602061371d888289016136b8565b945050604061372e888289016136b8565b935050606061373f888289016136cd565b925050608086015167ffffffffffffffff8111156137605761375f61279a565b5b61376c88828901613618565b9150509295509295909350565b7f4678455243373231526f6f7454756e6e656c3a20494e56414c49445f4d41505060008201527f494e475f4f4e5f45584954000000000000000000000000000000000000000000602082015250565b60006137d5602b83612ea3565b91506137e082613779565b604082019050919050565b60006020820190508181036000830152613804816137c8565b9050919050565b7f4e487b7100000000000000000000000000000000000000000000000000000000600052603260045260246000fd5b7f4e487b7100000000000000000000000000000000000000000000000000000000600052601160045260246000fd5b6000613874826127fd565b915061387f836127fd565b9250817fffffffffffffffffffffffffffffffffffffffffffffffffffffffffffffffff04831182151516156138b8576138b761383a565b5b828202905092915050565b60006138ce826127fd565b91506138d9836127fd565b9250828210156138ec576138eb61383a565b5b828203905092915050565b6000613902826127fd565b915061390d836127fd565b9250827fffffffffffffffffffffffffffffffffffffffffffffffffffffffffffffffff038211156139425761394161383a565b5b828201905092915050565b6000613958826127fd565b91507fffffffffffffffffffffffffffffffffffffffffffffffffffffffffffffffff82141561398b5761398a61383a565b5b600182019050919050565b6000815190506139a5816129cd565b92915050565b6000815190506139ba816127d1565b92915050565b600080600080600060a086880312156139dc576139db612795565b5b60006139ea88828901613996565b95505060206139fb888289016136cd565b9450506040613a0c888289016136cd565b9350506060613a1d888289016136cd565b9250506080613a2e888289016139ab565b9150509295509295909350565b6000613a478287613328565b602082019150613a578286613328565b602082019150613a678285612e3e565b602082019150613a778284612e3e565b60208201915081905095945050505050565b7f4678526f6f7454756e6e656c3a20494e56414c49445f48454144455200000000600082015250565b6000613abf601c83612ea3565b9150613aca82613a89565b602082019050919050565b60006020820190508181036000830152613aee81613ab2565b9050919050565b7f4e487b7100000000000000000000000000000000000000000000000000000000600052601260045260246000fd5b6000613b2f826127fd565b9150613b3a836127fd565b925082613b4a57613b49613af5565b5b828206905092915050565b6000613b60826127fd565b9150613b6b836127fd565b925082613b7b57613b7a613af5565b5b828204905092915050565b600060ff82169050919050565b6000613b9e82613b86565b9150613ba983613b86565b925082613bb957613bb8613af5565b5b828206905092915050565b6000613bcf82613b86565b9150613bda83613b86565b925082613bea57613be9613af5565b5b828204905092915050565b60008160011c9050919050565b6000808291508390505b6001851115613c4c57808604811115613c2857613c2761383a565b5b6001851615613c375780820291505b8081029050613c4585613bf5565b9450613c0c565b94509492505050565b600082613c655760019050613d21565b81613c735760009050613d21565b8160018114613c895760028114613c9357613cc2565b6001915050613d21565b60ff841115613ca557613ca461383a565b5b8360020a915084821115613cbc57613cbb61383a565b5b50613d21565b5060208310610133831016604e8410600b8410161715613cf75782820a905083811115613cf257613cf161383a565b5b613d21565b613d048484846001613c02565b92509050818404811115613d1b57613d1a61383a565b5b81810290505b9392505050565b6000613d33826127fd565b9150613d3e836127fd565b9250613d6b7fffffffffffffffffffffffffffffffffffffffffffffffffffffffffffffffff8484613c55565b905092915050565b7f496e76616c69642070726f6f66206c656e677468000000000000000000000000600082015250565b6000613da9601483612ea3565b9150613db482613d73565b602082019050919050565b60006020820190508181036000830152613dd881613d9c565b9050919050565b7f4c65616620696e64657820697320746f6f206269670000000000000000000000600082015250565b6000613e15601583612ea3565b9150613e2082613ddf565b602082019050919050565b60006020820190508181036000830152613e4481613e08565b9050919050565b6000613e578285612e3e565b602082019150613e678284612e3e565b6020820191508190509392505050565b6000613e8282613b86565b9150613e8d83613b86565b925082821015613ea057613e9f61383a565b5b82820390509291505056fea2646970667358221220c43f5c4f304d9d18e86d5f8ef94ef7f13612e755f565f3e14eed48c7f5e09b7b64736f6c63430008090033",
  "linkReferences": {},
  "deployedLinkReferences": {}
}