{
  "_format": "hh-sol-artifact-1",
  "contractName": "SideChainFx",
  "sourceName": "contracts/SideChainFx.sol",
  "abi": [
    {
      "inputs": [
        {
          "internalType": "uint256",
          "name": "_sideChainInterval",
          "type": "uint256"
        },
        {
          "internalType": "uint256",
          "name": "_mainChainInterval",
          "type": "uint256"
        },
        {
          "internalType": "address",
          "name": "_fxChild",
          "type": "address"
        }
      ],
      "stateMutability": "nonpayable",
      "type": "constructor"
    },
    {
      "anonymous": false,
      "inputs": [
        {
          "indexed": false,
          "internalType": "bytes32[]",
          "name": "_hashes",
          "type": "bytes32[]"
        }
      ],
      "name": "BridgeSuccessful",
      "type": "event"
    },
    {
      "anonymous": false,
      "inputs": [],
      "name": "BridingRequired",
      "type": "event"
    },
    {
      "anonymous": false,
      "inputs": [
        {
          "indexed": true,
          "internalType": "bytes32",
          "name": "_hash",
          "type": "bytes32"
        }
      ],
      "name": "HashStored",
      "type": "event"
    },
    {
      "anonymous": false,
      "inputs": [],
      "name": "HasherRequired",
      "type": "event"
    },
    {
      "anonymous": false,
      "inputs": [
        {
          "indexed": false,
          "internalType": "bytes",
          "name": "message",
          "type": "bytes"
        }
      ],
      "name": "MessageSent",
      "type": "event"
    },
    {
      "inputs": [
        {
          "internalType": "bytes",
          "name": "",
          "type": "bytes"
        }
      ],
      "name": "checkUpkeep",
      "outputs": [
        {
          "internalType": "bool",
          "name": "upkeepNeeded",
          "type": "bool"
        },
        {
          "internalType": "bytes",
          "name": "",
          "type": "bytes"
        }
      ],
      "stateMutability": "view",
      "type": "function"
    },
    {
      "inputs": [],
      "name": "fxChild",
      "outputs": [
        {
          "internalType": "address",
          "name": "",
          "type": "address"
        }
      ],
      "stateMutability": "view",
      "type": "function"
    },
    {
      "inputs": [],
      "name": "fxRootTunnel",
      "outputs": [
        {
          "internalType": "address",
          "name": "",
          "type": "address"
        }
      ],
      "stateMutability": "view",
      "type": "function"
    },
    {
      "inputs": [],
      "name": "getPendingHashes",
      "outputs": [
        {
          "internalType": "bytes32[]",
          "name": "",
          "type": "bytes32[]"
        }
      ],
      "stateMutability": "view",
      "type": "function"
    },
    {
      "inputs": [
        {
          "internalType": "bytes32",
          "name": "",
          "type": "bytes32"
        }
      ],
      "name": "hashes",
      "outputs": [
        {
          "internalType": "bool",
          "name": "",
          "type": "bool"
        }
      ],
      "stateMutability": "view",
      "type": "function"
    },
    {
      "inputs": [],
      "name": "latestData",
      "outputs": [
        {
          "internalType": "bytes",
          "name": "",
          "type": "bytes"
        }
      ],
      "stateMutability": "view",
      "type": "function"
    },
    {
      "inputs": [],
      "name": "latestRootMessageSender",
      "outputs": [
        {
          "internalType": "address",
          "name": "",
          "type": "address"
        }
      ],
      "stateMutability": "view",
      "type": "function"
    },
    {
      "inputs": [],
      "name": "latestStateId",
      "outputs": [
        {
          "internalType": "uint256",
          "name": "",
          "type": "uint256"
        }
      ],
      "stateMutability": "view",
      "type": "function"
    },
    {
      "inputs": [],
      "name": "mainchainInterval",
      "outputs": [
        {
          "internalType": "uint256",
          "name": "",
          "type": "uint256"
        }
      ],
      "stateMutability": "view",
      "type": "function"
    },
    {
      "inputs": [],
      "name": "mainchainTimeStamp",
      "outputs": [
        {
          "internalType": "uint256",
          "name": "",
          "type": "uint256"
        }
      ],
      "stateMutability": "view",
      "type": "function"
    },
    {
      "inputs": [
        {
          "internalType": "uint256",
          "name": "",
          "type": "uint256"
        }
      ],
      "name": "pendingHashes",
      "outputs": [
        {
          "internalType": "bytes32",
          "name": "",
          "type": "bytes32"
        }
      ],
      "stateMutability": "view",
      "type": "function"
    },
    {
      "inputs": [
        {
          "internalType": "bytes",
          "name": "input",
          "type": "bytes"
        }
      ],
      "name": "performUpkeep",
      "outputs": [],
      "stateMutability": "nonpayable",
      "type": "function"
    },
    {
      "inputs": [
        {
          "internalType": "uint256",
          "name": "stateId",
          "type": "uint256"
        },
        {
          "internalType": "address",
          "name": "rootMessageSender",
          "type": "address"
        },
        {
          "internalType": "bytes",
          "name": "data",
          "type": "bytes"
        }
      ],
      "name": "processMessageFromRoot",
      "outputs": [],
      "stateMutability": "nonpayable",
      "type": "function"
    },
    {
      "inputs": [],
      "name": "resetPendingHashes",
      "outputs": [],
      "stateMutability": "nonpayable",
      "type": "function"
    },
    {
      "inputs": [
        {
          "internalType": "bytes",
          "name": "message",
          "type": "bytes"
        }
      ],
      "name": "sendMessageToRoot",
      "outputs": [],
      "stateMutability": "nonpayable",
      "type": "function"
    },
    {
      "inputs": [
        {
          "internalType": "address",
          "name": "_fxRootTunnel",
          "type": "address"
        }
      ],
      "name": "setFxRootTunnel",
      "outputs": [],
      "stateMutability": "nonpayable",
      "type": "function"
    },
    {
      "inputs": [],
      "name": "sidechainInterval",
      "outputs": [
        {
          "internalType": "uint256",
          "name": "",
          "type": "uint256"
        }
      ],
      "stateMutability": "view",
      "type": "function"
    },
    {
      "inputs": [],
      "name": "sidechainTimeStamp",
      "outputs": [
        {
          "internalType": "uint256",
          "name": "",
          "type": "uint256"
        }
      ],
      "stateMutability": "view",
      "type": "function"
    },
    {
      "inputs": [
        {
          "internalType": "bytes32",
          "name": "hash",
          "type": "bytes32"
        }
      ],
      "name": "storeHash",
      "outputs": [],
      "stateMutability": "nonpayable",
      "type": "function"
    }
  ],
  "bytecode": "0x60806040523480156200001157600080fd5b5060405162001ad038038062001ad0833981810160405281019062000037919062000143565b80806000806101000a81548173ffffffffffffffffffffffffffffffffffffffff021916908373ffffffffffffffffffffffffffffffffffffffff1602179055505082600a819055508160088190555042600981905550426007819055505050506200019f565b600080fd5b6000819050919050565b620000b881620000a3565b8114620000c457600080fd5b50565b600081519050620000d881620000ad565b92915050565b600073ffffffffffffffffffffffffffffffffffffffff82169050919050565b60006200010b82620000de565b9050919050565b6200011d81620000fe565b81146200012957600080fd5b50565b6000815190506200013d8162000112565b92915050565b6000806000606084860312156200015f576200015e6200009e565b5b60006200016f86828701620000c7565b93505060206200018286828701620000c7565b925050604062000195868287016200012c565b9150509250925092565b61192180620001af6000396000f3fe608060405234801561001057600080fd5b50600436106101215760003560e01c80637f1e9cb0116100ad5780639a113ee2116100715780639a113ee2146102e95780639a7c4b7114610305578063d658d2e914610321578063d75804d314610351578063e6a8e7451461035b57610121565b80637f1e9cb0146102455780637fb1b681146102635780637fe8888514610281578063888370941461029d5780638ab3e82d146102b957610121565b806349548e2e116100f457806349548e2e1461019c5780635a319df9146101ba5780636e04ff0d146101d857806372694fc71461020957806379fabb4e1461022757610121565b8063142bc2ae146101265780631b69c0ff14610144578063450d11f0146101625780634585e33b14610180575b600080fd5b61012e610379565b60405161013b9190610e15565b60405180910390f35b61014c610407565b6040516101599190610e50565b60405180910390f35b61016a61040d565b6040516101779190610eac565b60405180910390f35b61019a60048036038101906101959190610f40565b610431565b005b6101a46105ab565b6040516101b19190610e50565b60405180910390f35b6101c26105b1565b6040516101cf9190610e50565b60405180910390f35b6101f260048036038101906101ed9190610f40565b6105b7565b604051610200929190610fa8565b60405180910390f35b610211610610565b60405161021e9190610e50565b60405180910390f35b61022f610616565b60405161023c9190610e50565b60405180910390f35b61024d61061c565b60405161025a9190610eac565b60405180910390f35b61026b610642565b60405161027891906110a0565b60405180910390f35b61029b600480360381019061029691906110ee565b61069a565b005b6102b760048036038101906102b29190611147565b610780565b005b6102d360048036038101906102ce91906111a0565b610855565b6040516102e091906111dc565b60405180910390f35b61030360048036038101906102fe9190611327565b610879565b005b61031f600480360381019061031a9190611370565b610885565b005b61033b600480360381019061033691906110ee565b610968565b60405161034891906113e4565b60405180910390f35b610359610988565b005b6103636109ea565b6040516103709190610eac565b60405180910390f35b600580546103869061142e565b80601f01602080910402602001604051908101604052809291908181526020018280546103b29061142e565b80156103ff5780601f106103d4576101008083540402835291602001916103ff565b820191906000526020600020905b8154815290600101906020018083116103e257829003601f168201915b505050505081565b60085481565b60008054906101000a900473ffffffffffffffffffffffffffffffffffffffff1681565b60008282600081811061044757610446611460565b5b9050013560f81c60f81b60f81c90506104628160ff16610a10565b60018160ff1614806104825750600a546009544261048091906114be565b115b156104bb577f9675ea223af4ad4b13501fbb68f9545df3cd4b56264e9db088c76c27681fe41760405160405180910390a1426009819055505b60028160ff1614806104db5750600854600754426104d991906114be565b115b156105a6577f46fd07fecbe6506e08704dd9a70f6c585b80b614de91ae7524e70e2acbaf425960405160405180910390a1610565600680548060200260200160405190810160405280929190818152602001828054801561055b57602002820191906000526020600020905b815481526020019060010190808311610547575b5050505050610aa9565b7fd469740a689b819a644d0bf51f97c5fef115a9d83d81de843e9b6e9707c22b4f600660405161059591906115c8565b60405180910390a16105a5610988565b5b505050565b60075481565b60035481565b600060606000600a54600954426105ce91906114be565b1190506000600854600754426105e491906114be565b11905081806105f05750805b935083604051806020016040528060008152509350935050509250929050565b60095481565b600a5481565b600160009054906101000a900473ffffffffffffffffffffffffffffffffffffffff1681565b6060600680548060200260200160405190810160405280929190818152602001828054801561069057602002820191906000526020600020905b81548152602001906001019080831161067c575b5050505050905090565b6002600082815260200190815260200160002060009054906101000a900460ff16156106fb576040517f08c379a00000000000000000000000000000000000000000000000000000000081526004016106f290611647565b60405180910390fd5b60016002600083815260200190815260200160002060006101000a81548160ff0219169083151502179055506006819080600181540180825580915050600190039060005260206000200160009091909190915055807f94064d925a8b107bd49bcd440ea5da85b1ce987eef138b159ece3ba15735a42f60405160405180910390a250565b600073ffffffffffffffffffffffffffffffffffffffff16600160009054906101000a900473ffffffffffffffffffffffffffffffffffffffff1673ffffffffffffffffffffffffffffffffffffffff1614610811576040517f08c379a0000000000000000000000000000000000000000000000000000000008152600401610808906116d9565b60405180910390fd5b80600160006101000a81548173ffffffffffffffffffffffffffffffffffffffff021916908373ffffffffffffffffffffffffffffffffffffffff16021790555050565b6006818154811061086557600080fd5b906000526020600020016000915090505481565b61088281610b16565b50565b60008054906101000a900473ffffffffffffffffffffffffffffffffffffffff1673ffffffffffffffffffffffffffffffffffffffff163373ffffffffffffffffffffffffffffffffffffffff1614610913576040517f08c379a000000000000000000000000000000000000000000000000000000000815260040161090a9061176b565b60405180910390fd5b610962848484848080601f016020809104026020016040519081016040528093929190818152602001838380828437600081840152601f19601f82011690508083019250505050505050610b50565b50505050565b60026020528060005260406000206000915054906101000a900460ff1681565b600067ffffffffffffffff8111156109a3576109a26111fc565b5b6040519080825280602002602001820160405280156109d15781602001602082028036833780820191505090505b50600690805190602001906109e7929190610c6f565b50565b600460009054906101000a900473ffffffffffffffffffffffffffffffffffffffff1681565b610aa681604051602401610a249190610e50565b6040516020818303038152906040527ff82c50f1000000000000000000000000000000000000000000000000000000007bffffffffffffffffffffffffffffffffffffffffffffffffffffffff19166020820180517bffffffffffffffffffffffffffffffffffffffffffffffffffffffff8381831617835250505050610c46565b50565b606060005b8251811015610b085781838281518110610acb57610aca611460565b5b6020026020010151604051602001610ae49291906117e8565b60405160208183030381529060405291508080610b0090611810565b915050610aae565b50610b1281610b16565b5050565b7f8c5261668696ce22758910d05bab8f186d6eb247ceac2af2e82c7dc17669b03681604051610b459190610e15565b60405180910390a150565b81600160009054906101000a900473ffffffffffffffffffffffffffffffffffffffff1673ffffffffffffffffffffffffffffffffffffffff168173ffffffffffffffffffffffffffffffffffffffff1614610be1576040517f08c379a0000000000000000000000000000000000000000000000000000000008152600401610bd8906118cb565b60405180910390fd5b8360038190555082600460006101000a81548173ffffffffffffffffffffffffffffffffffffffff021916908373ffffffffffffffffffffffffffffffffffffffff1602179055508160059080519060200190610c3f929190610cbc565b5050505050565b60008151905060006a636f6e736f6c652e6c6f679050602083016000808483855afa5050505050565b828054828255906000526020600020908101928215610cab579160200282015b82811115610caa578251825591602001919060010190610c8f565b5b509050610cb89190610d42565b5090565b828054610cc89061142e565b90600052602060002090601f016020900481019282610cea5760008555610d31565b82601f10610d0357805160ff1916838001178555610d31565b82800160010185558215610d31579182015b82811115610d30578251825591602001919060010190610d15565b5b509050610d3e9190610d5f565b5090565b5b80821115610d5b576000816000905550600101610d43565b5090565b5b80821115610d78576000816000905550600101610d60565b5090565b600081519050919050565b600082825260208201905092915050565b60005b83811015610db6578082015181840152602081019050610d9b565b83811115610dc5576000848401525b50505050565b6000601f19601f8301169050919050565b6000610de782610d7c565b610df18185610d87565b9350610e01818560208601610d98565b610e0a81610dcb565b840191505092915050565b60006020820190508181036000830152610e2f8184610ddc565b905092915050565b6000819050919050565b610e4a81610e37565b82525050565b6000602082019050610e656000830184610e41565b92915050565b600073ffffffffffffffffffffffffffffffffffffffff82169050919050565b6000610e9682610e6b565b9050919050565b610ea681610e8b565b82525050565b6000602082019050610ec16000830184610e9d565b92915050565b6000604051905090565b600080fd5b600080fd5b600080fd5b600080fd5b600080fd5b60008083601f840112610f0057610eff610edb565b5b8235905067ffffffffffffffff811115610f1d57610f1c610ee0565b5b602083019150836001820283011115610f3957610f38610ee5565b5b9250929050565b60008060208385031215610f5757610f56610ed1565b5b600083013567ffffffffffffffff811115610f7557610f74610ed6565b5b610f8185828601610eea565b92509250509250929050565b60008115159050919050565b610fa281610f8d565b82525050565b6000604082019050610fbd6000830185610f99565b8181036020830152610fcf8184610ddc565b90509392505050565b600081519050919050565b600082825260208201905092915050565b6000819050602082019050919050565b6000819050919050565b61101781611004565b82525050565b6000611029838361100e565b60208301905092915050565b6000602082019050919050565b600061104d82610fd8565b6110578185610fe3565b935061106283610ff4565b8060005b8381101561109357815161107a888261101d565b975061108583611035565b925050600181019050611066565b5085935050505092915050565b600060208201905081810360008301526110ba8184611042565b905092915050565b6110cb81611004565b81146110d657600080fd5b50565b6000813590506110e8816110c2565b92915050565b60006020828403121561110457611103610ed1565b5b6000611112848285016110d9565b91505092915050565b61112481610e8b565b811461112f57600080fd5b50565b6000813590506111418161111b565b92915050565b60006020828403121561115d5761115c610ed1565b5b600061116b84828501611132565b91505092915050565b61117d81610e37565b811461118857600080fd5b50565b60008135905061119a81611174565b92915050565b6000602082840312156111b6576111b5610ed1565b5b60006111c48482850161118b565b91505092915050565b6111d681611004565b82525050565b60006020820190506111f160008301846111cd565b92915050565b600080fd5b7f4e487b7100000000000000000000000000000000000000000000000000000000600052604160045260246000fd5b61123482610dcb565b810181811067ffffffffffffffff82111715611253576112526111fc565b5b80604052505050565b6000611266610ec7565b9050611272828261122b565b919050565b600067ffffffffffffffff821115611292576112916111fc565b5b61129b82610dcb565b9050602081019050919050565b82818337600083830152505050565b60006112ca6112c584611277565b61125c565b9050828152602081018484840111156112e6576112e56111f7565b5b6112f18482856112a8565b509392505050565b600082601f83011261130e5761130d610edb565b5b813561131e8482602086016112b7565b91505092915050565b60006020828403121561133d5761133c610ed1565b5b600082013567ffffffffffffffff81111561135b5761135a610ed6565b5b611367848285016112f9565b91505092915050565b6000806000806060858703121561138a57611389610ed1565b5b60006113988782880161118b565b94505060206113a987828801611132565b935050604085013567ffffffffffffffff8111156113ca576113c9610ed6565b5b6113d687828801610eea565b925092505092959194509250565b60006020820190506113f96000830184610f99565b92915050565b7f4e487b7100000000000000000000000000000000000000000000000000000000600052602260045260246000fd5b6000600282049050600182168061144657607f821691505b6020821081141561145a576114596113ff565b5b50919050565b7f4e487b7100000000000000000000000000000000000000000000000000000000600052603260045260246000fd5b7f4e487b7100000000000000000000000000000000000000000000000000000000600052601160045260246000fd5b60006114c982610e37565b91506114d483610e37565b9250828210156114e7576114e661148f565b5b828203905092915050565b600081549050919050565b60008190508160005260206000209050919050565b60008160001c9050919050565b6000819050919050565b600061153c61153783611512565b61151f565b9050919050565b600061154f8254611529565b9050919050565b6000600182019050919050565b600061156e826114f2565b6115788185610fe3565b9350611583836114fd565b8060005b838110156115bb5761159882611543565b6115a2888261101d565b97506115ad83611556565b925050600181019050611587565b5085935050505092915050565b600060208201905081810360008301526115e28184611563565b905092915050565b600082825260208201905092915050565b7f4861736820616c72656164792073746f72656400000000000000000000000000600082015250565b60006116316013836115ea565b915061163c826115fb565b602082019050919050565b6000602082019050818103600083015261166081611624565b9050919050565b7f4678426173654368696c6454756e6e656c3a20524f4f545f54554e4e454c5f4160008201527f4c52454144595f53455400000000000000000000000000000000000000000000602082015250565b60006116c3602a836115ea565b91506116ce82611667565b604082019050919050565b600060208201905081810360008301526116f2816116b6565b9050919050565b7f4678426173654368696c6454756e6e656c3a20494e56414c49445f53454e444560008201527f5200000000000000000000000000000000000000000000000000000000000000602082015250565b60006117556021836115ea565b9150611760826116f9565b604082019050919050565b6000602082019050818103600083015261178481611748565b9050919050565b600081905092915050565b60006117a182610d7c565b6117ab818561178b565b93506117bb818560208601610d98565b80840191505092915050565b6000819050919050565b6117e26117dd82611004565b6117c7565b82525050565b60006117f48285611796565b915061180082846117d1565b6020820191508190509392505050565b600061181b82610e37565b91507fffffffffffffffffffffffffffffffffffffffffffffffffffffffffffffffff82141561184e5761184d61148f565b5b600182019050919050565b7f4678426173654368696c6454756e6e656c3a20494e56414c49445f53454e444560008201527f525f46524f4d5f524f4f54000000000000000000000000000000000000000000602082015250565b60006118b5602b836115ea565b91506118c082611859565b604082019050919050565b600060208201905081810360008301526118e4816118a8565b905091905056fea26469706673582212208c1e92cdc3136e512338fd03291a82bed64d1ffb0e02847c0953560d27f10a3164736f6c63430008090033",
  "linkReferences": {},
  "deployedLinkReferences": {}
}