{
  "_format": "hh-sol-artifact-1",
  "contractName": "SideChain",
  "sourceName": "contracts/SideChain.sol",
  "abi": [
    {
      "inputs": [
        {
          "internalType": "uint256",
          "name": "_sideChainInterval",
          "type": "uint256"
        },
        {
          "internalType": "uint256",
          "name": "_mainChainInterval",
          "type": "uint256"
        },
        {
          "internalType": "address",
          "name": "_fxChild",
          "type": "address"
        },
        {
          "internalType": "address",
          "name": "_fxERC721Token",
          "type": "address"
        }
      ],
      "stateMutability": "nonpayable",
      "type": "constructor"
    },
    {
      "anonymous": false,
      "inputs": [],
      "name": "BridingRequired",
      "type": "event"
    },
    {
      "anonymous": false,
      "inputs": [],
      "name": "HasherRequired",
      "type": "event"
    },
    {
      "anonymous": false,
      "inputs": [
        {
          "indexed": true,
          "internalType": "bytes32[]",
          "name": "_hash",
          "type": "bytes32[]"
        }
      ],
      "name": "HashesStored",
      "type": "event"
    },
    {
      "anonymous": false,
      "inputs": [
        {
          "indexed": false,
          "internalType": "bytes",
          "name": "message",
          "type": "bytes"
        }
      ],
      "name": "MessageSent",
      "type": "event"
    },
    {
      "anonymous": false,
      "inputs": [
        {
          "indexed": true,
          "internalType": "address",
          "name": "rootToken",
          "type": "address"
        },
        {
          "indexed": true,
          "internalType": "address",
          "name": "childToken",
          "type": "address"
        }
      ],
      "name": "TokenMapped",
      "type": "event"
    },
    {
      "inputs": [],
      "name": "DEPOSIT",
      "outputs": [
        {
          "internalType": "bytes32",
          "name": "",
          "type": "bytes32"
        }
      ],
      "stateMutability": "view",
      "type": "function"
    },
    {
      "inputs": [],
      "name": "MAP_TOKEN",
      "outputs": [
        {
          "internalType": "bytes32",
          "name": "",
          "type": "bytes32"
        }
      ],
      "stateMutability": "view",
      "type": "function"
    },
    {
      "inputs": [],
      "name": "PREFIX_SYMBOL",
      "outputs": [
        {
          "internalType": "string",
          "name": "",
          "type": "string"
        }
      ],
      "stateMutability": "view",
      "type": "function"
    },
    {
      "inputs": [],
      "name": "SUFFIX_NAME",
      "outputs": [
        {
          "internalType": "string",
          "name": "",
          "type": "string"
        }
      ],
      "stateMutability": "view",
      "type": "function"
    },
    {
      "inputs": [
        {
          "internalType": "bytes",
          "name": "",
          "type": "bytes"
        }
      ],
      "name": "checkUpkeep",
      "outputs": [
        {
          "internalType": "bool",
          "name": "upkeepNeeded",
          "type": "bool"
        },
        {
          "internalType": "bytes",
          "name": "",
          "type": "bytes"
        }
      ],
      "stateMutability": "view",
      "type": "function"
    },
    {
      "inputs": [
        {
          "internalType": "bytes32",
          "name": "salt",
          "type": "bytes32"
        },
        {
          "internalType": "bytes32",
          "name": "bytecodeHash",
          "type": "bytes32"
        },
        {
          "internalType": "address",
          "name": "deployer",
          "type": "address"
        }
      ],
      "name": "computedCreate2Address",
      "outputs": [
        {
          "internalType": "address",
          "name": "",
          "type": "address"
        }
      ],
      "stateMutability": "pure",
      "type": "function"
    },
    {
      "inputs": [],
      "name": "fxChild",
      "outputs": [
        {
          "internalType": "address",
          "name": "",
          "type": "address"
        }
      ],
      "stateMutability": "view",
      "type": "function"
    },
    {
      "inputs": [],
      "name": "fxRootTunnel",
      "outputs": [
        {
          "internalType": "address",
          "name": "",
          "type": "address"
        }
      ],
      "stateMutability": "view",
      "type": "function"
    },
    {
      "inputs": [],
      "name": "getPendingHashes",
      "outputs": [
        {
          "internalType": "bytes32[]",
          "name": "",
          "type": "bytes32[]"
        }
      ],
      "stateMutability": "view",
      "type": "function"
    },
    {
      "inputs": [
        {
          "internalType": "bytes32",
          "name": "",
          "type": "bytes32"
        }
      ],
      "name": "hashes",
      "outputs": [
        {
          "internalType": "bool",
          "name": "",
          "type": "bool"
        }
      ],
      "stateMutability": "view",
      "type": "function"
    },
    {
      "inputs": [],
      "name": "mainchainInterval",
      "outputs": [
        {
          "internalType": "uint256",
          "name": "",
          "type": "uint256"
        }
      ],
      "stateMutability": "view",
      "type": "function"
    },
    {
      "inputs": [],
      "name": "mainchainTimeStamp",
      "outputs": [
        {
          "internalType": "uint256",
          "name": "",
          "type": "uint256"
        }
      ],
      "stateMutability": "view",
      "type": "function"
    },
    {
      "inputs": [
        {
          "internalType": "address",
          "name": "",
          "type": "address"
        },
        {
          "internalType": "address",
          "name": "",
          "type": "address"
        },
        {
          "internalType": "uint256",
          "name": "",
          "type": "uint256"
        },
        {
          "internalType": "bytes",
          "name": "",
          "type": "bytes"
        }
      ],
      "name": "onERC721Received",
      "outputs": [
        {
          "internalType": "bytes4",
          "name": "",
          "type": "bytes4"
        }
      ],
      "stateMutability": "pure",
      "type": "function"
    },
    {
      "inputs": [
        {
          "internalType": "uint256",
          "name": "",
          "type": "uint256"
        }
      ],
      "name": "pendingHashes",
      "outputs": [
        {
          "internalType": "bytes32",
          "name": "",
          "type": "bytes32"
        }
      ],
      "stateMutability": "view",
      "type": "function"
    },
    {
      "inputs": [
        {
          "internalType": "bytes",
          "name": "input",
          "type": "bytes"
        }
      ],
      "name": "performUpkeep",
      "outputs": [],
      "stateMutability": "nonpayable",
      "type": "function"
    },
    {
      "inputs": [
        {
          "internalType": "uint256",
          "name": "stateId",
          "type": "uint256"
        },
        {
          "internalType": "address",
          "name": "rootMessageSender",
          "type": "address"
        },
        {
          "internalType": "bytes",
          "name": "data",
          "type": "bytes"
        }
      ],
      "name": "processMessageFromRoot",
      "outputs": [],
      "stateMutability": "nonpayable",
      "type": "function"
    },
    {
      "inputs": [],
      "name": "resetPendingHashes",
      "outputs": [],
      "stateMutability": "nonpayable",
      "type": "function"
    },
    {
      "inputs": [
        {
          "internalType": "address",
          "name": "",
          "type": "address"
        }
      ],
      "name": "rootToChildToken",
      "outputs": [
        {
          "internalType": "address",
          "name": "",
          "type": "address"
        }
      ],
      "stateMutability": "view",
      "type": "function"
    },
    {
      "inputs": [
        {
          "internalType": "address",
          "name": "_fxRootTunnel",
          "type": "address"
        }
      ],
      "name": "setFxRootTunnel",
      "outputs": [],
      "stateMutability": "nonpayable",
      "type": "function"
    },
    {
      "inputs": [],
      "name": "sidechainInterval",
      "outputs": [
        {
          "internalType": "uint256",
          "name": "",
          "type": "uint256"
        }
      ],
      "stateMutability": "view",
      "type": "function"
    },
    {
      "inputs": [],
      "name": "sidechainTimeStamp",
      "outputs": [
        {
          "internalType": "uint256",
          "name": "",
          "type": "uint256"
        }
      ],
      "stateMutability": "view",
      "type": "function"
    },
    {
      "inputs": [
        {
          "internalType": "bytes32[]",
          "name": "_hashes",
          "type": "bytes32[]"
        }
      ],
      "name": "storeHashes",
      "outputs": [],
      "stateMutability": "nonpayable",
      "type": "function"
    },
    {
      "inputs": [],
      "name": "tokenTemplate",
      "outputs": [
        {
          "internalType": "address",
          "name": "",
          "type": "address"
        }
      ],
      "stateMutability": "view",
      "type": "function"
    },
    {
      "inputs": [
        {
          "internalType": "address",
          "name": "childToken",
          "type": "address"
        },
        {
          "internalType": "uint256",
          "name": "tokenId",
          "type": "uint256"
        },
        {
          "internalType": "bytes",
          "name": "data",
          "type": "bytes"
        }
      ],
      "name": "withdraw",
      "outputs": [],
      "stateMutability": "nonpayable",
      "type": "function"
    },
    {
      "inputs": [
        {
          "internalType": "address",
          "name": "childToken",
          "type": "address"
        },
        {
          "internalType": "address",
          "name": "receiver",
          "type": "address"
        },
        {
          "internalType": "uint256",
          "name": "tokenId",
          "type": "uint256"
        },
        {
          "internalType": "bytes",
          "name": "data",
          "type": "bytes"
        }
      ],
      "name": "withdrawTo",
      "outputs": [],
      "stateMutability": "nonpayable",
      "type": "function"
    }
  ],
  "bytecode": "0x60806040523480156200001157600080fd5b5060405162002f3d38038062002f3d8339818101604052810190620000379190620001f5565b818181806000806101000a81548173ffffffffffffffffffffffffffffffffffffffff021916908373ffffffffffffffffffffffffffffffffffffffff1602179055505080600360006101000a81548173ffffffffffffffffffffffffffffffffffffffff021916908373ffffffffffffffffffffffffffffffffffffffff160217905550620000cd816200013760201b60201c565b6200010f576040517f08c379a00000000000000000000000000000000000000000000000000000000081526004016200010690620002c8565b60405180910390fd5b50508360098190555082600781905550426008819055504260068190555050505050620002ea565b600080823b905060008163ffffffff1611915050919050565b600080fd5b6000819050919050565b6200016a8162000155565b81146200017657600080fd5b50565b6000815190506200018a816200015f565b92915050565b600073ffffffffffffffffffffffffffffffffffffffff82169050919050565b6000620001bd8262000190565b9050919050565b620001cf81620001b0565b8114620001db57600080fd5b50565b600081519050620001ef81620001c4565b92915050565b6000806000806080858703121562000212576200021162000150565b5b6000620002228782880162000179565b9450506020620002358782880162000179565b93505060406200024887828801620001de565b92505060606200025b87828801620001de565b91505092959194509250565b600082825260208201905092915050565b7f546f6b656e2074656d706c617465206973206e6f7420636f6e74726163740000600082015250565b6000620002b0601e8362000267565b9150620002bd8262000278565b602082019050919050565b60006020820190508181036000830152620002e381620002a1565b9050919050565b612c4380620002fa6000396000f3fe608060405234801561001057600080fd5b50600436106101735760003560e01c80637337957f116100de5780638ab3e82d11610097578063d658d2e911610071578063d658d2e91461042b578063d75804d31461045b578063d81c8e5214610465578063ea60c7c41461048357610173565b80638ab3e82d146103c3578063920f96cc146103f35780639a7c4b711461040f57610173565b80637337957f146102ff57806379fabb4e1461032f5780637f1e9cb01461034d5780637fb1b6811461036b578063886a69ba1461038957806388837094146103a757610173565b806339c6c9e01161013057806339c6c9e01461023a578063450d11f0146102585780634585e33b1461027657806349548e2e146102925780636e04ff0d146102b057806372694fc7146102e157610173565b80630478346c146101785780630814d3dd14610194578063150b7a02146101b25780631b69c0ff146101e257806331f09265146102005780633740d5a01461021c575b600080fd5b610192600480360381019061018d91906117a2565b6104b3565b005b61019c6105f2565b6040516101a99190611830565b60405180910390f35b6101cc60048036038101906101c79190611903565b610618565b6040516101d991906119c6565b60405180910390f35b6101ea61062d565b6040516101f791906119f0565b60405180910390f35b61021a60048036038101906102159190611b4c565b610633565b005b610224610644565b6040516102319190611c43565b60405180910390f35b61024261067d565b60405161024f9190611c43565b60405180910390f35b6102606106b6565b60405161026d9190611830565b60405180910390f35b610290600480360381019061028b9190611c65565b6106da565b005b61029a6107d0565b6040516102a791906119f0565b60405180910390f35b6102ca60048036038101906102c59190611c65565b6107d6565b6040516102d8929190611d22565b60405180910390f35b6102e961082f565b6040516102f691906119f0565b60405180910390f35b61031960048036038101906103149190611d88565b610835565b6040516103269190611830565b60405180910390f35b610337610879565b60405161034491906119f0565b60405180910390f35b61035561087f565b6040516103629190611830565b60405180910390f35b6103736108a5565b6040516103809190611e99565b60405180910390f35b6103916108fd565b60405161039e9190611eca565b60405180910390f35b6103c160048036038101906103bc9190611ee5565b610921565b005b6103dd60048036038101906103d89190611f12565b6109f6565b6040516103ea9190611eca565b60405180910390f35b61040d60048036038101906104089190611f3f565b610a1a565b005b61042960048036038101906104249190611fc2565b610a2c565b005b61044560048036038101906104409190612036565b610b0f565b6040516104529190612063565b60405180910390f35b610463610b2f565b005b61046d610b91565b60405161047a9190611eca565b60405180910390f35b61049d60048036038101906104989190611ee5565b610bb5565b6040516104aa9190611830565b60405180910390f35b60005b828290508110156105a95760008383838181106104d6576104d561207e565b5b9050602002013590506004600082815260200190815260200160002060009054906101000a900460ff1615610540576040517f08c379a0000000000000000000000000000000000000000000000000000000008152600401610537906120f9565b60405180910390fd5b60016004600083815260200190815260200160002060006101000a81548160ff02191690831515021790555060058190806001815401808255809150506001900390600052602060002001600090919091909150555080806105a190612148565b9150506104b6565b5081816040516105ba9291906121fd565b60405180910390207f2ab6b74fdfad67fccf53a62b8bc779c625f81932c5db81aec23763a6e292f7f760405160405180910390a25050565b600360009054906101000a900473ffffffffffffffffffffffffffffffffffffffff1681565b600063150b7a0260e01b905095945050505050565b60075481565b61063f83338484610be8565b505050565b6040518060400160405280600281526020017f667800000000000000000000000000000000000000000000000000000000000081525081565b6040518060400160405280600b81526020017f202846584552433732312900000000000000000000000000000000000000000081525081565b60008054906101000a900473ffffffffffffffffffffffffffffffffffffffff1681565b6000828260008181106106f0576106ef61207e565b5b9050013560f81c60f81b60f81c905061070b8160ff16610f13565b60018160ff16148061072b5750600954600854426107299190612216565b115b15610764577f9675ea223af4ad4b13501fbb68f9545df3cd4b56264e9db088c76c27681fe41760405160405180910390a1426008819055505b60028160ff1614806107845750600754600654426107829190612216565b115b156107cb577f46fd07fecbe6506e08704dd9a70f6c585b80b614de91ae7524e70e2acbaf425960405160405180910390a1600560006107c3919061169e565b426006819055505b505050565b60065481565b600060606000600954600854426107ed9190612216565b1190506000600754600654426108039190612216565b119050818061080f5750805b935083604051806020016040528060008152509350935050509250929050565b60085481565b60008060ff60f81b8386866040516020016108539493929190612300565b6040516020818303038152906040528051906020012090508060001c9150509392505050565b60095481565b600160009054906101000a900473ffffffffffffffffffffffffffffffffffffffff1681565b606060058054806020026020016040519081016040528092919081815260200182805480156108f357602002820191906000526020600020905b8154815260200190600101908083116108df575b5050505050905090565b7f2cef46a936bdc5b7e6e8c71aa04560c41cf7d88bb26901a7e7f4936ff02accad81565b600073ffffffffffffffffffffffffffffffffffffffff16600160009054906101000a900473ffffffffffffffffffffffffffffffffffffffff1673ffffffffffffffffffffffffffffffffffffffff16146109b2576040517f08c379a00000000000000000000000000000000000000000000000000000000081526004016109a9906123c0565b60405180910390fd5b80600160006101000a81548173ffffffffffffffffffffffffffffffffffffffff021916908373ffffffffffffffffffffffffffffffffffffffff16021790555050565b60058181548110610a0657600080fd5b906000526020600020016000915090505481565b610a2684848484610be8565b50505050565b60008054906101000a900473ffffffffffffffffffffffffffffffffffffffff1673ffffffffffffffffffffffffffffffffffffffff163373ffffffffffffffffffffffffffffffffffffffff1614610aba576040517f08c379a0000000000000000000000000000000000000000000000000000000008152600401610ab190612452565b60405180910390fd5b610b09848484848080601f016020809104026020016040519081016040528093929190818152602001838380828437600081840152601f19601f82011690508083019250505050505050610fac565b50505050565b60046020528060005260406000206000915054906101000a900460ff1681565b600067ffffffffffffffff811115610b4a57610b49611a21565b5b604051908082528060200260200182016040528015610b785781602001602082028036833780820191505090505b5060059080519060200190610b8e9291906116bf565b50565b7f87a7811f4bfedea3d341ad165680ae306b01aaeacc205d227629cf157dd9f82181565b60026020528060005260406000206000915054906101000a900473ffffffffffffffffffffffffffffffffffffffff1681565b600084905060008173ffffffffffffffffffffffffffffffffffffffff16630a8a49146040518163ffffffff1660e01b8152600401602060405180830381600087803b158015610c3757600080fd5b505af1158015610c4b573d6000803e3d6000fd5b505050506040513d601f19601f82011682018060405250810190610c6f9190612487565b9050600073ffffffffffffffffffffffffffffffffffffffff168673ffffffffffffffffffffffffffffffffffffffff1614158015610cdb5750600073ffffffffffffffffffffffffffffffffffffffff168173ffffffffffffffffffffffffffffffffffffffff1614155b8015610d715750600260008273ffffffffffffffffffffffffffffffffffffffff1673ffffffffffffffffffffffffffffffffffffffff16815260200190815260200160002060009054906101000a900473ffffffffffffffffffffffffffffffffffffffff1673ffffffffffffffffffffffffffffffffffffffff168673ffffffffffffffffffffffffffffffffffffffff16145b610db0576040517f08c379a0000000000000000000000000000000000000000000000000000000008152600401610da790612526565b60405180910390fd5b8173ffffffffffffffffffffffffffffffffffffffff16636352211e856040518263ffffffff1660e01b8152600401610de991906119f0565b60206040518083038186803b158015610e0157600080fd5b505afa158015610e15573d6000803e3d6000fd5b505050506040513d601f19601f82011682018060405250810190610e399190612487565b73ffffffffffffffffffffffffffffffffffffffff163373ffffffffffffffffffffffffffffffffffffffff1614610e7057600080fd5b8173ffffffffffffffffffffffffffffffffffffffff166342966c68856040518263ffffffff1660e01b8152600401610ea991906119f0565b600060405180830381600087803b158015610ec357600080fd5b505af1158015610ed7573d6000803e3d6000fd5b50505050610f0b8187878787604051602001610ef7959493929190612546565b604051602081830303815290604052611109565b505050505050565b610fa981604051602401610f2791906119f0565b6040516020818303038152906040527ff82c50f1000000000000000000000000000000000000000000000000000000007bffffffffffffffffffffffffffffffffffffffffffffffffffffffff19166020820180517bffffffffffffffffffffffffffffffffffffffffffffffffffffffff8381831617835250505050611143565b50565b81600160009054906101000a900473ffffffffffffffffffffffffffffffffffffffff1673ffffffffffffffffffffffffffffffffffffffff168173ffffffffffffffffffffffffffffffffffffffff161461103d576040517f08c379a000000000000000000000000000000000000000000000000000000000815260040161103490612612565b60405180910390fd5b6000808380602001905181019061105491906126b7565b915091507f87a7811f4bfedea3d341ad165680ae306b01aaeacc205d227629cf157dd9f82182141561108e576110898161116c565b611101565b7f2cef46a936bdc5b7e6e8c71aa04560c41cf7d88bb26901a7e7f4936ff02accad8214156110c5576110bf81611274565b50611100565b6040517f08c379a00000000000000000000000000000000000000000000000000000000081526004016110f790612785565b60405180910390fd5b5b505050505050565b7f8c5261668696ce22758910d05bab8f186d6eb247ceac2af2e82c7dc17669b0368160405161113891906127a5565b60405180910390a150565b60008151905060006a636f6e736f6c652e6c6f679050602083016000808483855afa5050505050565b600080600080600085806020019051810190611188919061281a565b945094509450945094506000600260008773ffffffffffffffffffffffffffffffffffffffff1673ffffffffffffffffffffffffffffffffffffffff16815260200190815260200160002060009054906101000a900473ffffffffffffffffffffffffffffffffffffffff16905060008190508073ffffffffffffffffffffffffffffffffffffffff166394d008ef8686866040518463ffffffff1660e01b8152600401611238939291906128b1565b600060405180830381600087803b15801561125257600080fd5b505af1158015611266573d6000803e3d6000fd5b505050505050505050505050565b6000806000808480602001905181019061128e9190612990565b9250925092506000600260008573ffffffffffffffffffffffffffffffffffffffff1673ffffffffffffffffffffffffffffffffffffffff16815260200190815260200160002060009054906101000a900473ffffffffffffffffffffffffffffffffffffffff169050600073ffffffffffffffffffffffffffffffffffffffff168173ffffffffffffffffffffffffffffffffffffffff1614611367576040517f08c379a000000000000000000000000000000000000000000000000000000000815260040161135e90612a8d565b60405180910390fd5b60008460405160200161137a9190612aad565b6040516020818303038152906040528051906020012090506113be81600360009054906101000a900473ffffffffffffffffffffffffffffffffffffffff166115c2565b91508173ffffffffffffffffffffffffffffffffffffffff16632016a0d23087876040518060400160405280600b81526020017f2028465845524337323129000000000000000000000000000000000000000000815250604051602001611426929190612b04565b6040516020818303038152906040526040518060400160405280600281526020017f66780000000000000000000000000000000000000000000000000000000000008152508860405160200161147d929190612b04565b6040516020818303038152906040526040518563ffffffff1660e01b81526004016114ab9493929190612b28565b600060405180830381600087803b1580156114c557600080fd5b505af11580156114d9573d6000803e3d6000fd5b5050505081600260008773ffffffffffffffffffffffffffffffffffffffff1673ffffffffffffffffffffffffffffffffffffffff16815260200190815260200160002060006101000a81548173ffffffffffffffffffffffffffffffffffffffff021916908373ffffffffffffffffffffffffffffffffffffffff1602179055508173ffffffffffffffffffffffffffffffffffffffff168573ffffffffffffffffffffffffffffffffffffffff167f85920d35e6c72f6b2affffa04298b0cecfeba86e4a9f407df661f1cb8ab5e61760405160405180910390a38195505050505050919050565b6000808260601b90506040517f3d602d80600a3d3981f3363d3d373d3d3d363d7300000000000000000000000081528160148201527f5af43d82803e903d91602b57fd5bf300000000000000000000000000000000006028820152846037826000f5925050600073ffffffffffffffffffffffffffffffffffffffff168273ffffffffffffffffffffffffffffffffffffffff161415611697576040517f08c379a000000000000000000000000000000000000000000000000000000000815260040161168e90612bed565b60405180910390fd5b5092915050565b50805460008255906000526020600020908101906116bc919061170c565b50565b8280548282559060005260206000209081019282156116fb579160200282015b828111156116fa5782518255916020019190600101906116df565b5b509050611708919061170c565b5090565b5b8082111561172557600081600090555060010161170d565b5090565b6000604051905090565b600080fd5b600080fd5b600080fd5b600080fd5b600080fd5b60008083601f8401126117625761176161173d565b5b8235905067ffffffffffffffff81111561177f5761177e611742565b5b60208301915083602082028301111561179b5761179a611747565b5b9250929050565b600080602083850312156117b9576117b8611733565b5b600083013567ffffffffffffffff8111156117d7576117d6611738565b5b6117e38582860161174c565b92509250509250929050565b600073ffffffffffffffffffffffffffffffffffffffff82169050919050565b600061181a826117ef565b9050919050565b61182a8161180f565b82525050565b60006020820190506118456000830184611821565b92915050565b6118548161180f565b811461185f57600080fd5b50565b6000813590506118718161184b565b92915050565b6000819050919050565b61188a81611877565b811461189557600080fd5b50565b6000813590506118a781611881565b92915050565b60008083601f8401126118c3576118c261173d565b5b8235905067ffffffffffffffff8111156118e0576118df611742565b5b6020830191508360018202830111156118fc576118fb611747565b5b9250929050565b60008060008060006080868803121561191f5761191e611733565b5b600061192d88828901611862565b955050602061193e88828901611862565b945050604061194f88828901611898565b935050606086013567ffffffffffffffff8111156119705761196f611738565b5b61197c888289016118ad565b92509250509295509295909350565b60007fffffffff0000000000000000000000000000000000000000000000000000000082169050919050565b6119c08161198b565b82525050565b60006020820190506119db60008301846119b7565b92915050565b6119ea81611877565b82525050565b6000602082019050611a0560008301846119e1565b92915050565b600080fd5b6000601f19601f8301169050919050565b7f4e487b7100000000000000000000000000000000000000000000000000000000600052604160045260246000fd5b611a5982611a10565b810181811067ffffffffffffffff82111715611a7857611a77611a21565b5b80604052505050565b6000611a8b611729565b9050611a978282611a50565b919050565b600067ffffffffffffffff821115611ab757611ab6611a21565b5b611ac082611a10565b9050602081019050919050565b82818337600083830152505050565b6000611aef611aea84611a9c565b611a81565b905082815260208101848484011115611b0b57611b0a611a0b565b5b611b16848285611acd565b509392505050565b600082601f830112611b3357611b3261173d565b5b8135611b43848260208601611adc565b91505092915050565b600080600060608486031215611b6557611b64611733565b5b6000611b7386828701611862565b9350506020611b8486828701611898565b925050604084013567ffffffffffffffff811115611ba557611ba4611738565b5b611bb186828701611b1e565b9150509250925092565b600081519050919050565b600082825260208201905092915050565b60005b83811015611bf5578082015181840152602081019050611bda565b83811115611c04576000848401525b50505050565b6000611c1582611bbb565b611c1f8185611bc6565b9350611c2f818560208601611bd7565b611c3881611a10565b840191505092915050565b60006020820190508181036000830152611c5d8184611c0a565b905092915050565b60008060208385031215611c7c57611c7b611733565b5b600083013567ffffffffffffffff811115611c9a57611c99611738565b5b611ca6858286016118ad565b92509250509250929050565b60008115159050919050565b611cc781611cb2565b82525050565b600081519050919050565b600082825260208201905092915050565b6000611cf482611ccd565b611cfe8185611cd8565b9350611d0e818560208601611bd7565b611d1781611a10565b840191505092915050565b6000604082019050611d376000830185611cbe565b8181036020830152611d498184611ce9565b90509392505050565b6000819050919050565b611d6581611d52565b8114611d7057600080fd5b50565b600081359050611d8281611d5c565b92915050565b600080600060608486031215611da157611da0611733565b5b6000611daf86828701611d73565b9350506020611dc086828701611d73565b9250506040611dd186828701611862565b9150509250925092565b600081519050919050565b600082825260208201905092915050565b6000819050602082019050919050565b611e1081611d52565b82525050565b6000611e228383611e07565b60208301905092915050565b6000602082019050919050565b6000611e4682611ddb565b611e508185611de6565b9350611e5b83611df7565b8060005b83811015611e8c578151611e738882611e16565b9750611e7e83611e2e565b925050600181019050611e5f565b5085935050505092915050565b60006020820190508181036000830152611eb38184611e3b565b905092915050565b611ec481611d52565b82525050565b6000602082019050611edf6000830184611ebb565b92915050565b600060208284031215611efb57611efa611733565b5b6000611f0984828501611862565b91505092915050565b600060208284031215611f2857611f27611733565b5b6000611f3684828501611898565b91505092915050565b60008060008060808587031215611f5957611f58611733565b5b6000611f6787828801611862565b9450506020611f7887828801611862565b9350506040611f8987828801611898565b925050606085013567ffffffffffffffff811115611faa57611fa9611738565b5b611fb687828801611b1e565b91505092959194509250565b60008060008060608587031215611fdc57611fdb611733565b5b6000611fea87828801611898565b9450506020611ffb87828801611862565b935050604085013567ffffffffffffffff81111561201c5761201b611738565b5b612028878288016118ad565b925092505092959194509250565b60006020828403121561204c5761204b611733565b5b600061205a84828501611d73565b91505092915050565b60006020820190506120786000830184611cbe565b92915050565b7f4e487b7100000000000000000000000000000000000000000000000000000000600052603260045260246000fd5b7f4861736820616c72656164792073746f72656400000000000000000000000000600082015250565b60006120e3601383611bc6565b91506120ee826120ad565b602082019050919050565b60006020820190508181036000830152612112816120d6565b9050919050565b7f4e487b7100000000000000000000000000000000000000000000000000000000600052601160045260246000fd5b600061215382611877565b91507fffffffffffffffffffffffffffffffffffffffffffffffffffffffffffffffff82141561218657612185612119565b5b600182019050919050565b600081905092915050565b600080fd5b60006121ad8385612191565b93507f07ffffffffffffffffffffffffffffffffffffffffffffffffffffffffffffff8311156121e0576121df61219c565b5b6020830292506121f1838584611acd565b82840190509392505050565b600061220a8284866121a1565b91508190509392505050565b600061222182611877565b915061222c83611877565b92508282101561223f5761223e612119565b5b828203905092915050565b60007fff0000000000000000000000000000000000000000000000000000000000000082169050919050565b6000819050919050565b61229161228c8261224a565b612276565b82525050565b60008160601b9050919050565b60006122af82612297565b9050919050565b60006122c1826122a4565b9050919050565b6122d96122d48261180f565b6122b6565b82525050565b6000819050919050565b6122fa6122f582611d52565b6122df565b82525050565b600061230c8287612280565b60018201915061231c82866122c8565b60148201915061232c82856122e9565b60208201915061233c82846122e9565b60208201915081905095945050505050565b7f4678426173654368696c6454756e6e656c3a20524f4f545f54554e4e454c5f4160008201527f4c52454144595f53455400000000000000000000000000000000000000000000602082015250565b60006123aa602a83611bc6565b91506123b58261234e565b604082019050919050565b600060208201905081810360008301526123d98161239d565b9050919050565b7f4678426173654368696c6454756e6e656c3a20494e56414c49445f53454e444560008201527f5200000000000000000000000000000000000000000000000000000000000000602082015250565b600061243c602183611bc6565b9150612447826123e0565b604082019050919050565b6000602082019050818103600083015261246b8161242f565b9050919050565b6000815190506124818161184b565b92915050565b60006020828403121561249d5761249c611733565b5b60006124ab84828501612472565b91505092915050565b7f46784552433732314368696c6454756e6e656c3a204e4f5f4d41505045445f5460008201527f4f4b454e00000000000000000000000000000000000000000000000000000000602082015250565b6000612510602483611bc6565b915061251b826124b4565b604082019050919050565b6000602082019050818103600083015261253f81612503565b9050919050565b600060a08201905061255b6000830188611821565b6125686020830187611821565b6125756040830186611821565b61258260608301856119e1565b81810360808301526125948184611ce9565b90509695505050505050565b7f4678426173654368696c6454756e6e656c3a20494e56414c49445f53454e444560008201527f525f46524f4d5f524f4f54000000000000000000000000000000000000000000602082015250565b60006125fc602b83611bc6565b9150612607826125a0565b604082019050919050565b6000602082019050818103600083015261262b816125ef565b9050919050565b60008151905061264181611d5c565b92915050565b600061265a61265584611a9c565b611a81565b90508281526020810184848401111561267657612675611a0b565b5b612681848285611bd7565b509392505050565b600082601f83011261269e5761269d61173d565b5b81516126ae848260208601612647565b91505092915050565b600080604083850312156126ce576126cd611733565b5b60006126dc85828601612632565b925050602083015167ffffffffffffffff8111156126fd576126fc611738565b5b61270985828601612689565b9150509250929050565b7f46784552433732314368696c6454756e6e656c3a20494e56414c49445f53594e60008201527f435f545950450000000000000000000000000000000000000000000000000000602082015250565b600061276f602683611bc6565b915061277a82612713565b604082019050919050565b6000602082019050818103600083015261279e81612762565b9050919050565b600060208201905081810360008301526127bf8184611ce9565b905092915050565b60006127d2826117ef565b9050919050565b6127e2816127c7565b81146127ed57600080fd5b50565b6000815190506127ff816127d9565b92915050565b60008151905061281481611881565b92915050565b600080600080600060a0868803121561283657612835611733565b5b6000612844888289016127f0565b9550506020612855888289016127f0565b9450506040612866888289016127f0565b935050606061287788828901612805565b925050608086015167ffffffffffffffff81111561289857612897611738565b5b6128a488828901612689565b9150509295509295909350565b60006060820190506128c66000830186611821565b6128d360208301856119e1565b81810360408301526128e58184611ce9565b9050949350505050565b600067ffffffffffffffff82111561290a57612909611a21565b5b61291382611a10565b9050602081019050919050565b600061293361292e846128ef565b611a81565b90508281526020810184848401111561294f5761294e611a0b565b5b61295a848285611bd7565b509392505050565b600082601f8301126129775761297661173d565b5b8151612987848260208601612920565b91505092915050565b6000806000606084860312156129a9576129a8611733565b5b60006129b7868287016127f0565b935050602084015167ffffffffffffffff8111156129d8576129d7611738565b5b6129e486828701612962565b925050604084015167ffffffffffffffff811115612a0557612a04611738565b5b612a1186828701612962565b9150509250925092565b7f46784552433732314368696c6454756e6e656c3a20414c52454144595f4d415060008201527f5045440000000000000000000000000000000000000000000000000000000000602082015250565b6000612a77602383611bc6565b9150612a8282612a1b565b604082019050919050565b60006020820190508181036000830152612aa681612a6a565b9050919050565b6000612ab982846122c8565b60148201915081905092915050565b600081905092915050565b6000612ade82611bbb565b612ae88185612ac8565b9350612af8818560208601611bd7565b80840191505092915050565b6000612b108285612ad3565b9150612b1c8284612ad3565b91508190509392505050565b6000608082019050612b3d6000830187611821565b612b4a6020830186611821565b8181036040830152612b5c8185611c0a565b90508181036060830152612b708184611c0a565b905095945050505050565b7f437265617465323a204661696c6564206f6e206d696e696d616c206465706c6f60008201527f7900000000000000000000000000000000000000000000000000000000000000602082015250565b6000612bd7602183611bc6565b9150612be282612b7b565b604082019050919050565b60006020820190508181036000830152612c0681612bca565b905091905056fea26469706673582212205ccf3d40797c67dc2e630e46cc0ef4370070474e7e6eee712d0a58471f0f8ec064736f6c63430008090033",
  "linkReferences": {},
  "deployedLinkReferences": {}
}