{
  "_format": "hh-sol-artifact-1",
  "contractName": "FxERC721ChildTunnel",
  "sourceName": "@maticnetwork/fx-portal/contracts/examples/erc721-transfer/FxERC721ChildTunnel.sol",
  "abi": [
    {
      "inputs": [
        {
          "internalType": "address",
          "name": "_fxChild",
          "type": "address"
        },
        {
          "internalType": "address",
          "name": "_tokenTemplate",
          "type": "address"
        }
      ],
      "stateMutability": "nonpayable",
      "type": "constructor"
    },
    {
      "anonymous": false,
      "inputs": [
        {
          "indexed": false,
          "internalType": "bytes",
          "name": "message",
          "type": "bytes"
        }
      ],
      "name": "MessageSent",
      "type": "event"
    },
    {
      "anonymous": false,
      "inputs": [
        {
          "indexed": true,
          "internalType": "address",
          "name": "rootToken",
          "type": "address"
        },
        {
          "indexed": true,
          "internalType": "address",
          "name": "childToken",
          "type": "address"
        }
      ],
      "name": "TokenMapped",
      "type": "event"
    },
    {
      "inputs": [],
      "name": "DEPOSIT",
      "outputs": [
        {
          "internalType": "bytes32",
          "name": "",
          "type": "bytes32"
        }
      ],
      "stateMutability": "view",
      "type": "function"
    },
    {
      "inputs": [],
      "name": "MAP_TOKEN",
      "outputs": [
        {
          "internalType": "bytes32",
          "name": "",
          "type": "bytes32"
        }
      ],
      "stateMutability": "view",
      "type": "function"
    },
    {
      "inputs": [],
      "name": "PREFIX_SYMBOL",
      "outputs": [
        {
          "internalType": "string",
          "name": "",
          "type": "string"
        }
      ],
      "stateMutability": "view",
      "type": "function"
    },
    {
      "inputs": [],
      "name": "SUFFIX_NAME",
      "outputs": [
        {
          "internalType": "string",
          "name": "",
          "type": "string"
        }
      ],
      "stateMutability": "view",
      "type": "function"
    },
    {
      "inputs": [
        {
          "internalType": "bytes32",
          "name": "salt",
          "type": "bytes32"
        },
        {
          "internalType": "bytes32",
          "name": "bytecodeHash",
          "type": "bytes32"
        },
        {
          "internalType": "address",
          "name": "deployer",
          "type": "address"
        }
      ],
      "name": "computedCreate2Address",
      "outputs": [
        {
          "internalType": "address",
          "name": "",
          "type": "address"
        }
      ],
      "stateMutability": "pure",
      "type": "function"
    },
    {
      "inputs": [],
      "name": "fxChild",
      "outputs": [
        {
          "internalType": "address",
          "name": "",
          "type": "address"
        }
      ],
      "stateMutability": "view",
      "type": "function"
    },
    {
      "inputs": [],
      "name": "fxRootTunnel",
      "outputs": [
        {
          "internalType": "address",
          "name": "",
          "type": "address"
        }
      ],
      "stateMutability": "view",
      "type": "function"
    },
    {
      "inputs": [
        {
          "internalType": "address",
          "name": "",
          "type": "address"
        },
        {
          "internalType": "address",
          "name": "",
          "type": "address"
        },
        {
          "internalType": "uint256",
          "name": "",
          "type": "uint256"
        },
        {
          "internalType": "bytes",
          "name": "",
          "type": "bytes"
        }
      ],
      "name": "onERC721Received",
      "outputs": [
        {
          "internalType": "bytes4",
          "name": "",
          "type": "bytes4"
        }
      ],
      "stateMutability": "pure",
      "type": "function"
    },
    {
      "inputs": [
        {
          "internalType": "uint256",
          "name": "stateId",
          "type": "uint256"
        },
        {
          "internalType": "address",
          "name": "rootMessageSender",
          "type": "address"
        },
        {
          "internalType": "bytes",
          "name": "data",
          "type": "bytes"
        }
      ],
      "name": "processMessageFromRoot",
      "outputs": [],
      "stateMutability": "nonpayable",
      "type": "function"
    },
    {
      "inputs": [
        {
          "internalType": "address",
          "name": "",
          "type": "address"
        }
      ],
      "name": "rootToChildToken",
      "outputs": [
        {
          "internalType": "address",
          "name": "",
          "type": "address"
        }
      ],
      "stateMutability": "view",
      "type": "function"
    },
    {
      "inputs": [
        {
          "internalType": "address",
          "name": "_fxRootTunnel",
          "type": "address"
        }
      ],
      "name": "setFxRootTunnel",
      "outputs": [],
      "stateMutability": "nonpayable",
      "type": "function"
    },
    {
      "inputs": [],
      "name": "tokenTemplate",
      "outputs": [
        {
          "internalType": "address",
          "name": "",
          "type": "address"
        }
      ],
      "stateMutability": "view",
      "type": "function"
    },
    {
      "inputs": [
        {
          "internalType": "address",
          "name": "childToken",
          "type": "address"
        },
        {
          "internalType": "uint256",
          "name": "tokenId",
          "type": "uint256"
        },
        {
          "internalType": "bytes",
          "name": "data",
          "type": "bytes"
        }
      ],
      "name": "withdraw",
      "outputs": [],
      "stateMutability": "nonpayable",
      "type": "function"
    },
    {
      "inputs": [
        {
          "internalType": "address",
          "name": "childToken",
          "type": "address"
        },
        {
          "internalType": "address",
          "name": "receiver",
          "type": "address"
        },
        {
          "internalType": "uint256",
          "name": "tokenId",
          "type": "uint256"
        },
        {
          "internalType": "bytes",
          "name": "data",
          "type": "bytes"
        }
      ],
      "name": "withdrawTo",
      "outputs": [],
      "stateMutability": "nonpayable",
      "type": "function"
    }
  ],
  "bytecode": "0x60806040523480156200001157600080fd5b506040516200237638038062002376833981810160405281019062000037919062000198565b81806000806101000a81548173ffffffffffffffffffffffffffffffffffffffff021916908373ffffffffffffffffffffffffffffffffffffffff1602179055505080600360006101000a81548173ffffffffffffffffffffffffffffffffffffffff021916908373ffffffffffffffffffffffffffffffffffffffff160217905550620000cb816200011560201b60201c565b6200010d576040517f08c379a0000000000000000000000000000000000000000000000000000000008152600401620001049062000240565b60405180910390fd5b505062000262565b600080823b905060008163ffffffff1611915050919050565b600080fd5b600073ffffffffffffffffffffffffffffffffffffffff82169050919050565b6000620001608262000133565b9050919050565b620001728162000153565b81146200017e57600080fd5b50565b600081519050620001928162000167565b92915050565b60008060408385031215620001b257620001b16200012e565b5b6000620001c28582860162000181565b9250506020620001d58582860162000181565b9150509250929050565b600082825260208201905092915050565b7f546f6b656e2074656d706c617465206973206e6f7420636f6e74726163740000600082015250565b600062000228601e83620001df565b91506200023582620001f0565b602082019050919050565b600060208201905081810360008301526200025b8162000219565b9050919050565b61210480620002726000396000f3fe608060405234801561001057600080fd5b50600436106100ea5760003560e01c80637f1e9cb01161008c578063920f96cc11610066578063920f96cc1461023b5780639a7c4b7114610257578063d81c8e5214610273578063ea60c7c414610291576100ea565b80637f1e9cb0146101e3578063886a69ba14610201578063888370941461021f576100ea565b80633740d5a0116100c85780633740d5a01461015957806339c6c9e014610177578063450d11f0146101955780637337957f146101b3576100ea565b80630814d3dd146100ef578063150b7a021461010d57806331f092651461013d575b600080fd5b6100f76102c1565b6040516101049190611087565b60405180910390f35b6101276004803603810190610122919061117d565b6102e7565b6040516101349190611240565b60405180910390f35b6101576004803603810190610152919061139c565b6102fc565b005b61016161030d565b60405161016e9190611493565b60405180910390f35b61017f610346565b60405161018c9190611493565b60405180910390f35b61019d61037f565b6040516101aa9190611087565b60405180910390f35b6101cd60048036038101906101c891906114eb565b6103a3565b6040516101da9190611087565b60405180910390f35b6101eb6103e7565b6040516101f89190611087565b60405180910390f35b61020961040d565b604051610216919061154d565b60405180910390f35b61023960048036038101906102349190611568565b610431565b005b61025560048036038101906102509190611595565b610506565b005b610271600480360381019061026c9190611618565b610518565b005b61027b6105fb565b604051610288919061154d565b60405180910390f35b6102ab60048036038101906102a69190611568565b61061f565b6040516102b89190611087565b60405180910390f35b600360009054906101000a900473ffffffffffffffffffffffffffffffffffffffff1681565b600063150b7a0260e01b905095945050505050565b61030883338484610652565b505050565b6040518060400160405280600281526020017f667800000000000000000000000000000000000000000000000000000000000081525081565b6040518060400160405280600b81526020017f202846584552433732312900000000000000000000000000000000000000000081525081565b60008054906101000a900473ffffffffffffffffffffffffffffffffffffffff1681565b60008060ff60f81b8386866040516020016103c19493929190611742565b6040516020818303038152906040528051906020012090508060001c9150509392505050565b600160009054906101000a900473ffffffffffffffffffffffffffffffffffffffff1681565b7f2cef46a936bdc5b7e6e8c71aa04560c41cf7d88bb26901a7e7f4936ff02accad81565b600073ffffffffffffffffffffffffffffffffffffffff16600160009054906101000a900473ffffffffffffffffffffffffffffffffffffffff1673ffffffffffffffffffffffffffffffffffffffff16146104c2576040517f08c379a00000000000000000000000000000000000000000000000000000000081526004016104b990611802565b60405180910390fd5b80600160006101000a81548173ffffffffffffffffffffffffffffffffffffffff021916908373ffffffffffffffffffffffffffffffffffffffff16021790555050565b61051284848484610652565b50505050565b60008054906101000a900473ffffffffffffffffffffffffffffffffffffffff1673ffffffffffffffffffffffffffffffffffffffff163373ffffffffffffffffffffffffffffffffffffffff16146105a6576040517f08c379a000000000000000000000000000000000000000000000000000000000815260040161059d90611894565b60405180910390fd5b6105f5848484848080601f016020809104026020016040519081016040528093929190818152602001838380828437600081840152601f19601f8201169050808301925050505050505061097d565b50505050565b7f87a7811f4bfedea3d341ad165680ae306b01aaeacc205d227629cf157dd9f82181565b60026020528060005260406000206000915054906101000a900473ffffffffffffffffffffffffffffffffffffffff1681565b600084905060008173ffffffffffffffffffffffffffffffffffffffff16630a8a49146040518163ffffffff1660e01b8152600401602060405180830381600087803b1580156106a157600080fd5b505af11580156106b5573d6000803e3d6000fd5b505050506040513d601f19601f820116820180604052508101906106d991906118c9565b9050600073ffffffffffffffffffffffffffffffffffffffff168673ffffffffffffffffffffffffffffffffffffffff16141580156107455750600073ffffffffffffffffffffffffffffffffffffffff168173ffffffffffffffffffffffffffffffffffffffff1614155b80156107db5750600260008273ffffffffffffffffffffffffffffffffffffffff1673ffffffffffffffffffffffffffffffffffffffff16815260200190815260200160002060009054906101000a900473ffffffffffffffffffffffffffffffffffffffff1673ffffffffffffffffffffffffffffffffffffffff168673ffffffffffffffffffffffffffffffffffffffff16145b61081a576040517f08c379a000000000000000000000000000000000000000000000000000000000815260040161081190611968565b60405180910390fd5b8173ffffffffffffffffffffffffffffffffffffffff16636352211e856040518263ffffffff1660e01b81526004016108539190611997565b60206040518083038186803b15801561086b57600080fd5b505afa15801561087f573d6000803e3d6000fd5b505050506040513d601f19601f820116820180604052508101906108a391906118c9565b73ffffffffffffffffffffffffffffffffffffffff163373ffffffffffffffffffffffffffffffffffffffff16146108da57600080fd5b8173ffffffffffffffffffffffffffffffffffffffff166342966c68856040518263ffffffff1660e01b81526004016109139190611997565b600060405180830381600087803b15801561092d57600080fd5b505af1158015610941573d6000803e3d6000fd5b505050506109758187878787604051602001610961959493929190611a07565b604051602081830303815290604052610ada565b505050505050565b81600160009054906101000a900473ffffffffffffffffffffffffffffffffffffffff1673ffffffffffffffffffffffffffffffffffffffff168173ffffffffffffffffffffffffffffffffffffffff1614610a0e576040517f08c379a0000000000000000000000000000000000000000000000000000000008152600401610a0590611ad3565b60405180910390fd5b60008083806020019051810190610a259190611b78565b915091507f87a7811f4bfedea3d341ad165680ae306b01aaeacc205d227629cf157dd9f821821415610a5f57610a5a81610b14565b610ad2565b7f2cef46a936bdc5b7e6e8c71aa04560c41cf7d88bb26901a7e7f4936ff02accad821415610a9657610a9081610c1c565b50610ad1565b6040517f08c379a0000000000000000000000000000000000000000000000000000000008152600401610ac890611c46565b60405180910390fd5b5b505050505050565b7f8c5261668696ce22758910d05bab8f186d6eb247ceac2af2e82c7dc17669b03681604051610b099190611c66565b60405180910390a150565b600080600080600085806020019051810190610b309190611cdb565b945094509450945094506000600260008773ffffffffffffffffffffffffffffffffffffffff1673ffffffffffffffffffffffffffffffffffffffff16815260200190815260200160002060009054906101000a900473ffffffffffffffffffffffffffffffffffffffff16905060008190508073ffffffffffffffffffffffffffffffffffffffff166394d008ef8686866040518463ffffffff1660e01b8152600401610be093929190611d72565b600060405180830381600087803b158015610bfa57600080fd5b505af1158015610c0e573d6000803e3d6000fd5b505050505050505050505050565b60008060008084806020019051810190610c369190611e51565b9250925092506000600260008573ffffffffffffffffffffffffffffffffffffffff1673ffffffffffffffffffffffffffffffffffffffff16815260200190815260200160002060009054906101000a900473ffffffffffffffffffffffffffffffffffffffff169050600073ffffffffffffffffffffffffffffffffffffffff168173ffffffffffffffffffffffffffffffffffffffff1614610d0f576040517f08c379a0000000000000000000000000000000000000000000000000000000008152600401610d0690611f4e565b60405180910390fd5b600084604051602001610d229190611f6e565b604051602081830303815290604052805190602001209050610d6681600360009054906101000a900473ffffffffffffffffffffffffffffffffffffffff16610f6a565b91508173ffffffffffffffffffffffffffffffffffffffff16632016a0d23087876040518060400160405280600b81526020017f2028465845524337323129000000000000000000000000000000000000000000815250604051602001610dce929190611fc5565b6040516020818303038152906040526040518060400160405280600281526020017f667800000000000000000000000000000000000000000000000000000000000081525088604051602001610e25929190611fc5565b6040516020818303038152906040526040518563ffffffff1660e01b8152600401610e539493929190611fe9565b600060405180830381600087803b158015610e6d57600080fd5b505af1158015610e81573d6000803e3d6000fd5b5050505081600260008773ffffffffffffffffffffffffffffffffffffffff1673ffffffffffffffffffffffffffffffffffffffff16815260200190815260200160002060006101000a81548173ffffffffffffffffffffffffffffffffffffffff021916908373ffffffffffffffffffffffffffffffffffffffff1602179055508173ffffffffffffffffffffffffffffffffffffffff168573ffffffffffffffffffffffffffffffffffffffff167f85920d35e6c72f6b2affffa04298b0cecfeba86e4a9f407df661f1cb8ab5e61760405160405180910390a38195505050505050919050565b6000808260601b90506040517f3d602d80600a3d3981f3363d3d373d3d3d363d7300000000000000000000000081528160148201527f5af43d82803e903d91602b57fd5bf300000000000000000000000000000000006028820152846037826000f5925050600073ffffffffffffffffffffffffffffffffffffffff168273ffffffffffffffffffffffffffffffffffffffff16141561103f576040517f08c379a0000000000000000000000000000000000000000000000000000000008152600401611036906120ae565b60405180910390fd5b5092915050565b600073ffffffffffffffffffffffffffffffffffffffff82169050919050565b600061107182611046565b9050919050565b61108181611066565b82525050565b600060208201905061109c6000830184611078565b92915050565b6000604051905090565b600080fd5b600080fd5b6110bf81611066565b81146110ca57600080fd5b50565b6000813590506110dc816110b6565b92915050565b6000819050919050565b6110f5816110e2565b811461110057600080fd5b50565b600081359050611112816110ec565b92915050565b600080fd5b600080fd5b600080fd5b60008083601f84011261113d5761113c611118565b5b8235905067ffffffffffffffff81111561115a5761115961111d565b5b60208301915083600182028301111561117657611175611122565b5b9250929050565b600080600080600060808688031215611199576111986110ac565b5b60006111a7888289016110cd565b95505060206111b8888289016110cd565b94505060406111c988828901611103565b935050606086013567ffffffffffffffff8111156111ea576111e96110b1565b5b6111f688828901611127565b92509250509295509295909350565b60007fffffffff0000000000000000000000000000000000000000000000000000000082169050919050565b61123a81611205565b82525050565b60006020820190506112556000830184611231565b92915050565b600080fd5b6000601f19601f8301169050919050565b7f4e487b7100000000000000000000000000000000000000000000000000000000600052604160045260246000fd5b6112a982611260565b810181811067ffffffffffffffff821117156112c8576112c7611271565b5b80604052505050565b60006112db6110a2565b90506112e782826112a0565b919050565b600067ffffffffffffffff82111561130757611306611271565b5b61131082611260565b9050602081019050919050565b82818337600083830152505050565b600061133f61133a846112ec565b6112d1565b90508281526020810184848401111561135b5761135a61125b565b5b61136684828561131d565b509392505050565b600082601f83011261138357611382611118565b5b813561139384826020860161132c565b91505092915050565b6000806000606084860312156113b5576113b46110ac565b5b60006113c3868287016110cd565b93505060206113d486828701611103565b925050604084013567ffffffffffffffff8111156113f5576113f46110b1565b5b6114018682870161136e565b9150509250925092565b600081519050919050565b600082825260208201905092915050565b60005b8381101561144557808201518184015260208101905061142a565b83811115611454576000848401525b50505050565b60006114658261140b565b61146f8185611416565b935061147f818560208601611427565b61148881611260565b840191505092915050565b600060208201905081810360008301526114ad818461145a565b905092915050565b6000819050919050565b6114c8816114b5565b81146114d357600080fd5b50565b6000813590506114e5816114bf565b92915050565b600080600060608486031215611504576115036110ac565b5b6000611512868287016114d6565b9350506020611523868287016114d6565b9250506040611534868287016110cd565b9150509250925092565b611547816114b5565b82525050565b6000602082019050611562600083018461153e565b92915050565b60006020828403121561157e5761157d6110ac565b5b600061158c848285016110cd565b91505092915050565b600080600080608085870312156115af576115ae6110ac565b5b60006115bd878288016110cd565b94505060206115ce878288016110cd565b93505060406115df87828801611103565b925050606085013567ffffffffffffffff811115611600576115ff6110b1565b5b61160c8782880161136e565b91505092959194509250565b60008060008060608587031215611632576116316110ac565b5b600061164087828801611103565b9450506020611651878288016110cd565b935050604085013567ffffffffffffffff811115611672576116716110b1565b5b61167e87828801611127565b925092505092959194509250565b60007fff0000000000000000000000000000000000000000000000000000000000000082169050919050565b6000819050919050565b6116d36116ce8261168c565b6116b8565b82525050565b60008160601b9050919050565b60006116f1826116d9565b9050919050565b6000611703826116e6565b9050919050565b61171b61171682611066565b6116f8565b82525050565b6000819050919050565b61173c611737826114b5565b611721565b82525050565b600061174e82876116c2565b60018201915061175e828661170a565b60148201915061176e828561172b565b60208201915061177e828461172b565b60208201915081905095945050505050565b7f4678426173654368696c6454756e6e656c3a20524f4f545f54554e4e454c5f4160008201527f4c52454144595f53455400000000000000000000000000000000000000000000602082015250565b60006117ec602a83611416565b91506117f782611790565b604082019050919050565b6000602082019050818103600083015261181b816117df565b9050919050565b7f4678426173654368696c6454756e6e656c3a20494e56414c49445f53454e444560008201527f5200000000000000000000000000000000000000000000000000000000000000602082015250565b600061187e602183611416565b915061188982611822565b604082019050919050565b600060208201905081810360008301526118ad81611871565b9050919050565b6000815190506118c3816110b6565b92915050565b6000602082840312156118df576118de6110ac565b5b60006118ed848285016118b4565b91505092915050565b7f46784552433732314368696c6454756e6e656c3a204e4f5f4d41505045445f5460008201527f4f4b454e00000000000000000000000000000000000000000000000000000000602082015250565b6000611952602483611416565b915061195d826118f6565b604082019050919050565b6000602082019050818103600083015261198181611945565b9050919050565b611991816110e2565b82525050565b60006020820190506119ac6000830184611988565b92915050565b600081519050919050565b600082825260208201905092915050565b60006119d9826119b2565b6119e381856119bd565b93506119f3818560208601611427565b6119fc81611260565b840191505092915050565b600060a082019050611a1c6000830188611078565b611a296020830187611078565b611a366040830186611078565b611a436060830185611988565b8181036080830152611a5581846119ce565b90509695505050505050565b7f4678426173654368696c6454756e6e656c3a20494e56414c49445f53454e444560008201527f525f46524f4d5f524f4f54000000000000000000000000000000000000000000602082015250565b6000611abd602b83611416565b9150611ac882611a61565b604082019050919050565b60006020820190508181036000830152611aec81611ab0565b9050919050565b600081519050611b02816114bf565b92915050565b6000611b1b611b16846112ec565b6112d1565b905082815260208101848484011115611b3757611b3661125b565b5b611b42848285611427565b509392505050565b600082601f830112611b5f57611b5e611118565b5b8151611b6f848260208601611b08565b91505092915050565b60008060408385031215611b8f57611b8e6110ac565b5b6000611b9d85828601611af3565b925050602083015167ffffffffffffffff811115611bbe57611bbd6110b1565b5b611bca85828601611b4a565b9150509250929050565b7f46784552433732314368696c6454756e6e656c3a20494e56414c49445f53594e60008201527f435f545950450000000000000000000000000000000000000000000000000000602082015250565b6000611c30602683611416565b9150611c3b82611bd4565b604082019050919050565b60006020820190508181036000830152611c5f81611c23565b9050919050565b60006020820190508181036000830152611c8081846119ce565b905092915050565b6000611c9382611046565b9050919050565b611ca381611c88565b8114611cae57600080fd5b50565b600081519050611cc081611c9a565b92915050565b600081519050611cd5816110ec565b92915050565b600080600080600060a08688031215611cf757611cf66110ac565b5b6000611d0588828901611cb1565b9550506020611d1688828901611cb1565b9450506040611d2788828901611cb1565b9350506060611d3888828901611cc6565b925050608086015167ffffffffffffffff811115611d5957611d586110b1565b5b611d6588828901611b4a565b9150509295509295909350565b6000606082019050611d876000830186611078565b611d946020830185611988565b8181036040830152611da681846119ce565b9050949350505050565b600067ffffffffffffffff821115611dcb57611dca611271565b5b611dd482611260565b9050602081019050919050565b6000611df4611def84611db0565b6112d1565b905082815260208101848484011115611e1057611e0f61125b565b5b611e1b848285611427565b509392505050565b600082601f830112611e3857611e37611118565b5b8151611e48848260208601611de1565b91505092915050565b600080600060608486031215611e6a57611e696110ac565b5b6000611e7886828701611cb1565b935050602084015167ffffffffffffffff811115611e9957611e986110b1565b5b611ea586828701611e23565b925050604084015167ffffffffffffffff811115611ec657611ec56110b1565b5b611ed286828701611e23565b9150509250925092565b7f46784552433732314368696c6454756e6e656c3a20414c52454144595f4d415060008201527f5045440000000000000000000000000000000000000000000000000000000000602082015250565b6000611f38602383611416565b9150611f4382611edc565b604082019050919050565b60006020820190508181036000830152611f6781611f2b565b9050919050565b6000611f7a828461170a565b60148201915081905092915050565b600081905092915050565b6000611f9f8261140b565b611fa98185611f89565b9350611fb9818560208601611427565b80840191505092915050565b6000611fd18285611f94565b9150611fdd8284611f94565b91508190509392505050565b6000608082019050611ffe6000830187611078565b61200b6020830186611078565b818103604083015261201d818561145a565b90508181036060830152612031818461145a565b905095945050505050565b7f437265617465323a204661696c6564206f6e206d696e696d616c206465706c6f60008201527f7900000000000000000000000000000000000000000000000000000000000000602082015250565b6000612098602183611416565b91506120a38261203c565b604082019050919050565b600060208201905081810360008301526120c78161208b565b905091905056fea2646970667358221220b209e076abbed5f27e4f0f0496cdad3eb539e6f3fb535942a5e6ad77c2533f8c64736f6c63430008090033",
  "linkReferences": {},
  "deployedLinkReferences": {}
}