{
  "_format": "hh-sol-artifact-1",
  "contractName": "HashToken",
  "sourceName": "contracts/HashToken.sol",
  "abi": [
    {
      "inputs": [
        {
          "internalType": "string",
          "name": "name",
          "type": "string"
        },
        {
          "internalType": "string",
          "name": "symbol",
          "type": "string"
        },
        {
          "internalType": "uint256",
          "name": "initialSupply",
          "type": "uint256"
        }
      ],
      "stateMutability": "nonpayable",
      "type": "constructor"
    },
    {
      "anonymous": false,
      "inputs": [
        {
          "indexed": true,
          "internalType": "address",
          "name": "owner",
          "type": "address"
        },
        {
          "indexed": true,
          "internalType": "address",
          "name": "approved",
          "type": "address"
        },
        {
          "indexed": true,
          "internalType": "uint256",
          "name": "tokenId",
          "type": "uint256"
        }
      ],
      "name": "Approval",
      "type": "event"
    },
    {
      "anonymous": false,
      "inputs": [
        {
          "indexed": true,
          "internalType": "address",
          "name": "owner",
          "type": "address"
        },
        {
          "indexed": true,
          "internalType": "address",
          "name": "operator",
          "type": "address"
        },
        {
          "indexed": false,
          "internalType": "bool",
          "name": "approved",
          "type": "bool"
        }
      ],
      "name": "ApprovalForAll",
      "type": "event"
    },
    {
      "anonymous": false,
      "inputs": [
        {
          "indexed": false,
          "internalType": "uint256",
          "name": "tokenId",
          "type": "uint256"
        }
      ],
      "name": "TokenMinted",
      "type": "event"
    },
    {
      "anonymous": false,
      "inputs": [
        {
          "indexed": true,
          "internalType": "address",
          "name": "from",
          "type": "address"
        },
        {
          "indexed": true,
          "internalType": "address",
          "name": "to",
          "type": "address"
        },
        {
          "indexed": true,
          "internalType": "uint256",
          "name": "tokenId",
          "type": "uint256"
        }
      ],
      "name": "Transfer",
      "type": "event"
    },
    {
      "inputs": [
        {
          "internalType": "address",
          "name": "to",
          "type": "address"
        },
        {
          "internalType": "uint256",
          "name": "tokenId",
          "type": "uint256"
        }
      ],
      "name": "approve",
      "outputs": [],
      "stateMutability": "nonpayable",
      "type": "function"
    },
    {
      "inputs": [
        {
          "internalType": "address",
          "name": "owner",
          "type": "address"
        }
      ],
      "name": "balanceOf",
      "outputs": [
        {
          "internalType": "uint256",
          "name": "",
          "type": "uint256"
        }
      ],
      "stateMutability": "view",
      "type": "function"
    },
    {
      "inputs": [
        {
          "internalType": "uint256",
          "name": "tokenId",
          "type": "uint256"
        }
      ],
      "name": "burnToken",
      "outputs": [],
      "stateMutability": "nonpayable",
      "type": "function"
    },
    {
      "inputs": [
        {
          "internalType": "uint256",
          "name": "tokenId",
          "type": "uint256"
        }
      ],
      "name": "exists",
      "outputs": [
        {
          "internalType": "bool",
          "name": "",
          "type": "bool"
        }
      ],
      "stateMutability": "view",
      "type": "function"
    },
    {
      "inputs": [
        {
          "internalType": "uint256",
          "name": "tokenId",
          "type": "uint256"
        }
      ],
      "name": "getApproved",
      "outputs": [
        {
          "internalType": "address",
          "name": "",
          "type": "address"
        }
      ],
      "stateMutability": "view",
      "type": "function"
    },
    {
      "inputs": [
        {
          "internalType": "uint256",
          "name": "tokenId",
          "type": "uint256"
        }
      ],
      "name": "getTokenHash",
      "outputs": [
        {
          "internalType": "bytes32",
          "name": "",
          "type": "bytes32"
        }
      ],
      "stateMutability": "view",
      "type": "function"
    },
    {
      "inputs": [
        {
          "internalType": "uint256",
          "name": "",
          "type": "uint256"
        }
      ],
      "name": "hashOfToken",
      "outputs": [
        {
          "internalType": "bytes32",
          "name": "",
          "type": "bytes32"
        }
      ],
      "stateMutability": "view",
      "type": "function"
    },
    {
      "inputs": [
        {
          "internalType": "address",
          "name": "owner",
          "type": "address"
        },
        {
          "internalType": "address",
          "name": "operator",
          "type": "address"
        }
      ],
      "name": "isApprovedForAll",
      "outputs": [
        {
          "internalType": "bool",
          "name": "",
          "type": "bool"
        }
      ],
      "stateMutability": "view",
      "type": "function"
    },
    {
      "inputs": [
        {
          "internalType": "bytes32",
          "name": "hash",
          "type": "bytes32"
        }
      ],
      "name": "mintToken",
      "outputs": [],
      "stateMutability": "nonpayable",
      "type": "function"
    },
    {
      "inputs": [],
      "name": "name",
      "outputs": [
        {
          "internalType": "string",
          "name": "",
          "type": "string"
        }
      ],
      "stateMutability": "view",
      "type": "function"
    },
    {
      "inputs": [],
      "name": "nextTokenId",
      "outputs": [
        {
          "internalType": "uint256",
          "name": "",
          "type": "uint256"
        }
      ],
      "stateMutability": "view",
      "type": "function"
    },
    {
      "inputs": [
        {
          "internalType": "uint256",
          "name": "tokenId",
          "type": "uint256"
        }
      ],
      "name": "ownerOf",
      "outputs": [
        {
          "internalType": "address",
          "name": "",
          "type": "address"
        }
      ],
      "stateMutability": "view",
      "type": "function"
    },
    {
      "inputs": [
        {
          "internalType": "address",
          "name": "from",
          "type": "address"
        },
        {
          "internalType": "address",
          "name": "to",
          "type": "address"
        },
        {
          "internalType": "uint256",
          "name": "tokenId",
          "type": "uint256"
        }
      ],
      "name": "safeTransferFrom",
      "outputs": [],
      "stateMutability": "nonpayable",
      "type": "function"
    },
    {
      "inputs": [
        {
          "internalType": "address",
          "name": "from",
          "type": "address"
        },
        {
          "internalType": "address",
          "name": "to",
          "type": "address"
        },
        {
          "internalType": "uint256",
          "name": "tokenId",
          "type": "uint256"
        },
        {
          "internalType": "bytes",
          "name": "data",
          "type": "bytes"
        }
      ],
      "name": "safeTransferFrom",
      "outputs": [],
      "stateMutability": "nonpayable",
      "type": "function"
    },
    {
      "inputs": [
        {
          "internalType": "address",
          "name": "operator",
          "type": "address"
        },
        {
          "internalType": "bool",
          "name": "approved",
          "type": "bool"
        }
      ],
      "name": "setApprovalForAll",
      "outputs": [],
      "stateMutability": "nonpayable",
      "type": "function"
    },
    {
      "inputs": [
        {
          "internalType": "bytes4",
          "name": "interfaceId",
          "type": "bytes4"
        }
      ],
      "name": "supportsInterface",
      "outputs": [
        {
          "internalType": "bool",
          "name": "",
          "type": "bool"
        }
      ],
      "stateMutability": "view",
      "type": "function"
    },
    {
      "inputs": [],
      "name": "symbol",
      "outputs": [
        {
          "internalType": "string",
          "name": "",
          "type": "string"
        }
      ],
      "stateMutability": "view",
      "type": "function"
    },
    {
      "inputs": [
        {
          "internalType": "uint256",
          "name": "tokenId",
          "type": "uint256"
        }
      ],
      "name": "tokenURI",
      "outputs": [
        {
          "internalType": "string",
          "name": "",
          "type": "string"
        }
      ],
      "stateMutability": "view",
      "type": "function"
    },
    {
      "inputs": [
        {
          "internalType": "address",
          "name": "from",
          "type": "address"
        },
        {
          "internalType": "address",
          "name": "to",
          "type": "address"
        },
        {
          "internalType": "uint256",
          "name": "tokenId",
          "type": "uint256"
        }
      ],
      "name": "transferFrom",
      "outputs": [],
      "stateMutability": "nonpayable",
      "type": "function"
    },
    {
      "inputs": [
        {
          "internalType": "address",
          "name": "from",
          "type": "address"
        },
        {
          "internalType": "address",
          "name": "to",
          "type": "address"
        },
        {
          "internalType": "uint256",
          "name": "tokenId",
          "type": "uint256"
        }
      ],
      "name": "transferToken",
      "outputs": [],
      "stateMutability": "nonpayable",
      "type": "function"
    }
  ],
  "bytecode": "0x608060405260006006553480156200001657600080fd5b506040516200348d3803806200348d83398181016040528101906200003c9190620006af565b828281600090805190602001906200005692919062000427565b5080600190805190602001906200006f92919062000427565b50505062000083816200008c60201b60201c565b505050620009ab565b60005b81811015620000c257620000ac6000801b620000c660201b60201c565b8080620000b99062000778565b9150506200008f565b5050565b8060076000600654815260200190815260200160002081905550620000f4336006546200014e60201b60201c565b7ff00d28232b285f24f2e38415deb2ceb31069e70d4505838b3911b4f02058502e600654604051620001279190620007d7565b60405180910390a1600160066000828254620001449190620007f4565b9250508190555050565b600073ffffffffffffffffffffffffffffffffffffffff168273ffffffffffffffffffffffffffffffffffffffff161415620001c1576040517f08c379a0000000000000000000000000000000000000000000000000000000008152600401620001b890620008b2565b60405180910390fd5b620001d2816200039560201b60201c565b1562000215576040517f08c379a00000000000000000000000000000000000000000000000000000000081526004016200020c9062000924565b60405180910390fd5b6200022b600083836001620003de60201b60201c565b6200023c816200039560201b60201c565b156200027f576040517f08c379a0000000000000000000000000000000000000000000000000000000008152600401620002769062000924565b60405180910390fd5b6001600360008473ffffffffffffffffffffffffffffffffffffffff1673ffffffffffffffffffffffffffffffffffffffff16815260200190815260200160002060008282540192505081905550816002600083815260200190815260200160002060006101000a81548173ffffffffffffffffffffffffffffffffffffffff021916908373ffffffffffffffffffffffffffffffffffffffff160217905550808273ffffffffffffffffffffffffffffffffffffffff16600073ffffffffffffffffffffffffffffffffffffffff167fddf252ad1be2c89b69c2b068fc378daa952ba7f163c4a11628f55a4df523b3ef60405160405180910390a462000391600083836001620003e460201b60201c565b5050565b60008073ffffffffffffffffffffffffffffffffffffffff16620003bf83620003ea60201b60201c565b73ffffffffffffffffffffffffffffffffffffffff1614159050919050565b50505050565b50505050565b60006002600083815260200190815260200160002060009054906101000a900473ffffffffffffffffffffffffffffffffffffffff169050919050565b828054620004359062000975565b90600052602060002090601f016020900481019282620004595760008555620004a5565b82601f106200047457805160ff1916838001178555620004a5565b82800160010185558215620004a5579182015b82811115620004a457825182559160200191906001019062000487565b5b509050620004b49190620004b8565b5090565b5b80821115620004d3576000816000905550600101620004b9565b5090565b6000604051905090565b600080fd5b600080fd5b600080fd5b600080fd5b6000601f19601f8301169050919050565b7f4e487b7100000000000000000000000000000000000000000000000000000000600052604160045260246000fd5b6200054082620004f5565b810181811067ffffffffffffffff8211171562000562576200056162000506565b5b80604052505050565b600062000577620004d7565b905062000585828262000535565b919050565b600067ffffffffffffffff821115620005a857620005a762000506565b5b620005b382620004f5565b9050602081019050919050565b60005b83811015620005e0578082015181840152602081019050620005c3565b83811115620005f0576000848401525b50505050565b60006200060d62000607846200058a565b6200056b565b9050828152602081018484840111156200062c576200062b620004f0565b5b62000639848285620005c0565b509392505050565b600082601f830112620006595762000658620004eb565b5b81516200066b848260208601620005f6565b91505092915050565b6000819050919050565b620006898162000674565b81146200069557600080fd5b50565b600081519050620006a9816200067e565b92915050565b600080600060608486031215620006cb57620006ca620004e1565b5b600084015167ffffffffffffffff811115620006ec57620006eb620004e6565b5b620006fa8682870162000641565b935050602084015167ffffffffffffffff8111156200071e576200071d620004e6565b5b6200072c8682870162000641565b92505060406200073f8682870162000698565b9150509250925092565b7f4e487b7100000000000000000000000000000000000000000000000000000000600052601160045260246000fd5b6000620007858262000674565b91507fffffffffffffffffffffffffffffffffffffffffffffffffffffffffffffffff821415620007bb57620007ba62000749565b5b600182019050919050565b620007d18162000674565b82525050565b6000602082019050620007ee6000830184620007c6565b92915050565b6000620008018262000674565b91506200080e8362000674565b9250827fffffffffffffffffffffffffffffffffffffffffffffffffffffffffffffffff0382111562000846576200084562000749565b5b828201905092915050565b600082825260208201905092915050565b7f4552433732313a206d696e7420746f20746865207a65726f2061646472657373600082015250565b60006200089a60208362000851565b9150620008a78262000862565b602082019050919050565b60006020820190508181036000830152620008cd816200088b565b9050919050565b7f4552433732313a20746f6b656e20616c7265616479206d696e74656400000000600082015250565b60006200090c601c8362000851565b91506200091982620008d4565b602082019050919050565b600060208201905081810360008301526200093f81620008fd565b9050919050565b7f4e487b7100000000000000000000000000000000000000000000000000000000600052602260045260246000fd5b600060028204905060018216806200098e57607f821691505b60208210811415620009a557620009a462000946565b5b50919050565b612ad280620009bb6000396000f3fe608060405234801561001057600080fd5b506004361061012c5760003560e01c806375794a3c116100ad578063a521ad7c11610071578063a521ad7c14610367578063b88d4fde14610383578063c87b56dd1461039f578063e985e9c5146103cf578063f5537ede146103ff5761012c565b806375794a3c146102c35780637b47ec1a146102e157806395d89b41146102fd578063a0cc0dc51461031b578063a22cb4651461034b5761012c565b806342842e0e116100f457806342842e0e146101e75780634f558e79146102035780636352211e146102335780636f7e46511461026357806370a08231146102935761012c565b806301ffc9a71461013157806306fdde0314610161578063081812fc1461017f578063095ea7b3146101af57806323b872dd146101cb575b600080fd5b61014b60048036038101906101469190611bb4565b61041b565b6040516101589190611bfc565b60405180910390f35b6101696104fd565b6040516101769190611cb0565b60405180910390f35b61019960048036038101906101949190611d08565b61058f565b6040516101a69190611d76565b60405180910390f35b6101c960048036038101906101c49190611dbd565b6105d5565b005b6101e560048036038101906101e09190611dfd565b6106ed565b005b61020160048036038101906101fc9190611dfd565b61074d565b005b61021d60048036038101906102189190611d08565b61076d565b60405161022a9190611bfc565b60405180910390f35b61024d60048036038101906102489190611d08565b61077f565b60405161025a9190611d76565b60405180910390f35b61027d60048036038101906102789190611d08565b610806565b60405161028a9190611e69565b60405180910390f35b6102ad60048036038101906102a89190611e84565b61081e565b6040516102ba9190611ec0565b60405180910390f35b6102cb6108d6565b6040516102d89190611ec0565b60405180910390f35b6102fb60048036038101906102f69190611d08565b6108dc565b005b610305610948565b6040516103129190611cb0565b60405180910390f35b61033560048036038101906103309190611d08565b6109da565b6040516103429190611e69565b60405180910390f35b61036560048036038101906103609190611f07565b610a3f565b005b610381600480360381019061037c9190611f73565b610a55565b005b61039d600480360381019061039891906120d5565b610ad1565b005b6103b960048036038101906103b49190611d08565b610b33565b6040516103c69190611cb0565b60405180910390f35b6103e960048036038101906103e49190612158565b610b9b565b6040516103f69190611bfc565b60405180910390f35b61041960048036038101906104149190611dfd565b610c2f565b005b60007f80ac58cd000000000000000000000000000000000000000000000000000000007bffffffffffffffffffffffffffffffffffffffffffffffffffffffff1916827bffffffffffffffffffffffffffffffffffffffffffffffffffffffff191614806104e657507f5b5e139f000000000000000000000000000000000000000000000000000000007bffffffffffffffffffffffffffffffffffffffffffffffffffffffff1916827bffffffffffffffffffffffffffffffffffffffffffffffffffffffff1916145b806104f657506104f582610c88565b5b9050919050565b60606000805461050c906121c7565b80601f0160208091040260200160405190810160405280929190818152602001828054610538906121c7565b80156105855780601f1061055a57610100808354040283529160200191610585565b820191906000526020600020905b81548152906001019060200180831161056857829003601f168201915b5050505050905090565b600061059a82610cf2565b6004600083815260200190815260200160002060009054906101000a900473ffffffffffffffffffffffffffffffffffffffff169050919050565b60006105e08261077f565b90508073ffffffffffffffffffffffffffffffffffffffff168373ffffffffffffffffffffffffffffffffffffffff161415610651576040517f08c379a00000000000000000000000000000000000000000000000000000000081526004016106489061226b565b60405180910390fd5b8073ffffffffffffffffffffffffffffffffffffffff16610670610d3d565b73ffffffffffffffffffffffffffffffffffffffff16148061069f575061069e81610699610d3d565b610b9b565b5b6106de576040517f08c379a00000000000000000000000000000000000000000000000000000000081526004016106d5906122fd565b60405180910390fd5b6106e88383610d45565b505050565b6106fe6106f8610d3d565b82610dfe565b61073d576040517f08c379a00000000000000000000000000000000000000000000000000000000081526004016107349061238f565b60405180910390fd5b610748838383610e93565b505050565b61076883838360405180602001604052806000815250610ad1565b505050565b60006107788261118d565b9050919050565b60008061078b836111ce565b9050600073ffffffffffffffffffffffffffffffffffffffff168173ffffffffffffffffffffffffffffffffffffffff1614156107fd576040517f08c379a00000000000000000000000000000000000000000000000000000000081526004016107f4906123fb565b60405180910390fd5b80915050919050565b60076020528060005260406000206000915090505481565b60008073ffffffffffffffffffffffffffffffffffffffff168273ffffffffffffffffffffffffffffffffffffffff16141561088f576040517f08c379a00000000000000000000000000000000000000000000000000000000081526004016108869061248d565b60405180910390fd5b600360008373ffffffffffffffffffffffffffffffffffffffff1673ffffffffffffffffffffffffffffffffffffffff168152602001908152602001600020549050919050565b60065481565b6108e63382610dfe565b610925576040517f08c379a000000000000000000000000000000000000000000000000000000000815260040161091c906124f9565b60405180910390fd5b60076000828152602001908152602001600020600090556109458161120b565b50565b606060018054610957906121c7565b80601f0160208091040260200160405190810160405280929190818152602001828054610983906121c7565b80156109d05780601f106109a5576101008083540402835291602001916109d0565b820191906000526020600020905b8154815290600101906020018083116109b357829003601f168201915b5050505050905090565b60006109e58261118d565b610a24576040517f08c379a0000000000000000000000000000000000000000000000000000000008152600401610a1b9061258b565b60405180910390fd5b60076000838152602001908152602001600020549050919050565b610a51610a4a610d3d565b8383611359565b5050565b8060076000600654815260200190815260200160002081905550610a7b336006546114c6565b7ff00d28232b285f24f2e38415deb2ceb31069e70d4505838b3911b4f02058502e600654604051610aac9190611ec0565b60405180910390a1600160066000828254610ac791906125da565b9250508190555050565b610ae2610adc610d3d565b83610dfe565b610b21576040517f08c379a0000000000000000000000000000000000000000000000000000000008152600401610b189061238f565b60405180910390fd5b610b2d848484846116e4565b50505050565b6060610b3e82610cf2565b6000610b48611740565b90506000815111610b685760405180602001604052806000815250610b93565b80610b7284611757565b604051602001610b8392919061266c565b6040516020818303038152906040525b915050919050565b6000600560008473ffffffffffffffffffffffffffffffffffffffff1673ffffffffffffffffffffffffffffffffffffffff16815260200190815260200160002060008373ffffffffffffffffffffffffffffffffffffffff1673ffffffffffffffffffffffffffffffffffffffff16815260200190815260200160002060009054906101000a900460ff16905092915050565b610c393382610dfe565b610c78576040517f08c379a0000000000000000000000000000000000000000000000000000000008152600401610c6f906124f9565b60405180910390fd5b610c8383838361074d565b505050565b60007f01ffc9a7000000000000000000000000000000000000000000000000000000007bffffffffffffffffffffffffffffffffffffffffffffffffffffffff1916827bffffffffffffffffffffffffffffffffffffffffffffffffffffffff1916149050919050565b610cfb8161118d565b610d3a576040517f08c379a0000000000000000000000000000000000000000000000000000000008152600401610d31906123fb565b60405180910390fd5b50565b600033905090565b816004600083815260200190815260200160002060006101000a81548173ffffffffffffffffffffffffffffffffffffffff021916908373ffffffffffffffffffffffffffffffffffffffff160217905550808273ffffffffffffffffffffffffffffffffffffffff16610db88361077f565b73ffffffffffffffffffffffffffffffffffffffff167f8c5be1e5ebec7d5bd14f71427d1e84f3dd0314c0f7b2291e5b200ac8c7c3b92560405160405180910390a45050565b600080610e0a8361077f565b90508073ffffffffffffffffffffffffffffffffffffffff168473ffffffffffffffffffffffffffffffffffffffff161480610e4c5750610e4b8185610b9b565b5b80610e8a57508373ffffffffffffffffffffffffffffffffffffffff16610e728461058f565b73ffffffffffffffffffffffffffffffffffffffff16145b91505092915050565b8273ffffffffffffffffffffffffffffffffffffffff16610eb38261077f565b73ffffffffffffffffffffffffffffffffffffffff1614610f09576040517f08c379a0000000000000000000000000000000000000000000000000000000008152600401610f0090612702565b60405180910390fd5b600073ffffffffffffffffffffffffffffffffffffffff168273ffffffffffffffffffffffffffffffffffffffff161415610f79576040517f08c379a0000000000000000000000000000000000000000000000000000000008152600401610f7090612794565b60405180910390fd5b610f86838383600161182f565b8273ffffffffffffffffffffffffffffffffffffffff16610fa68261077f565b73ffffffffffffffffffffffffffffffffffffffff1614610ffc576040517f08c379a0000000000000000000000000000000000000000000000000000000008152600401610ff390612702565b60405180910390fd5b6004600082815260200190815260200160002060006101000a81549073ffffffffffffffffffffffffffffffffffffffff02191690556001600360008573ffffffffffffffffffffffffffffffffffffffff1673ffffffffffffffffffffffffffffffffffffffff168152602001908152602001600020600082825403925050819055506001600360008473ffffffffffffffffffffffffffffffffffffffff1673ffffffffffffffffffffffffffffffffffffffff16815260200190815260200160002060008282540192505081905550816002600083815260200190815260200160002060006101000a81548173ffffffffffffffffffffffffffffffffffffffff021916908373ffffffffffffffffffffffffffffffffffffffff160217905550808273ffffffffffffffffffffffffffffffffffffffff168473ffffffffffffffffffffffffffffffffffffffff167fddf252ad1be2c89b69c2b068fc378daa952ba7f163c4a11628f55a4df523b3ef60405160405180910390a46111888383836001611835565b505050565b60008073ffffffffffffffffffffffffffffffffffffffff166111af836111ce565b73ffffffffffffffffffffffffffffffffffffffff1614159050919050565b60006002600083815260200190815260200160002060009054906101000a900473ffffffffffffffffffffffffffffffffffffffff169050919050565b60006112168261077f565b905061122681600084600161182f565b61122f8261077f565b90506004600083815260200190815260200160002060006101000a81549073ffffffffffffffffffffffffffffffffffffffff02191690556001600360008373ffffffffffffffffffffffffffffffffffffffff1673ffffffffffffffffffffffffffffffffffffffff168152602001908152602001600020600082825403925050819055506002600083815260200190815260200160002060006101000a81549073ffffffffffffffffffffffffffffffffffffffff021916905581600073ffffffffffffffffffffffffffffffffffffffff168273ffffffffffffffffffffffffffffffffffffffff167fddf252ad1be2c89b69c2b068fc378daa952ba7f163c4a11628f55a4df523b3ef60405160405180910390a4611355816000846001611835565b5050565b8173ffffffffffffffffffffffffffffffffffffffff168373ffffffffffffffffffffffffffffffffffffffff1614156113c8576040517f08c379a00000000000000000000000000000000000000000000000000000000081526004016113bf90612800565b60405180910390fd5b80600560008573ffffffffffffffffffffffffffffffffffffffff1673ffffffffffffffffffffffffffffffffffffffff16815260200190815260200160002060008473ffffffffffffffffffffffffffffffffffffffff1673ffffffffffffffffffffffffffffffffffffffff16815260200190815260200160002060006101000a81548160ff0219169083151502179055508173ffffffffffffffffffffffffffffffffffffffff168373ffffffffffffffffffffffffffffffffffffffff167f17307eab39ab6107e8899845ad3d59bd9653f200f220920489ca2b5937696c31836040516114b99190611bfc565b60405180910390a3505050565b600073ffffffffffffffffffffffffffffffffffffffff168273ffffffffffffffffffffffffffffffffffffffff161415611536576040517f08c379a000000000000000000000000000000000000000000000000000000000815260040161152d9061286c565b60405180910390fd5b61153f8161118d565b1561157f576040517f08c379a0000000000000000000000000000000000000000000000000000000008152600401611576906128d8565b60405180910390fd5b61158d60008383600161182f565b6115968161118d565b156115d6576040517f08c379a00000000000000000000000000000000000000000000000000000000081526004016115cd906128d8565b60405180910390fd5b6001600360008473ffffffffffffffffffffffffffffffffffffffff1673ffffffffffffffffffffffffffffffffffffffff16815260200190815260200160002060008282540192505081905550816002600083815260200190815260200160002060006101000a81548173ffffffffffffffffffffffffffffffffffffffff021916908373ffffffffffffffffffffffffffffffffffffffff160217905550808273ffffffffffffffffffffffffffffffffffffffff16600073ffffffffffffffffffffffffffffffffffffffff167fddf252ad1be2c89b69c2b068fc378daa952ba7f163c4a11628f55a4df523b3ef60405160405180910390a46116e0600083836001611835565b5050565b6116ef848484610e93565b6116fb8484848461183b565b61173a576040517f08c379a00000000000000000000000000000000000000000000000000000000081526004016117319061296a565b60405180910390fd5b50505050565b606060405180602001604052806000815250905090565b606060006001611766846119d2565b01905060008167ffffffffffffffff81111561178557611784611faa565b5b6040519080825280601f01601f1916602001820160405280156117b75781602001600182028036833780820191505090505b509050600082602001820190505b600115611824578080600190039150507f3031323334353637383961626364656600000000000000000000000000000000600a86061a8153600a858161180e5761180d61298a565b5b049450600085141561181f57611824565b6117c5565b819350505050919050565b50505050565b50505050565b600061185c8473ffffffffffffffffffffffffffffffffffffffff16611b25565b156119c5578373ffffffffffffffffffffffffffffffffffffffff1663150b7a02611885610d3d565b8786866040518563ffffffff1660e01b81526004016118a79493929190612a0e565b602060405180830381600087803b1580156118c157600080fd5b505af19250505080156118f257506040513d601f19601f820116820180604052508101906118ef9190612a6f565b60015b611975573d8060008114611922576040519150601f19603f3d011682016040523d82523d6000602084013e611927565b606091505b5060008151141561196d576040517f08c379a00000000000000000000000000000000000000000000000000000000081526004016119649061296a565b60405180910390fd5b805181602001fd5b63150b7a0260e01b7bffffffffffffffffffffffffffffffffffffffffffffffffffffffff1916817bffffffffffffffffffffffffffffffffffffffffffffffffffffffff1916149150506119ca565b600190505b949350505050565b600080600090507a184f03e93ff9f4daa797ed6e38ed64bf6a1f0100000000000000008310611a30577a184f03e93ff9f4daa797ed6e38ed64bf6a1f0100000000000000008381611a2657611a2561298a565b5b0492506040810190505b6d04ee2d6d415b85acef81000000008310611a6d576d04ee2d6d415b85acef81000000008381611a6357611a6261298a565b5b0492506020810190505b662386f26fc100008310611a9c57662386f26fc100008381611a9257611a9161298a565b5b0492506010810190505b6305f5e1008310611ac5576305f5e1008381611abb57611aba61298a565b5b0492506008810190505b6127108310611aea576127108381611ae057611adf61298a565b5b0492506004810190505b60648310611b0d5760648381611b0357611b0261298a565b5b0492506002810190505b600a8310611b1c576001810190505b80915050919050565b6000808273ffffffffffffffffffffffffffffffffffffffff163b119050919050565b6000604051905090565b600080fd5b600080fd5b60007fffffffff0000000000000000000000000000000000000000000000000000000082169050919050565b611b9181611b5c565b8114611b9c57600080fd5b50565b600081359050611bae81611b88565b92915050565b600060208284031215611bca57611bc9611b52565b5b6000611bd884828501611b9f565b91505092915050565b60008115159050919050565b611bf681611be1565b82525050565b6000602082019050611c116000830184611bed565b92915050565b600081519050919050565b600082825260208201905092915050565b60005b83811015611c51578082015181840152602081019050611c36565b83811115611c60576000848401525b50505050565b6000601f19601f8301169050919050565b6000611c8282611c17565b611c8c8185611c22565b9350611c9c818560208601611c33565b611ca581611c66565b840191505092915050565b60006020820190508181036000830152611cca8184611c77565b905092915050565b6000819050919050565b611ce581611cd2565b8114611cf057600080fd5b50565b600081359050611d0281611cdc565b92915050565b600060208284031215611d1e57611d1d611b52565b5b6000611d2c84828501611cf3565b91505092915050565b600073ffffffffffffffffffffffffffffffffffffffff82169050919050565b6000611d6082611d35565b9050919050565b611d7081611d55565b82525050565b6000602082019050611d8b6000830184611d67565b92915050565b611d9a81611d55565b8114611da557600080fd5b50565b600081359050611db781611d91565b92915050565b60008060408385031215611dd457611dd3611b52565b5b6000611de285828601611da8565b9250506020611df385828601611cf3565b9150509250929050565b600080600060608486031215611e1657611e15611b52565b5b6000611e2486828701611da8565b9350506020611e3586828701611da8565b9250506040611e4686828701611cf3565b9150509250925092565b6000819050919050565b611e6381611e50565b82525050565b6000602082019050611e7e6000830184611e5a565b92915050565b600060208284031215611e9a57611e99611b52565b5b6000611ea884828501611da8565b91505092915050565b611eba81611cd2565b82525050565b6000602082019050611ed56000830184611eb1565b92915050565b611ee481611be1565b8114611eef57600080fd5b50565b600081359050611f0181611edb565b92915050565b60008060408385031215611f1e57611f1d611b52565b5b6000611f2c85828601611da8565b9250506020611f3d85828601611ef2565b9150509250929050565b611f5081611e50565b8114611f5b57600080fd5b50565b600081359050611f6d81611f47565b92915050565b600060208284031215611f8957611f88611b52565b5b6000611f9784828501611f5e565b91505092915050565b600080fd5b600080fd5b7f4e487b7100000000000000000000000000000000000000000000000000000000600052604160045260246000fd5b611fe282611c66565b810181811067ffffffffffffffff8211171561200157612000611faa565b5b80604052505050565b6000612014611b48565b90506120208282611fd9565b919050565b600067ffffffffffffffff8211156120405761203f611faa565b5b61204982611c66565b9050602081019050919050565b82818337600083830152505050565b600061207861207384612025565b61200a565b90508281526020810184848401111561209457612093611fa5565b5b61209f848285612056565b509392505050565b600082601f8301126120bc576120bb611fa0565b5b81356120cc848260208601612065565b91505092915050565b600080600080608085870312156120ef576120ee611b52565b5b60006120fd87828801611da8565b945050602061210e87828801611da8565b935050604061211f87828801611cf3565b925050606085013567ffffffffffffffff8111156121405761213f611b57565b5b61214c878288016120a7565b91505092959194509250565b6000806040838503121561216f5761216e611b52565b5b600061217d85828601611da8565b925050602061218e85828601611da8565b9150509250929050565b7f4e487b7100000000000000000000000000000000000000000000000000000000600052602260045260246000fd5b600060028204905060018216806121df57607f821691505b602082108114156121f3576121f2612198565b5b50919050565b7f4552433732313a20617070726f76616c20746f2063757272656e74206f776e6560008201527f7200000000000000000000000000000000000000000000000000000000000000602082015250565b6000612255602183611c22565b9150612260826121f9565b604082019050919050565b6000602082019050818103600083015261228481612248565b9050919050565b7f4552433732313a20617070726f76652063616c6c6572206973206e6f7420746f60008201527f6b656e206f776e6572206f7220617070726f76656420666f7220616c6c000000602082015250565b60006122e7603d83611c22565b91506122f28261228b565b604082019050919050565b60006020820190508181036000830152612316816122da565b9050919050565b7f4552433732313a2063616c6c6572206973206e6f7420746f6b656e206f776e6560008201527f72206f7220617070726f76656400000000000000000000000000000000000000602082015250565b6000612379602d83611c22565b91506123848261231d565b604082019050919050565b600060208201905081810360008301526123a88161236c565b9050919050565b7f4552433732313a20696e76616c696420746f6b656e2049440000000000000000600082015250565b60006123e5601883611c22565b91506123f0826123af565b602082019050919050565b60006020820190508181036000830152612414816123d8565b9050919050565b7f4552433732313a2061646472657373207a65726f206973206e6f74206120766160008201527f6c6964206f776e65720000000000000000000000000000000000000000000000602082015250565b6000612477602983611c22565b91506124828261241b565b604082019050919050565b600060208201905081810360008301526124a68161246a565b9050919050565b7f43616c6c6572206973206e6f74206f776e6572206e6f7220617070726f766564600082015250565b60006124e3602083611c22565b91506124ee826124ad565b602082019050919050565b60006020820190508181036000830152612512816124d6565b9050919050565b7f4552433732314d657461646174613a2055524920717565727920666f72206e6f60008201527f6e6578697374656e7420746f6b656e0000000000000000000000000000000000602082015250565b6000612575602f83611c22565b915061258082612519565b604082019050919050565b600060208201905081810360008301526125a481612568565b9050919050565b7f4e487b7100000000000000000000000000000000000000000000000000000000600052601160045260246000fd5b60006125e582611cd2565b91506125f083611cd2565b9250827fffffffffffffffffffffffffffffffffffffffffffffffffffffffffffffffff03821115612625576126246125ab565b5b828201905092915050565b600081905092915050565b600061264682611c17565b6126508185612630565b9350612660818560208601611c33565b80840191505092915050565b6000612678828561263b565b9150612684828461263b565b91508190509392505050565b7f4552433732313a207472616e736665722066726f6d20696e636f72726563742060008201527f6f776e6572000000000000000000000000000000000000000000000000000000602082015250565b60006126ec602583611c22565b91506126f782612690565b604082019050919050565b6000602082019050818103600083015261271b816126df565b9050919050565b7f4552433732313a207472616e7366657220746f20746865207a65726f2061646460008201527f7265737300000000000000000000000000000000000000000000000000000000602082015250565b600061277e602483611c22565b915061278982612722565b604082019050919050565b600060208201905081810360008301526127ad81612771565b9050919050565b7f4552433732313a20617070726f766520746f2063616c6c657200000000000000600082015250565b60006127ea601983611c22565b91506127f5826127b4565b602082019050919050565b60006020820190508181036000830152612819816127dd565b9050919050565b7f4552433732313a206d696e7420746f20746865207a65726f2061646472657373600082015250565b6000612856602083611c22565b915061286182612820565b602082019050919050565b6000602082019050818103600083015261288581612849565b9050919050565b7f4552433732313a20746f6b656e20616c7265616479206d696e74656400000000600082015250565b60006128c2601c83611c22565b91506128cd8261288c565b602082019050919050565b600060208201905081810360008301526128f1816128b5565b9050919050565b7f4552433732313a207472616e7366657220746f206e6f6e20455243373231526560008201527f63656976657220696d706c656d656e7465720000000000000000000000000000602082015250565b6000612954603283611c22565b915061295f826128f8565b604082019050919050565b6000602082019050818103600083015261298381612947565b9050919050565b7f4e487b7100000000000000000000000000000000000000000000000000000000600052601260045260246000fd5b600081519050919050565b600082825260208201905092915050565b60006129e0826129b9565b6129ea81856129c4565b93506129fa818560208601611c33565b612a0381611c66565b840191505092915050565b6000608082019050612a236000830187611d67565b612a306020830186611d67565b612a3d6040830185611eb1565b8181036060830152612a4f81846129d5565b905095945050505050565b600081519050612a6981611b88565b92915050565b600060208284031215612a8557612a84611b52565b5b6000612a9384828501612a5a565b9150509291505056fea2646970667358221220e0ccfd92ff9007282ca9a2b937d1de4469b222fa6793f506486a6d3e715a47fb64736f6c63430008090033",
  "linkReferences": {},
  "deployedLinkReferences": {}
}