{
  "_format": "hh-sol-artifact-1",
  "contractName": "MainChainFx",
  "sourceName": "contracts/MainChainFx.sol",
  "abi": [
    {
      "inputs": [
        {
          "internalType": "address",
          "name": "_checkpointManager",
          "type": "address"
        },
        {
          "internalType": "address",
          "name": "_fxRoot",
          "type": "address"
        }
      ],
      "stateMutability": "nonpayable",
      "type": "constructor"
    },
    {
      "anonymous": false,
      "inputs": [
        {
          "indexed": true,
          "internalType": "bytes32",
          "name": "_hash",
          "type": "bytes32"
        }
      ],
      "name": "HashStored",
      "type": "event"
    },
    {
      "anonymous": false,
      "inputs": [
        {
          "indexed": true,
          "internalType": "bytes32",
          "name": "_hash",
          "type": "bytes32"
        }
      ],
      "name": "MessageReceived",
      "type": "event"
    },
    {
      "inputs": [],
      "name": "SEND_MESSAGE_EVENT_SIG",
      "outputs": [
        {
          "internalType": "bytes32",
          "name": "",
          "type": "bytes32"
        }
      ],
      "stateMutability": "view",
      "type": "function"
    },
    {
      "inputs": [],
      "name": "checkpointManager",
      "outputs": [
        {
          "internalType": "contract ICheckpointManager",
          "name": "",
          "type": "address"
        }
      ],
      "stateMutability": "view",
      "type": "function"
    },
    {
      "inputs": [],
      "name": "fxChildTunnel",
      "outputs": [
        {
          "internalType": "address",
          "name": "",
          "type": "address"
        }
      ],
      "stateMutability": "view",
      "type": "function"
    },
    {
      "inputs": [],
      "name": "fxRoot",
      "outputs": [
        {
          "internalType": "contract IFxStateSender",
          "name": "",
          "type": "address"
        }
      ],
      "stateMutability": "view",
      "type": "function"
    },
    {
      "inputs": [
        {
          "internalType": "bytes32",
          "name": "",
          "type": "bytes32"
        }
      ],
      "name": "hashes",
      "outputs": [
        {
          "internalType": "bool",
          "name": "",
          "type": "bool"
        }
      ],
      "stateMutability": "view",
      "type": "function"
    },
    {
      "inputs": [
        {
          "internalType": "bytes32",
          "name": "",
          "type": "bytes32"
        }
      ],
      "name": "processedExits",
      "outputs": [
        {
          "internalType": "bool",
          "name": "",
          "type": "bool"
        }
      ],
      "stateMutability": "view",
      "type": "function"
    },
    {
      "inputs": [
        {
          "internalType": "bytes",
          "name": "inputData",
          "type": "bytes"
        }
      ],
      "name": "receiveMessage",
      "outputs": [],
      "stateMutability": "nonpayable",
      "type": "function"
    },
    {
      "inputs": [
        {
          "internalType": "bytes",
          "name": "inputData",
          "type": "bytes"
        }
      ],
      "name": "receiveMessageFromChild",
      "outputs": [],
      "stateMutability": "nonpayable",
      "type": "function"
    },
    {
      "inputs": [
        {
          "internalType": "bytes",
          "name": "message",
          "type": "bytes"
        }
      ],
      "name": "sendMessageToChild",
      "outputs": [],
      "stateMutability": "nonpayable",
      "type": "function"
    },
    {
      "inputs": [
        {
          "internalType": "address",
          "name": "_fxChildTunnel",
          "type": "address"
        }
      ],
      "name": "setFxChildTunnel",
      "outputs": [],
      "stateMutability": "nonpayable",
      "type": "function"
    },
    {
      "inputs": [
        {
          "internalType": "bytes32",
          "name": "hash",
          "type": "bytes32"
        }
      ],
      "name": "storeHash",
      "outputs": [],
      "stateMutability": "nonpayable",
      "type": "function"
    }
  ],
  "bytecode": "0x60806040523480156200001157600080fd5b50604051620031503803806200315083398181016040528101906200003791906200012e565b818181600160006101000a81548173ffffffffffffffffffffffffffffffffffffffff021916908373ffffffffffffffffffffffffffffffffffffffff160217905550806000806101000a81548173ffffffffffffffffffffffffffffffffffffffff021916908373ffffffffffffffffffffffffffffffffffffffff1602179055505050505062000175565b600080fd5b600073ffffffffffffffffffffffffffffffffffffffff82169050919050565b6000620000f682620000c9565b9050919050565b6200010881620000e9565b81146200011457600080fd5b50565b6000815190506200012881620000fd565b92915050565b60008060408385031215620001485762000147620000c4565b5b6000620001588582860162000117565b92505060206200016b8582860162000117565b9150509250929050565b612fcb80620001856000396000f3fe608060405234801561001057600080fd5b50600436106100a95760003560e01c8063972c492811610071578063972c492814610150578063aea4e49e1461016e578063c0857ba01461018a578063d658d2e9146101a8578063de9b771f146101d8578063f953cec7146101f6576100a9565b80630e387de6146100ae5780633aaff693146100cc5780634c09e6e8146100e8578063607f2d42146101045780637fe8888514610134575b600080fd5b6100b6610212565b6040516100c39190611f38565b60405180910390f35b6100e660048036038101906100e191906120ad565b610239565b005b61010260048036038101906100fd91906120ad565b610253565b005b61011e60048036038101906101199190612122565b61025f565b60405161012b919061216a565b60405180910390f35b61014e60048036038101906101499190612122565b61027f565b005b6101586102db565b60405161016591906121c6565b60405180910390f35b6101886004803603810190610183919061220d565b610301565b005b6101926103d6565b60405161019f9190612299565b60405180910390f35b6101c260048036038101906101bd9190612122565b6103fc565b6040516101cf919061216a565b60405180910390f35b6101e061041c565b6040516101ed91906122d5565b60405180910390f35b610210600480360381019061020b91906120ad565b610440565b005b7f8c5261668696ce22758910d05bab8f186d6eb247ceac2af2e82c7dc17669b03660001b81565b60006102448261045a565b905061024f8161075f565b5050565b61025c816107d2565b50565b60036020528060005260406000206000915054906101000a900460ff1681565b60016004600083815260200190815260200160002060006101000a81548160ff021916908315150217905550807f94064d925a8b107bd49bcd440ea5da85b1ce987eef138b159ece3ba15735a42f60405160405180910390a250565b600260009054906101000a900473ffffffffffffffffffffffffffffffffffffffff1681565b600073ffffffffffffffffffffffffffffffffffffffff16600260009054906101000a900473ffffffffffffffffffffffffffffffffffffffff1673ffffffffffffffffffffffffffffffffffffffff1614610392576040517f08c379a000000000000000000000000000000000000000000000000000000000815260040161038990612373565b60405180910390fd5b80600260006101000a81548173ffffffffffffffffffffffffffffffffffffffff021916908373ffffffffffffffffffffffffffffffffffffffff16021790555050565b600160009054906101000a900473ffffffffffffffffffffffffffffffffffffffff1681565b60046020528060005260406000206000915054906101000a900460ff1681565b60008054906101000a900473ffffffffffffffffffffffffffffffffffffffff1681565b600061044b8261045a565b90506104568161075f565b5050565b6060600061046783610884565b90506000610474826108b8565b90506000610481836108e9565b905060008161048f8461091a565b61049886610b30565b6040516020016104aa93929190612438565b604051602081830303815290604052805190602001209050600015156003600083815260200190815260200160002060009054906101000a900460ff16151514610529576040517f08c379a0000000000000000000000000000000000000000000000000000000008152600401610520906124e3565b60405180910390fd5b60016003600083815260200190815260200160002060006101000a81548160ff021916908315150217905550600061056085610b61565b9050600061056d82610c86565b905061057881610cfd565b73ffffffffffffffffffffffffffffffffffffffff16600260009054906101000a900473ffffffffffffffffffffffffffffffffffffffff1673ffffffffffffffffffffffffffffffffffffffff1614610607576040517f08c379a00000000000000000000000000000000000000000000000000000000081526004016105fe90612575565b60405180910390fd5b600061061287610d2e565b905061063061062084610d62565b8761062a8a610d70565b84610da1565b61066f576040517f08c379a000000000000000000000000000000000000000000000000000000000815260040161066690612607565b60405180910390fd5b61069d8561067c896110a7565b6106858a6110d8565b8461068f8c61110c565b6106988d61113d565b61116e565b5060006106a9836112c4565b90507f8c5261668696ce22758910d05bab8f186d6eb247ceac2af2e82c7dc17669b03660001b6106eb6106e660008461130990919063ffffffff16565b611338565b60001b1461072e576040517f08c379a000000000000000000000000000000000000000000000000000000000815260040161072590612673565b60405180910390fd5b6000610739846113bb565b80602001905181019061074c9190612703565b9050809950505050505050505050919050565b610780604051806060016040528060258152602001612f71602591396113ec565b6000818060200190518101906107969190612761565b9050807fe29dc34207c78fc0f6048a32f159139c33339c6d6df8b07dcd33f6d699ff232760405160405180910390a26107ce8161027f565b5050565b60008054906101000a900473ffffffffffffffffffffffffffffffffffffffff1673ffffffffffffffffffffffffffffffffffffffff1663b4720477600260009054906101000a900473ffffffffffffffffffffffffffffffffffffffff16836040518363ffffffff1660e01b815260040161084f9291906127d8565b600060405180830381600087803b15801561086957600080fd5b505af115801561087d573d6000803e3d6000fd5b5050505050565b61088c611e9e565b600061089f61089a84611485565b6114b3565b9050604051806020016040528082815250915050919050565b60606108e282600001516008815181106108d5576108d4612808565b5b60200260200101516115c8565b9050919050565b6000610913826000015160028151811061090657610905612808565b5b6020026020010151611338565b9050919050565b60606000604051806020016040528060008152509050600083511115610b275760008061094860008661167f565b60f81c905060018160ff161480610962575060038160ff16145b15610a2c576001600286516109779190612866565b61098191906128c0565b67ffffffffffffffff81111561099a57610999611f82565b5b6040519080825280601f01601f1916602001820160405280156109cc5781602001600182028036833780820191505090505b50925060006109dc60018761167f565b905080846000815181106109f3576109f2612808565b5b60200101907effffffffffffffffffffffffffffffffffffffffffffffffffffffffffffff1916908160001a9053506001925050610a98565b6002808651610a3b9190612866565b610a4591906128c0565b67ffffffffffffffff811115610a5e57610a5d611f82565b5b6040519080825280601f01601f191660200182016040528015610a905781602001600182028036833780820191505090505b509250600091505b60008260ff1690505b8351811015610b2357610ace60028460ff1683610abe91906128c0565b610ac891906128f4565b8761167f565b848281518110610ae157610ae0612808565b5b60200101907effffffffffffffffffffffffffffffffffffffffffffffffffffffffffffff1916908160001a9053508080610b1b9061294a565b915050610aa1565b5050505b80915050919050565b6000610b5a8260000151600981518110610b4d57610b4c612808565b5b6020026020010151611338565b9050919050565b610b69611eb1565b610b918260000151600681518110610b8457610b83612808565b5b60200260200101516115c8565b81602001819052506000610ba88260200151611485565b9050610bb381611717565b15610bce57610bc1816114b3565b8260000181905250610c6e565b600082602001519050600060018251610be791906128c0565b67ffffffffffffffff811115610c0057610bff611f82565b5b6040519080825280601f01601f191660200182016040528015610c325781602001600182028036833780820191505090505b509050600080836021019150826020019050610c5082828551611765565b610c61610c5c84611485565b6114b3565b8660000181905250505050505b610c7783610b30565b82604001818152505050919050565b610c8e611ed2565b6000610cb88360000151600381518110610cab57610caa612808565b5b60200260200101516114b3565b836040015181518110610cce57610ccd612808565b5b602002602001015190506040518060400160405280828152602001610cf2836114b3565b815250915050919050565b6000610d278260200151600081518110610d1a57610d19612808565b5b6020026020010151611810565b9050919050565b6000610d588260000151600581518110610d4b57610d4a612808565b5b6020026020010151611338565b60001b9050919050565b606081602001519050919050565b6060610d9a8260000151600781518110610d8d57610d8c612808565b5b60200260200101516115c8565b9050919050565b600080610dad84611485565b90506000610dba826114b3565b90506060806000869050600080610dd08b61091a565b9050600081511415610dec57600097505050505050505061109f565b60005b8651811015611096578151831115610e125760009850505050505050505061109f565b610e35878281518110610e2857610e27612808565b5b6020026020010151611833565b955085805190602001208414610e565760009850505050505050505061109f565b610e79878281518110610e6c57610e6b612808565b5b60200260200101516114b3565b9450601185511415610f6c578151831415610ee9578c80519060200120610eba86601081518110610ead57610eac612808565b5b60200260200101516115c8565b805190602001201415610ed85760019850505050505050505061109f565b60009850505050505050505061109f565b6000828481518110610efe57610efd612808565b5b602001015160f81c60f81b60f81c905060108160ff161115610f2c576000995050505050505050505061109f565b610f52868260ff1681518110610f4557610f44612808565b5b60200260200101516118c3565b60001b9450600184610f6491906128f4565b935050611083565b600285511415611071576000610fa6610f9f87600081518110610f9257610f91612808565b5b60200260200101516115c8565b84866118fa565b905082518185610fb691906128f4565b1415611019578d80519060200120610fe887600181518110610fdb57610fda612808565b5b60200260200101516115c8565b805190602001201415611007576001995050505050505050505061109f565b6000995050505050505050505061109f565b6000811415611034576000995050505050505050505061109f565b808461104091906128f4565b93506110668660018151811061105957611058612808565b5b60200260200101516118c3565b60001b945050611082565b60009850505050505050505061109f565b5b808061108e9061294a565b915050610def565b50505050505050505b949350505050565b60006110d182600001516003815181106110c4576110c3612808565b5b6020026020010151611338565b9050919050565b600061110282600001516004815181106110f5576110f4612808565b5b6020026020010151611338565b60001b9050919050565b6000611136826000015160008151811061112957611128612808565b5b6020026020010151611338565b9050919050565b6060611167826000015160018151811061115a57611159612808565b5b60200260200101516115c8565b9050919050565b600080600080600160009054906101000a900473ffffffffffffffffffffffffffffffffffffffff1673ffffffffffffffffffffffffffffffffffffffff166341539d4a876040518263ffffffff1660e01b81526004016111cf91906129a2565b60a06040518083038186803b1580156111e757600080fd5b505afa1580156111fb573d6000803e3d6000fd5b505050506040513d601f19601f8201168201806040525081019061121f91906129fe565b5093505092509250611275828b61123691906128c0565b84878d8d8d8d60405160200161124f9493929190612a9a565b60405160208183030381529060405280519060200120611a30909392919063ffffffff16565b6112b4576040517f08c379a00000000000000000000000000000000000000000000000000000000081526004016112ab90612b34565b60405180910390fd5b8093505050509695505050505050565b6112cc611ef2565b60405180602001604052806112ff84602001516001815181106112f2576112f1612808565b5b60200260200101516114b3565b8152509050919050565b611311611f05565b8260000151828151811061132857611327612808565b5b6020026020010151905092915050565b600080826000015111801561135257506021826000015111155b61135b57600080fd5b600061136a8360200151611ba1565b9050600081846000015161137e91906128c0565b905060008083866020015161139391906128f4565b90508051915060208310156113af57826020036101000a820491505b81945050505050919050565b60606113e582602001516002815181106113d8576113d7612808565b5b60200260200101516115c8565b9050919050565b611482816040516024016114009190612b98565b6040516020818303038152906040527f41304fac000000000000000000000000000000000000000000000000000000007bffffffffffffffffffffffffffffffffffffffffffffffffffffffff19166020820180517bffffffffffffffffffffffffffffffffffffffffffffffffffffffff8381831617835250505050611c60565b50565b61148d611f05565b600060208301905060405180604001604052808451815260200182815250915050919050565b60606114be82611717565b6114c757600080fd5b60006114d283611c89565b905060008167ffffffffffffffff8111156114f0576114ef611f82565b5b60405190808252806020026020018201604052801561152957816020015b611516611f05565b81526020019060019003908161150e5790505b509050600061153b8560200151611ba1565b856020015161154a91906128f4565b9050600080600090505b848110156115bb5761156583611d17565b915060405180604001604052808381526020018481525084828151811061158f5761158e612808565b5b602002602001018190525081836115a691906128f4565b925080806115b39061294a565b915050611554565b5082945050505050919050565b606060008260000151116115db57600080fd5b60006115ea8360200151611ba1565b905060008184600001516115fe91906128c0565b905060008167ffffffffffffffff81111561161c5761161b611f82565b5b6040519080825280601f01601f19166020018201604052801561164e5781602001600182028036833780820191505090505b509050600081602001905061167384876020015161166c91906128f4565b8285611df3565b81945050505050919050565b60008060028461168f9190612be9565b146116d2576010826002856116a49190612c1a565b815181106116b5576116b4612808565b5b602001015160f81c60f81b60f81c6116cd9190612c58565b61170c565b6010826002856116e29190612c1a565b815181106116f3576116f2612808565b5b602001015160f81c60f81b60f81c61170b9190612c89565b5b60f81b905092915050565b6000808260000151141561172e5760009050611760565b60008083602001519050805160001a915060c060ff168260ff16101561175957600092505050611760565b6001925050505b919050565b60008114156117735761180b565b5b602060ff1681106117be5782518252602060ff168361179391906128f4565b9250602060ff16826117a591906128f4565b9150602060ff16816117b791906128c0565b9050611774565b60008114156117cc5761180b565b6000600182602060ff166117e091906128c0565b6101006117ed9190612ded565b6117f791906128c0565b905080198451168184511681811785525050505b505050565b6000601582600001511461182357600080fd5b61182c82611338565b9050919050565b60606000826000015167ffffffffffffffff81111561185557611854611f82565b5b6040519080825280601f01601f1916602001820160405280156118875781602001600182028036833780820191505090505b50905060008151141561189d57809150506118be565b60008160200190506118b88460200151828660000151611df3565b81925050505b919050565b600060218260000151146118d657600080fd5b600080600184602001516118ea91906128f4565b9050805191508192505050919050565b60008060009050600061190c8661091a565b90506000815167ffffffffffffffff81111561192b5761192a611f82565b5b6040519080825280601f01601f19166020018201604052801561195d5781602001600182028036833780820191505090505b50905060008590505b82518661197391906128f4565b8110156119fe57600087828151811061198f5761198e612808565b5b602001015160f81c60f81b9050808388846119aa91906128c0565b815181106119bb576119ba612808565b5b60200101907effffffffffffffffffffffffffffffffffffffffffffffffffffffffffffff1916908160001a9053505080806119f69061294a565b915050611966565b50808051906020012082805190602001201415611a1e5781519250611a23565b600092505b8293505050509392505050565b60008060208351611a419190612be9565b14611a81576040517f08c379a0000000000000000000000000000000000000000000000000000000008152600401611a7890612e84565b60405180910390fd5b600060208351611a919190612c1a565b9050806002611aa09190612ded565b8510611ae1576040517f08c379a0000000000000000000000000000000000000000000000000000000008152600401611ad890612ef0565b60405180910390fd5b6000808790506000602090505b85518111611b90578086015192506000600289611b0b9190612be9565b1415611b41578183604051602001611b24929190612f10565b604051602081830303815290604052805190602001209150611b6d565b8282604051602001611b54929190612f10565b6040516020818303038152906040528051906020012091505b600288611b7a9190612c1a565b9750602081611b8991906128f4565b9050611aee565b508581149350505050949350505050565b600080825160001a9050608060ff16811015611bc1576000915050611c5b565b60b860ff16811080611be6575060c060ff168110158015611be5575060f860ff1681105b5b15611bf5576001915050611c5b565b60c060ff16811015611c305760018060b8611c109190612f3c565b60ff1682611c1e91906128c0565b611c2891906128f4565b915050611c5b565b60018060f8611c3f9190612f3c565b60ff1682611c4d91906128c0565b611c5791906128f4565b9150505b919050565b60008151905060006a636f6e736f6c652e6c6f679050602083016000808483855afa5050505050565b60008082600001511415611ca05760009050611d12565b600080611cb08460200151611ba1565b8460200151611cbf91906128f4565b9050600084600001518560200151611cd791906128f4565b90505b80821015611d0b57611ceb82611d17565b82611cf691906128f4565b91508280611d039061294a565b935050611cda565b8293505050505b919050565b6000806000835160001a9050608060ff16811015611d385760019150611de9565b60b860ff16811015611d67576001608060ff1682611d5691906128c0565b611d6091906128f4565b9150611de8565b60c060ff16811015611d975760b78103600185019450806020036101000a85510460018201810193505050611de7565b60f860ff16811015611dc657600160c060ff1682611db591906128c0565b611dbf91906128f4565b9150611de6565b60f78103600185019450806020036101000a855104600182018101935050505b5b5b5b8192505050919050565b6000811415611e0157611e99565b5b602060ff168110611e4c5782518252602060ff1683611e2191906128f4565b9250602060ff1682611e3391906128f4565b9150602060ff1681611e4591906128c0565b9050611e02565b6000811415611e5a57611e99565b6000600182602060ff16611e6e91906128c0565b610100611e7b9190612ded565b611e8591906128c0565b905080198451168184511681811785525050505b505050565b6040518060200160405280606081525090565b60405180606001604052806060815260200160608152602001600081525090565b6040518060400160405280611ee5611f05565b8152602001606081525090565b6040518060200160405280606081525090565b604051806040016040528060008152602001600081525090565b6000819050919050565b611f3281611f1f565b82525050565b6000602082019050611f4d6000830184611f29565b92915050565b6000604051905090565b600080fd5b600080fd5b600080fd5b600080fd5b6000601f19601f8301169050919050565b7f4e487b7100000000000000000000000000000000000000000000000000000000600052604160045260246000fd5b611fba82611f71565b810181811067ffffffffffffffff82111715611fd957611fd8611f82565b5b80604052505050565b6000611fec611f53565b9050611ff88282611fb1565b919050565b600067ffffffffffffffff82111561201857612017611f82565b5b61202182611f71565b9050602081019050919050565b82818337600083830152505050565b600061205061204b84611ffd565b611fe2565b90508281526020810184848401111561206c5761206b611f6c565b5b61207784828561202e565b509392505050565b600082601f83011261209457612093611f67565b5b81356120a484826020860161203d565b91505092915050565b6000602082840312156120c3576120c2611f5d565b5b600082013567ffffffffffffffff8111156120e1576120e0611f62565b5b6120ed8482850161207f565b91505092915050565b6120ff81611f1f565b811461210a57600080fd5b50565b60008135905061211c816120f6565b92915050565b60006020828403121561213857612137611f5d565b5b60006121468482850161210d565b91505092915050565b60008115159050919050565b6121648161214f565b82525050565b600060208201905061217f600083018461215b565b92915050565b600073ffffffffffffffffffffffffffffffffffffffff82169050919050565b60006121b082612185565b9050919050565b6121c0816121a5565b82525050565b60006020820190506121db60008301846121b7565b92915050565b6121ea816121a5565b81146121f557600080fd5b50565b600081359050612207816121e1565b92915050565b60006020828403121561222357612222611f5d565b5b6000612231848285016121f8565b91505092915050565b6000819050919050565b600061225f61225a61225584612185565b61223a565b612185565b9050919050565b600061227182612244565b9050919050565b600061228382612266565b9050919050565b61229381612278565b82525050565b60006020820190506122ae600083018461228a565b92915050565b60006122bf82612266565b9050919050565b6122cf816122b4565b82525050565b60006020820190506122ea60008301846122c6565b92915050565b600082825260208201905092915050565b7f467842617365526f6f7454756e6e656c3a204348494c445f54554e4e454c5f4160008201527f4c52454144595f53455400000000000000000000000000000000000000000000602082015250565b600061235d602a836122f0565b915061236882612301565b604082019050919050565b6000602082019050818103600083015261238c81612350565b9050919050565b6000819050919050565b6000819050919050565b6123b86123b382612393565b61239d565b82525050565b600081519050919050565b600081905092915050565b60005b838110156123f25780820151818401526020810190506123d7565b83811115612401576000848401525b50505050565b6000612412826123be565b61241c81856123c9565b935061242c8185602086016123d4565b80840191505092915050565b600061244482866123a7565b6020820191506124548285612407565b915061246082846123a7565b602082019150819050949350505050565b7f4678526f6f7454756e6e656c3a20455849545f414c52454144595f50524f434560008201527f5353454400000000000000000000000000000000000000000000000000000000602082015250565b60006124cd6024836122f0565b91506124d882612471565b604082019050919050565b600060208201905081810360008301526124fc816124c0565b9050919050565b7f4678526f6f7454756e6e656c3a20494e56414c49445f46585f4348494c445f5460008201527f554e4e454c000000000000000000000000000000000000000000000000000000602082015250565b600061255f6025836122f0565b915061256a82612503565b604082019050919050565b6000602082019050818103600083015261258e81612552565b9050919050565b7f4678526f6f7454756e6e656c3a20494e56414c49445f524543454950545f505260008201527f4f4f460000000000000000000000000000000000000000000000000000000000602082015250565b60006125f16023836122f0565b91506125fc82612595565b604082019050919050565b60006020820190508181036000830152612620816125e4565b9050919050565b7f4678526f6f7454756e6e656c3a20494e56414c49445f5349474e415455524500600082015250565b600061265d601f836122f0565b915061266882612627565b602082019050919050565b6000602082019050818103600083015261268c81612650565b9050919050565b60006126a66126a184611ffd565b611fe2565b9050828152602081018484840111156126c2576126c1611f6c565b5b6126cd8482856123d4565b509392505050565b600082601f8301126126ea576126e9611f67565b5b81516126fa848260208601612693565b91505092915050565b60006020828403121561271957612718611f5d565b5b600082015167ffffffffffffffff81111561273757612736611f62565b5b612743848285016126d5565b91505092915050565b60008151905061275b816120f6565b92915050565b60006020828403121561277757612776611f5d565b5b60006127858482850161274c565b91505092915050565b600082825260208201905092915050565b60006127aa826123be565b6127b4818561278e565b93506127c48185602086016123d4565b6127cd81611f71565b840191505092915050565b60006040820190506127ed60008301856121b7565b81810360208301526127ff818461279f565b90509392505050565b7f4e487b7100000000000000000000000000000000000000000000000000000000600052603260045260246000fd5b7f4e487b7100000000000000000000000000000000000000000000000000000000600052601160045260246000fd5b600061287182612393565b915061287c83612393565b9250817fffffffffffffffffffffffffffffffffffffffffffffffffffffffffffffffff04831182151516156128b5576128b4612837565b5b828202905092915050565b60006128cb82612393565b91506128d683612393565b9250828210156128e9576128e8612837565b5b828203905092915050565b60006128ff82612393565b915061290a83612393565b9250827fffffffffffffffffffffffffffffffffffffffffffffffffffffffffffffffff0382111561293f5761293e612837565b5b828201905092915050565b600061295582612393565b91507fffffffffffffffffffffffffffffffffffffffffffffffffffffffffffffffff82141561298857612987612837565b5b600182019050919050565b61299c81612393565b82525050565b60006020820190506129b76000830184612993565b92915050565b6129c681612393565b81146129d157600080fd5b50565b6000815190506129e3816129bd565b92915050565b6000815190506129f8816121e1565b92915050565b600080600080600060a08688031215612a1a57612a19611f5d565b5b6000612a288882890161274c565b9550506020612a39888289016129d4565b9450506040612a4a888289016129d4565b9350506060612a5b888289016129d4565b9250506080612a6c888289016129e9565b9150509295509295909350565b6000819050919050565b612a94612a8f82611f1f565b612a79565b82525050565b6000612aa682876123a7565b602082019150612ab682866123a7565b602082019150612ac68285612a83565b602082019150612ad68284612a83565b60208201915081905095945050505050565b7f4678526f6f7454756e6e656c3a20494e56414c49445f48454144455200000000600082015250565b6000612b1e601c836122f0565b9150612b2982612ae8565b602082019050919050565b60006020820190508181036000830152612b4d81612b11565b9050919050565b600081519050919050565b6000612b6a82612b54565b612b7481856122f0565b9350612b848185602086016123d4565b612b8d81611f71565b840191505092915050565b60006020820190508181036000830152612bb28184612b5f565b905092915050565b7f4e487b7100000000000000000000000000000000000000000000000000000000600052601260045260246000fd5b6000612bf482612393565b9150612bff83612393565b925082612c0f57612c0e612bba565b5b828206905092915050565b6000612c2582612393565b9150612c3083612393565b925082612c4057612c3f612bba565b5b828204905092915050565b600060ff82169050919050565b6000612c6382612c4b565b9150612c6e83612c4b565b925082612c7e57612c7d612bba565b5b828206905092915050565b6000612c9482612c4b565b9150612c9f83612c4b565b925082612caf57612cae612bba565b5b828204905092915050565b60008160011c9050919050565b6000808291508390505b6001851115612d1157808604811115612ced57612cec612837565b5b6001851615612cfc5780820291505b8081029050612d0a85612cba565b9450612cd1565b94509492505050565b600082612d2a5760019050612de6565b81612d385760009050612de6565b8160018114612d4e5760028114612d5857612d87565b6001915050612de6565b60ff841115612d6a57612d69612837565b5b8360020a915084821115612d8157612d80612837565b5b50612de6565b5060208310610133831016604e8410600b8410161715612dbc5782820a905083811115612db757612db6612837565b5b612de6565b612dc98484846001612cc7565b92509050818404811115612de057612ddf612837565b5b81810290505b9392505050565b6000612df882612393565b9150612e0383612393565b9250612e307fffffffffffffffffffffffffffffffffffffffffffffffffffffffffffffffff8484612d1a565b905092915050565b7f496e76616c69642070726f6f66206c656e677468000000000000000000000000600082015250565b6000612e6e6014836122f0565b9150612e7982612e38565b602082019050919050565b60006020820190508181036000830152612e9d81612e61565b9050919050565b7f4c65616620696e64657820697320746f6f206269670000000000000000000000600082015250565b6000612eda6015836122f0565b9150612ee582612ea4565b602082019050919050565b60006020820190508181036000830152612f0981612ecd565b9050919050565b6000612f1c8285612a83565b602082019150612f2c8284612a83565b6020820191508190509392505050565b6000612f4782612c4b565b9150612f5283612c4b565b925082821015612f6557612f64612837565b5b82820390509291505056fe4d61696e436861696e46783a205f70726f636573734d65737361676546726f6d4368696c64a2646970667358221220c70c192ad700a44355d6ec9ddd5d9dec73b07436e5b73be31807b1969ee032aa64736f6c63430008090033",
  "linkReferences": {},
  "deployedLinkReferences": {}
}